:020000040800F2
:10000000B80C0020A13300088F05000891050008F6
:1000100095050008990500089D05000800000000EE
:10002000000000000000000000000000A105000822
:10003000A305000800000000A5050008A7050008AA
:10004000BB330008BB330008BB330008BB330008D8
:10005000BB330008BB330008BB330008BB330008C8
:10006000BB330008BB330008BB330008BB330008B8
:10007000BB330008BB330008BB330008BB330008A8
:10008000BB330008BB330008BB330008BB33000898
:10009000BB330008BB330008BB330008BB33000888
:1000A000BB330008BB330008BB330008BB33000878
:1000B000BB330008BB33000851540008BB330008B1
:1000C000BB330008BB330008BB330008BB33000858
:1000D000BB33000817330008BB330008BB330008EC
:1000E000BB330008BB330008BB330008BB33000838
:1000F000BB330008BB330008BB330008BB33000828
:10010000BB330008BB330008BB330008BB33000817
:10011000BB330008BB330008BB330008BB33000807
:10012000BB330008BB330008BB330008BB330008F7
:1001300000F002F800F076F80AA090E8000C824483
:100140008344AAF10107DA4501D100F06BF8AFF260
:10015000090EBAE80F0013F0010F18BFFB1A43F0A5
:1001600001031847549F0000749F00000A444FF099
:10017000000C10F8013B13F0070408BF10F8014B06
:100180001D1108BF10F8015B641E05D010F8016B4B
:10019000641E01F8016BF9D113F0080F1EBF10F8AF
:1001A000014BAD1C0C1B09D16D1E58BF01F801CBD2
:1001B000FAD505E014F8016B01F8016B6D1EF9D555
:1001C0009142D6D37047000000230024002500266A
:1001D000103A28BF78C1FBD8520728BF30C148BFAA
:1001E0000B607047662908F0D086642905F02087E7
:1001F000752905F01D87782905F05687632906F0D3
:10020000E282732906F0E782002070471FB506F0EE
:10021000F9FA04000020002107F0D6FDE0601FBDC0
:1002200010B510BD06F0F6FB1146FFF7EFFF00F02A
:1002300009F806F014FC03B4FFF7F2FF03BC03F067
:100240000FF800001FB500200090019002904FF4BD
:10025000A06003F049FE02F099FF2C4803F00FF86C
:100260002B4841684820884700F08EFA00F0B4FA25
:1002700000F00FFF02F038FF7F2000F082FF2548DA
:1002800002F091FC02F0C6FB02F0C5FC22A30022A2
:100290000A21104601F056F921A30022142110462C
:1002A00001F050F920A300221E21104601F04AF966
:1002B0002BE002F095FC022807D102F0ADFA0D21E7
:1002C0001B4802F00FFC02F0A6FC03AA694618487E
:1002D00002F0CEFD00220A212820009B01F0D1F976
:1002E000002214212820019B01F0CBF900221E21BD
:1002F0002820029B01F0C5F9009802F0F9FE019850
:1003000002F00EFF029802F023FFD2E720A10700BF
:100310008C000020000000206261736520203A00FC
:100320006C696E6B31203A006C696E6B32203A005A
:100330008001002008B54FF4C06003F0D5FD1920FE
:100340008DF8000000208DF8010001208DF80200DA
:100350008DF80300684603F0CCFD4FF4C06003F055
:10036000C3FD1C208DF8000000208DF80100022044
:100370008DF8020001208DF80300684603F0B9FDF6
:100380004FF4C06003F0B0FD1D208DF80000002088
:100390008DF8010003208DF8020001208DF8030084
:1003A000684603F0A6FD4FF4C06003F09DFD1E20DB
:1003B0008DF8000000208DF8010004208DF8020067
:1003C00001208DF80300684603F093FD4FF4C060F0
:1003D00003F08AFD32208DF8000000208DF8010026
:1003E00005208DF8020001208DF80300684603F017
:1003F00080FD4FF4C06003F077FD36208DF80000DB
:1004000000208DF8010006208DF8020001208DF8F3
:100410000300684603F06DFD4FF4C06003F064FD17
:1004200037208DF8000000208DF8010007208DF89E
:10043000020001208DF80300684603F05AFD4FF4D6
:10044000C06003F051FD2C208DF8000001208DF8D4
:10045000010000208DF8020001208DF8030068469D
:1004600003F047FD4FF4A06003F03EFD25208DF81A
:10047000000000208DF801008DF8020001208DF8A9
:100480000300684603F035FD4FF4A06003F02CFD37
:1004900026208DF8000000208DF8010001208DF845
:1004A00002008DF80300684603F023FD4FF4A060BE
:1004B00003F01AFD27208DF8000000208DF80100C0
:1004C00002208DF8020001208DF80300684603F039
:1004D00010FD4FF4A06003F007FD34208DF80000FC
:1004E00000208DF8010003208DF8020001208DF816
:1004F0000300684603F0FDFC4FF4A06003F0F4FC39
:1005000007208DF8000001208DF8010000208DF8F3
:10051000020001208DF80300684603F0EAFC4FF466
:10052000A06003F0E1FC06208DF8000001208DF8AA
:1005300001008DF802008DF80300684603F0D9FC35
:100540004FF4A06003F0D0FC17208DF800000120CC
:100550008DF8010002208DF8020001208DF80300C3
:10056000684603F0C6FC4FF4A06003F0BDFC2820F1
:100570008DF8000001208DF8010003208DF80200A5
:1005800001208DF80300684603F0B3FC08BD7047F6
:1005900000BFFEE700BFFEE700BFFEE700BFFEE7CB
:1005A00070477047704770470CB50020019000906D
:1005B0006C48006840F480306A49086000BF6948B0
:1005C000006800F4003000900198401C01900098F1
:1005D00018B90198B0F5A06FF1D16248006800F435
:1005E000003010B10120009001E000200090009840
:1005F000012843D15C48006840F010005A49086067
:100600000846006820F0030008600846006840F0D3
:1006100002000860534840685249486008464068F4
:1006200048600846406840F480604860084640687A
:1006300020F47C1048600846406840F4E8104860A8
:100640000846006840F08070086000BF45480068B8
:1006500000F000700028F9D04248406820F0030004
:10066000404948600846406840F00200486000BFCA
:100670003C48406800F00C000828F9D10CBD10B5CA
:10068000FFF792FF10BD10B53648006840F001003A
:100690003449086008464068344908403149486098
:1006A00008460068324908402E490860084600683C
:1006B00020F4802008600846406820F4FE0048606E
:1006C0004FF41F008860FFF7DAFF4FF00060294900
:1006D000086010BD10B5002100200022214B5B688E
:1006E00003F00C0121B1042906D0082928D107E024
:1006F000214B224C236027E01F4B204C236023E03A
:10070000184B5B6803F47010164B5B6803F480327F
:10071000022303EB904022B9194B4343174C23604B
:100720000DE0104B5B6803F4003323B1144B4343DB
:10073000124C236003E0104B4343104C236003E052
:100740000D4B0E4C236000BF00BF064B5B68C3F32C
:1007500003130C4CE15C094B1B68CB40074C236036
:1007600010BD000000100240002002400000FFF811
:10077000FFFFF6FE08ED00E000127A0008000020FE
:1007800000093D000C00002008B50121242003F0E1
:1007900043F94FF48070ADF8000010208DF803008D
:1007A00003208DF802006946094802F079FE4FF4F3
:1007B0008071074802F021FF0420ADF8000069466F
:1007C000044802F06DFE0421024802F016FF08BD45
:1007D000000801400014014008B50121142003F075
:1007E0001BF90121374802F02CFF4FF40040ADF80F
:1007F000000048208DF803006946334802F050FE9F
:100800002020ADF8000048208DF8030069462F48ED
:1008100002F046FE0120ADF8000028208DF803000C
:100820006946294802F03CFE08BD10B5044614B1E3
:100830000120274908702648007868B32021234802
:1008400002F0C1FE58B14FF400411F4802F0BBFE58
:1008500028B101211C4802F0B6FE01281CD10A2053
:1008600002F0D1FC00201A4908702021174802F03C
:10087000AAFE08B9012010BD4FF40041124802F051
:10088000A2FE08B90220F6E701210F4802F09BFE04
:10089000012815D10320EEE720210C4802F093FE39
:1008A00001280DD1C103084802F08DFE012807D1AF
:1008B0000121054802F087FE10B9012004490870A3
:1008C0000020D8E70002300000080140001001407D
:1008D0001C00002010B5022002F071FC10BD08B50C
:1008E0000121102003F098F84FF4C050ADF800003B
:1008F00010208DF8030003208DF802006946864819
:1009000002F0CEFD4FF4C051834802F076FE08BDE0
:1009100010B58148406820F470407F49486008461F
:10092000406840F44050486001207C4908607C49A0
:10093000C1F8B001FFF7CEFF002078490860FFF74B
:10094000C9FF00207649C1F8B00110BD10B572484A
:10095000406820F47040704948600846406840F4A0
:100960004050486000206D49091D08606C49C1F87D
:10097000AC01FFF7AFFF01206849091D0860684915
:10098000C1F8AC01FFF7A6FF10BD10B50024624806
:10099000406820F47040604948600846406840F470
:1009A0000040486001205D490860FFF793FF012087
:1009B0005B49C1F8B001FFF78DFF07E0601CC4B2CE
:1009C000FA2C03DDFFF7C2FF012010BD5348803829
:1009D00000680028F2D15149091D086000BFF4E702
:1009E00010B500204D49091D08604B48406820F4AF
:1009F0007040494948600846406840F440504860AB
:100A000000204749C1F8AC01FFF764FF01204349CA
:100A1000091D0860FFF75EFF00204149C1F8B001E1
:100A200010BD10B500203D49091D08603A484068D6
:100A300020F47040384948600846406840F440500F
:100A4000486001203649C1F8AC01FFF743FF01209F
:100A50003249091D0860FFF73DFF00203049C1F809
:100A6000B00110BD70B504462B48406820F47040BA
:100A7000294948600846406840F4405048600020DA
:100A80002649091D0860002512E0E0092349086095
:100A90006006040E01202249C1F8B001FFF71AFFD9
:100AA00000201E49091D0860FFF714FF681CC5B22D
:100AB000082DEADB70BD70B5054600241648406875
:100AC00020F47040144948600846406840F40040F3
:100AD0004860002615E000201049091D0860FFF756
:100AE000F9FE01200E49C1F8B0016006040E0B4862
:100AF0008038006808B1601CC4B2FFF7EBFE701CC0
:100B0000C6B2082EE7DB15B9FFF78BFF01E0FFF750
:100B100067FF204670BD000000100140AC0122427A
:100B20000000224270B505460C46FFF7F1FED020CA
:100B3000FFF798FFFFF729FF18B1FFF707FF012024
:100B400070BD2846FFF78EFFFFF71FFF2046FFF717
:100B500089FFFFF71AFF18B1FFF7F8FE0120EFE752
:100B6000FFF7F4FE0020EBE770B504460025BC2C2F
:100B700001DB012510E0622C01DB02250CE02A2CB0
:100B800001DB032508E0142C01DB042504E00A2C1A
:100B900001DB052500E0062529461A20FFF7C2FFE4
:100BA00070BD70B50446B4F57A7F01DD4FF47A74F8
:100BB000042C00DA04244FF47A7090FBF4F0401E09
:100BC000C5B229461920FFF7ADFF0546264604EBBE
:100BD000D671C1F34F00FFF7C7FF70BD70B5044673
:100BE000FFF796FED020FFF73DFFFFF7CEFE204631
:100BF000FFF738FFFFF7C9FEFFF78AFED120FFF7A6
:100C000031FFFFF7C2FE0020FFF755FF0546FFF753
:100C10009DFE284670BD10B50446E006010E1C205E
:100C2000FFF780FF10BD10B50446E006010E1B2043
:100C3000FFF778FF10BD10B5FFF751FE80216B2044
:100C4000FFF770FF642002F0DEFA00216B20FFF74F
:100C500069FF0320FFF7E7FF0020FFF7DCFF3220EA
:100C6000FFF79FFF00213820FFF75CFF00216A207B
:100C7000FFF758FF00212320FFF754FF8021372082
:100C8000FFF750FF7520FFF7A9FF0446682C0BD132
:100C900001216B20FFF746FF00216C20FFF742FF88
:100CA0003220FFF77EFF01E0012010BD0020FCE7AD
:100CB0002DE9F04106460F4614461D46FFF728FE73
:100CC000002141EA4601C8B2FFF7CCFEFFF75DFE06
:100CD00020B1FFF73BFE0120BDE8F0813846FFF769
:100CE000C1FEFFF752FEFFF713FE012101EB4601A3
:100CF000C8B2FFF7B7FEFFF748FE0DE0012C04D1A4
:100D00000020FFF7D8FE287003E00120FFF7D3FE94
:100D10002870601EC4B26D1C002CEFD1FFF716FEC8
:100D20000020D9E72DE9F84F6B46022241216820C7
:100D3000FFF7BEFF9DF801009DF8001040EA01207A
:100D40000FFA80FA504607F0C8FA804600224B4B53
:100D500007F03EF906464A4A4A4B07F07DF804463A
:100D600007F048F883464849584607F0CDFF044647
:100D700007F07AFF00B2BDE8F88F2DE9FC41044688
:100D80000D4616466B46062243216820FFF790FF6A
:100D90000746BFB99DF801009DF8001040EA012008
:100DA00000B220809DF803009DF8021040EA012067
:100DB00000B228809DF805009DF8041040EA01204B
:100DC00000B230803846BDE8FC812DE9FC41044684
:100DD0000D4616466B4606223B216820FFF768FF4A
:100DE0000746BFB99DF801009DF8001040EA0120B8
:100DF00000B220809DF803009DF8021040EA012017
:100E000000B228809DF805009DF8041040EA0120FA
:100E100000B230803846BDE8FC812DE9F04105463E
:100E20000E4617469846FFF773FD002141EA45013B
:100E3000C8B2FFF717FEFFF7A8FD20B1FFF786FD48
:100E40000120BDE8F0813046FFF70CFEFFF79DFD65
:100E500000240CE018F80400FFF704FEFFF795FDEE
:100E600018B1FFF773FD0120EBE7601CC4B2BC4270
:100E7000F0DBFFF76BFD0020E3E70000004075406A
:100E8000A4703D0AD74342400000C84208B5012182
:100E9000082002F0C1FD0121082002F0BDFD012162
:100EA000082002F0B9FD0121082002F0B5FD012162
:100EB000102002F0B1FD4FF48050ADF80000032087
:100EC0008DF8020010208DF803006946FE4802F0FC
:100ED000E7FA4FF48051FC4802F08FFB4FF40050CA
:100EE000ADF8000003208DF8020010208DF80300FB
:100EF0006946F54802F0D4FA4FF40051F24802F086
:100F00007CFB4FF48040ADF8000003208DF8020018
:100F100010208DF803006946EB4802F0C1FA4FF447
:100F20008041E94802F069FB4FF40040ADF8000051
:100F300003208DF8020010208DF803006946E24876
:100F400002F0AEFA4FF40041DF4802F056FB4020B9
:100F5000ADF8000003208DF8020010208DF803008A
:100F60006946DA4802F09CFA4021D84802F045FB75
:100F700008BD70B50446002518E04021D34802F0B2
:100F80003EFB04F0800028B14FF40041CE4802F04F
:100F900034FB04E04FF40041CB4802F030FB402129
:100FA000CA4802F02AFB6006040E6D1C082DE4D32B
:100FB00070BD10B504464FF48051C34802F01FFBCA
:100FC0004FF40051C04802F01AFB2046FFF7D1FF52
:100FD0004FF48051BC4802F010FB10BD10B5044620
:100FE0004FF48051B84802F00AFB4FF40051B64864
:100FF00002F003FB2046FFF7BCFF4FF48051B248DC
:1010000002F0FBFA10BD70B504460D4605F1B001C3
:10101000C8B2FFF7CEFF102101EB1410FFF7C9FF94
:1010200004F00F00FFF7C5FF70BD70B50021084642
:10103000FFF7E9FF002411E000250BE021462846D8
:10104000FFF7E1FFA24901EBC411485DFFF7C6FFBE
:10105000681CC5B2802DF1DB601CC4B2082CEBDB30
:1010600070BD00200CE0002106E00022984B03EB4D
:10107000C0135A544A1CD1B28029F6DB421CD0B2AC
:101080000828F0DB704710B5FFF7EBFFFFF7CDFF47
:1010900010BD10B5FFF7FAFE4FF480418A4802F008
:1010A000ACFA0A2002F0AFF84FF48041864802F013
:1010B000A6FA0A2002F0A7F84FF48041824802F015
:1010C0009CFA0A2002F09FF8AE20FFF772FF022080
:1010D000FFF76FFF1020FFF76CFF4020FFF769FF5D
:1010E0008120FFF766FFCF20FFF763FFA120FFF706
:1010F00060FFC820FFF75DFFA620FFF75AFFA8207A
:10110000FFF757FF3F20FFF754FF8120FFF751FF04
:10111000FF20FFF74EFFD320FFF74BFF0020FFF724
:1011200048FFD520FFF745FF8020FFF742FFD92079
:10113000FFF73FFFF120FFF73CFFDA20FFF739FF11
:101140001220FFF736FFDB20FFF733FF4020FFF7C9
:1011500030FF2020FFF72DFF0220FFF72AFF8D2010
:10116000FFF727FF1420FFF724FFA420FFF721FF3C
:10117000A620FFF71EFFAF20FFF71BFFFFF783FF3F
:1011800010BD10B504468120FFF713FF2046FFF77E
:1011900010FF10BD402900DB0021802800DB00206B
:1011A0004C4A5170107070472DE9FC5F06460C46A2
:1011B00091469A462046E11704EB5171C1F3C70BE3
:1011C000B04604EB0A01481EC11700EB5171C1F390
:1011D000C701019106EB0900401EC0B200905D46B8
:1011E00012E029464046FFF70EFF474607E0384920
:1011F00001EBC511C85DFFF7F1FE781CC7B200987E
:101200008742F4DD681CC5B201988542E9DDBDE87E
:10121000FC9F70B504460D4629462046FFF7BAFFED
:101220002C494878C11700EB5171CB1029494878F7
:10123000C11700EB5171C910A0EBC101CEB2244817
:1012400000EBC31023490978405C0121B140884379
:101250001F4901EBC3111F4A1278885470BD30B585
:1012600001461C4C6378DC1703EB5474E010194CF6
:101270006378DC1703EB5474E410A3EBC404E2B20C
:10128000134B03EBC013134C24781B5D01FA02F4DB
:1012900023430F4C04EBC0140E4D2D78635592B1CF
:1012A0000B4C431C04EBC3130A4C24781B5DC2F1A6
:1012B000080441FA04F42343054D441C05EBC4140F
:1012C000044D2D78635507E0000C014000100140EB
:1012D0008D0100201D000020FB4B1B78802B0DDBB7
:1012E0000023F94C237023465B7808336370234650
:1012F0005B78402B07DB0023637004E0F24B1B7824
:101300005B1CF14C237030BD70B50346EE4D6C781C
:10131000E51704EB5575EA10EB4D6C78E51704EB17
:101320005575ED10A4EBC505E9B203FA01F4E0B27E
:10133000C443E0B2084100FA01F4E0B2E34C04EB2C
:10134000C214E14D2D78645D0443E04D05EBC215F8
:10135000DD4E3678AC55E1B1C1F1080443FA04F032
:10136000C443E0B2C1F1080400FA04F4E0B2C1F1F0
:1013700008042041D54D541C05EBC414D24D2D78E2
:10138000645D0443D14E551C06EBC515CE4E367830
:10139000AC55CD4C2478802C0DDB0024CA4D2C702C
:1013A0002C46647808346C702C466478402C07DB3B
:1013B00000246C7004E0C44C2478641CC24D2C7072
:1013C00070BD2DE9F04304460D4616461F46E81948
:1013D000C7B23019C6B2A9460FE0A04607E0494699
:1013E0004046FFF716FF08F1010000F0FF08B04586
:1013F000F5DB09F1010000F0FF09B945EDDBBDE8BF
:10140000F0832DE9F04104460D4616461F463B4643
:10141000324629462046FFF7D4FF3B46324629464E
:101420002046FFF7C1FEBDE8F08130B50546002437
:101430000BE0A5F1200101EB4101A54A02EB4101BE
:10144000085DFFF70CFF601CC4B2062CF1DB30BD59
:1014500030B5054600240DE0A5F1200101EB410166
:101460009B4A02EB4101095DC943C8B2FFF7F7FE91
:10147000601CC4B2062CEFDB30BD70B505460E46CD
:10148000144631462846FFF785FE8F48007891497B
:1014900008708D48407848702046FFF7C6FF8D4A97
:1014A0005178107808230622FFF77EFE70BD2DE9E3
:1014B000F04106460F4614461D4639463046FFF7B2
:1014C00069FE81480078834908707F4840784870F9
:1014D0000A465178107808230622FFF772FF394632
:1014E0003046FFF757FE1CB12846FFF7B1FF02E078
:1014F0002846FFF79AFF774A51781078082306228A
:10150000FFF752FEBDE8F08130B50446002505E046
:1015100014F8010BFFF789FF681CC5B2207800287A
:10152000F6D1284630BD30B50446002505E014F854
:10153000010BFFF78DFF681CC5B220780028F6D19B
:10154000284630BD2DE9F04781468A4615461E469D
:1015500051464846FFF71EFE5B4800785D4908701B
:1015600059484078487025B13046FFF7DCFF044603
:1015700003E03046FFF7C8FF04464FF0080804EBCD
:1015800044004006070E534A5178107843463A46C5
:10159000FFF70AFE2046BDE8F0872DE9F041054639
:1015A000494800784B4908704748407848702846B9
:1015B000FFF7B9FF0446082704EB44004006060E77
:1015C000444A517810783B463246FFF7EDFD2046FD
:1015D000BDE8F0812DE9FC4105460E4617461C4644
:1015E00022463DA1684604F0BDFC804608EB480059
:1015F0004006020E082331462846FFF7E2FE6B46FE
:101600003A4631462846FFF79DFFBDE8FC812DE9AB
:10161000FC4105460E4617461C46224630A1684648
:1016200004F0A0FC804608EB48004006020E0823A8
:1016300031462846FFF7C5FE6B463A4631462846F6
:10164000FFF780FFBDE8FC812DE9F84305460E4613
:1016500017461C46224624A1684604F083FC8046B7
:1016600008EB48004006020E082331462846FFF7E3
:10167000A8FE6B463A4631462846FFF763FFBDE8B1
:10168000F8832DE9FE4F05460E4691461C4620463E
:1016900007F09AF907463A460B4615A1684604F04A
:1016A00061FC82460AEB4A004006020E08233146DE
:1016B0002846FFF786FE6B464A4631462846FFF726
:1016C00041FFBDE8FE8F00001D0000208D010020BD
:1016D0007E9000081F0000202530346400000000C8
:1016E000253032780000000025303364000000000F
:1016F0002530352E326600002DE9F84305460E46AA
:1017000017461C462246AFF22801684604F02AFC20
:10171000804608EB48004006020E08233146284662
:10172000FFF74FFE6B463A4631462846FFF70AFF61
:10173000BDE8F88330B50546002409E0A5F1200195
:10174000FE4A02EB0111085DFFF789FD601CC4B27F
:10175000082CF3DBFA4800780838F9490870084685
:10176000407808304870082409E0A5F12001F34AC8
:1017700002EB0111085DFFF772FD601CC4B2102C72
:10178000F3DB30BD30B5054600240BE0A5F12001A8
:10179000EA4A02EB0111095DC943C8B2FFF75FFDD8
:1017A000601CC4B2082CF1DBE54800780838E44935
:1017B0000870084640780830487008240DE0A5F10C
:1017C0002001DE4A02EB0111095D6FEA0111C1F34C
:1017D0000710FFF744FD601CC4B2102CEFDB30BDD6
:1017E00070B505460C46D6480078D6490870D448EE
:1017F000407848701CB12846FFF7C4FF02E0284635
:10180000FFF798FFCF4A517810780C230822FFF792
:10181000CBFC70BD70B504460D46002610E025B126
:1018200014F8010BFFF7AEFF03E014F8010BFFF70C
:1018300081FFC34840780838C1494870701CC6B25F
:1018400020780028EBD1304670BD70B504460D46B7
:10185000002600BF10E025B114F8010BFFF792FF3E
:1018600003E014F8010BFFF765FFB548407808382E
:10187000B3494870701CC6B2062EECDB70BD2DE972
:10188000F04106460F4614461D4639463046FFF7DE
:1018900081FCAB480078AB490870A9484078487093
:1018A0000A46517810780C230822FFF78AFD394642
:1018B0003046FFF76FFC1CB12846FFF763FF02E0DC
:1018C0002846FFF737FF9F4A517810780C230822EB
:1018D000FFF76AFCBDE8F0812DE9F04781468A46B2
:1018E00015461E4651464846FFF754FC944800787A
:1018F000944908709248407848702DB101213046D3
:10190000FFF788FF044604E000213046FFF782FF1E
:1019100004464FF00C08E006070E8A4A517810780A
:1019200043463A46FFF740FC2046BDE8F0872DE9E4
:10193000F0478046894614461D4649464046FFF713
:1019400029FC7F4800787F4908707D4840784870BE
:1019500024B101212846FFF778FF03E00021284643
:10196000FFF773FF0C273026764A517810783B46F4
:101970003246FFF719FCBDE8F0872DE9FC4105462A
:101980000E4617461C462246AFF2B421684604F0C4
:10199000E9FA00F0FF084FEAC860020E0C23314656
:1019A0002846FFF70EFD6B463A4631462846FFF7BC
:1019B00093FFBDE8FC812DE9FC4105460E46174624
:1019C0001C46224660A1684604F0CCFA00F0FF08ED
:1019D0004FEAC860020E0C2331462846FFF7F1FC9F
:1019E0006B463A4631462846FFF776FFBDE8FC8154
:1019F0002DE9FC4705460E4691461C46204606F05A
:101A0000E3FF07463A460B4651A1684604F0AAFA9E
:101A100000F0FF0A4FEACA60020E0C233146284646
:101A2000FFF7CFFC6B464A4631462846FFF754FF86
:101A3000BDE8FC872DE9FE4F05460E4691461C4643
:101A4000204606F0C1FF07463A460B4642A16846CB
:101A500004F088FA00F0FF0A4FEACA60020E0C2375
:101A600031462846FFF7ADFC6B464A4631462846CC
:101A7000FFF732FFBDE8FE8F2DE9FE4305460E4617
:101A800017461C46224636A1684604F06BFA00F061
:101A9000FF084FEAC860020E0C2331462846FFF7C4
:101AA00090FC6B463A4631462846FFF715FFBDE8E5
:101AB000FE832DE9F04180460F4615461E46394605
:101AC0004046FFF767FB00240BE02EB1295DC943B8
:101AD000C8B2FFF7C4FB02E0285DFFF7C0FB601C43
:101AE000C4B20C2CF1DB07F10800C1B24046FFF78D
:101AF00051FB0C240DE03EB1295D6FEA0111C1F3E9
:101B00000710FFF7ACFB02E0285DFFF7A8FB601CA5
:101B1000C4B2182CEFDBBDE8F0812DE9F04104469A
:101B20000D4616461F463B46324629462046FFF7DD
:101B3000C0FF0C231A462946204615E0A092000853
:101B40001D0000201F00002025303264000000002E
:101B50002530352E326656002530332E316656003C
:101B60002533642025000000FFF71EFBBDE8F0814F
:101B70002DE9F0470646884617461D46DDF82090B9
:101B800041463046FFF706FB00240EE004EB44011B
:101B900009EBC10204EB440106EB8101C8B23B46EC
:101BA0004146FFF786FF601CC4B2AC42EEDB05EB9A
:101BB00045008006020E0C2341463046FFF7F4FA3A
:101BC000BDE8F08730B50546002409E0A5F1200105
:101BD000FA4A02EB0111085DFFF741FB601CC4B239
:101BE000082CF3DBF64800780838F54908700846F9
:101BF000407808304870082409E0A5F12001EF4A38
:101C000002EB0111085DFFF72AFB601CC4B2102C27
:101C1000F3DB30BD30B5054600240BE0A5F1200113
:101C2000E64A02EB0111095DC943C8B2FFF717FB91
:101C3000601CC4B2082CF1DBE14800780838E049A8
:101C40000870084640780830487008240BE0A5F179
:101C50002001DA4A02EB0111095DC943C8B2FFF75E
:101C6000FEFA601CC4B2102CF1DB30BD70B5054625
:101C70000C46D3480078D3490870D1484078487062
:101C80001CB12846FFF7C6FF02E02846FFF79AFF7F
:101C9000CC4A5178107810230822FFF785FA70BDDE
:101CA00070B504460D46002610E025B114F8010B6E
:101CB000FFF7B0FF03E014F8010BFFF783FFC04804
:101CC00040780838BE494870701CC6B22078002899
:101CD000EBD1304670BD2DE9F04781468A46154666
:101CE0001E4651464846FFF755FAB5480078B549B3
:101CF0000870B348407848702DB101213046FFF795
:101D0000CFFF044604E000213046FFF7C9FF044638
:101D10004FF01008E006070EAA4A517810784346A3
:101D20003A46FFF741FA2046BDE8F0872DE9FC412D
:101D300005460E4617461C462246AFF264616846C9
:101D400004F010F900F0FF084FEAC860020E1023FB
:101D500031462846FFF735FB6B463A463146284662
:101D6000FFF7B9FFBDE8FC812DE9FE4F05460E46A1
:101D700091461C46204606F027FE07463A460B468B
:101D8000AFF23421684604F0EDF800F0FF0A4FEAA4
:101D9000CA60020E102331462846FFF712FB6B463D
:101DA0004A4631462846FFF796FFBDE8FE8F2DE9EB
:101DB000F04180460F4615461E4639464046FFF71D
:101DC000E9F900240BE02EB1295DC943C8B2FFF741
:101DD00046FA02E0285DFFF742FA601CC4B2102CFC
:101DE000F1DB07F10800C1B24046FFF7D3F9102438
:101DF0000BE02EB1295DC943C8B2FFF730FA02E00B
:101E0000285DFFF72CFA601CC4B2202CF1DBBDE882
:101E1000F0812DE9F04104460D4616461F463B462B
:101E2000324629462046FFF7C2FF10231A462946AC
:101E30002046FFF7B9F9BDE8F0812DE9F0470646E5
:101E4000884617461D46DDF8209041463046FFF78C
:101E5000A1F900240AE009EB441206EB0411C8B210
:101E60003B464146FFF7A3FF601CC4B2AC42F2DB25
:101E70002807020E102341463046FFF795F9BDE8CA
:101E8000F0870146802902DB4842C0B2704708460D
:101E9000FCE702780B7803700A70704730B50A4689
:101EA000CD1701EB5575C5F3C703CD1701EB55757C
:101EB000ED10A1EBC505ECB2434A02EBC312125C74
:101EC0000125A5402A43404D05EBC3152A5430BDDA
:101ED00070B504460D4629462046FFF7DFFF08236C
:101EE000012229462046FFF75FF970BD02468A426B
:101EF00001DC104670470846FCE702468A4201D1E1
:101F000000207047914201DD0120FAE74FF0FF30D9
:101F1000F7E72DE9F04304460D4616461F46E8193B
:101F2000C7B23019C6B2A9460FE0A04607E049463D
:101F30004046FFF7B3FF08F1010000F0FF08B0458D
:101F4000F5DB09F1010000F0FF09B945EDDBBDE863
:101F5000F0832DE9FF4F82B005460C469146A9EB70
:101F60000501C8B2FFF78DFF01900599091BC8B2A2
:101F7000FFF787FF00909DF800009DF8041088424D
:101F800005DD0126694601A8FFF783FF00E0002672
:101F900049462846FFF7B1FF834620460599FFF7DB
:101FA000ACFF07469DF80400C0F101019DF8000058
:101FB00088400FFA80F84FF0000A2CE0A098000843
:101FC0001D0000201F0000208D0100202146284612
:101FD000FFF764FFB8F1000F0CDB1EB105EB0B003F
:101FE000C5B201E0E019C4B29DF80400A8EB4000BE
:101FF0000FFA80F816B1E019C4B202E005EB0B004D
:10200000C5B29DF8000008EB40000FFA80F80AF115
:10201000010000F0FF0A9DF804008245D6DD06B0FD
:10202000BDE8F08F2DE9F05F07460C4615461E46C9
:10203000E91BC8B2FFF725FF401C00F0FF08311B69
:10204000C8B2FFF71EFF401C00F0FF0929463846C2
:10205000FFF74CFF824631462046FFF747FF834695
:1020600033462A4621463846FFF773FF4B46424621
:1020700059465046FFF798F8BDE8F09F2DE9F0412A
:1020800005460E4600240FE0671C05EB47077B78EA
:10209000671C15F8172005EB4407797815F814002C
:1020A000FFF757FF601CC4B2B442EDDBFEF7BDFF83
:1020B000BDE8F0812DE9F04104460D4616461F4665
:1020C000DDF818807F2C00DD7F243F2D00DD3F25CB
:1020D000B8F1000F05D03B46324629462046FFF7AF
:1020E00018FFA019C2B22B4629462046FFF731FF40
:1020F000E919CBB2A119CAB2A119C8B22946FFF792
:1021000028FFE819C3B2224629462046FFF721FFDF
:10211000E819C3B2A019C2B2E819C1B22046FFF74C
:1021200018FF781CC3B2701CC2B229462046FFF7C4
:102130003BF8BDE8F0812DE9F04706460F46904692
:10214000002445460520A0EB880944E07A19D1B265
:102150003219D0B2FFF7A2FE7A1BD1B23219D0B237
:10216000FFF79CFE7A19D1B2321BD0B2FFF796FE70
:102170007A1BD1B2321BD0B2FFF790FE3A19D1B21E
:102180007219D0B2FFF78AFE3A1BD1B27219D0B2DF
:10219000FFF784FE3A19D1B2721BD0B2FFF77EFE70
:1021A0003A1BD1B2721BD0B2FFF778FE601CC4B2EA
:1021B000B9F1000F06DA0C2000EBC40048440FFA16
:1021C00080F908E0681EC5B2E000A0EBC50014303D
:1021D00048440FFA80F9AC42B8DD4FF0010C0CEB2B
:1021E000480C0CF0FF034FF0010C0CEB480C0CF00A
:1021F000FF02A7EB080C0CF0FF01A6EB080C0CF09B
:10220000FF00FEF7D1FFBDE8F0872DE9FF4F83B057
:102210000F4690461E46DDF844904FF0000AFF201E
:102220000190701EC11700EB5171C910491C01F0DB
:10223000FF0B3046F11706EB5171C910A6EBC10137
:10224000C9B20291DDE901018840C0B20190109845
:1022500000284ED00298002831D0002414E007EB6B
:10226000C400C1B20398FEF795FF002508E051466F
:102270000AF1010A19F80100FFF746F8681CC5B217
:102280004545F4DB601CC4B2ABF10100A042E6DCC2
:1022900007EBC000C1B20398FEF77CFF00250BE0FE
:1022A00051460AF1010A19F80110019A41EA0200A7
:1022B000FFF72AF8681CC5B24545F1DB32E000247F
:1022C00014E007EBC400C1B20398FEF763FF0025DA
:1022D00008E051460AF1010A19F80100FFF714F865
:1022E000681CC5B24545F4DB601CC4B25C45E8DB44
:1022F00018E0002414E007EBC400C1B20398FEF715
:1023000049FF002508E051460AF1010A19F80100C9
:10231000FEF7A5FF681CC5B24545F4DB601CC4B2DE
:102320005C45E8DB3346424639460398FEF73CFFFE
:1023300007B0BDE8F08F2DE9F04F8DB0804689469B
:1023400017461D46DDF858A09AFBF7F00C909AFB53
:10235000F5FB1798002845D0002438E0189806F0BF
:1023600033FBCDE906010C9806F0BAFC019020463B
:1023700006F0B6FC0090019906F0C6FC4FF08841CB
:10238000029006F0AFFB039006F01EFBCDE90401BE
:10239000DDE9062305F006F800224FF08143CDE980
:1023A000080106F001F8CDE90A0105F069FF0646CB
:1023B000B6FBFBF6AE4200D92E46A9EB0602D1B21F
:1023C00008EB0402D0B2FFF769FD601CC4B2BC4246
:1023D000C4DBA9EB0500C1B22B463A464046FEF7E6
:1023E000E3FE44E0002438E0189806F0EDFACDE969
:1023F00006010C9806F074FC0190204606F070FC73
:102400000090019906F080FC4FF08841029006F0A0
:1024100069FB039006F0D8FACDE90401DDE9062353
:1024200004F0C0FF00224FF08143CDE9080105F020
:10243000BBFFCDE90A0105F023FF0646B6FBFBF61C
:10244000AE4200D92E4609EB0602D1B2A8EB040237
:10245000D0B2FFF723FD601CC4B2BC42C4DBA8EBC2
:102460000701C8B22B463A464946FEF79DFE0DB01D
:10247000BDE8F08F2DE9F04F95B081460E46174626
:102480001C46DDF878A09AFBF7F013909AFBF4F065
:102490001290002557E04FF07E50209906F000FD85
:1024A0004FF088410B9006F02FFC834606F08CFA23
:1024B000CDE90E011F9806F087FACDE906011398C1
:1024C00006F00EFC0290284606F00AFC01900299E4
:1024D00006F01AFC4FF08941039006F003FB834697
:1024E00006F072FACDE90401DDE9062304F05AFF93
:1024F000CDE90A014FF08940209906F005FC83469A
:1025000006F062FACDE90801DDE90A2305F04CFF87
:10251000CDE90C01DDE90E2305F09EFCCDE91001AB
:1025200005F0AEFE80461298B8FBF0F8A04500D941
:10253000A046A6EB0802D1B209EB0502D0B2FFF724
:10254000ADFC681CC5B2BD42A5DB301BC1B2234641
:102550003A464846FEF728FE15B0BDE8F08F000069
:1025600008B50121042001F057FA4FF40060ADF8DE
:10257000000003208DF8020010208DF8030069464A
:10258000FE4800F08DFF0121042001F045FA4FF4D0
:102590008050ADF8000003208DF8020010208DF867
:1025A00003006946F54800F07BFF0121102001F08F
:1025B00033FA4FF40070ADF8000003208DF80200EC
:1025C00010208DF803006946ED4800F069FF0121F5
:1025D000102001F021FA8020ADF8000048208DF88D
:1025E00003006946E64800F05BFF0121042001F08A
:1025F00013FA4FF48070ADF8000003208DF802004C
:1026000010208DF803006946DC4800F049FF0121E5
:10261000102001F001FA4FF48070ADF8000048205E
:102620008DF803006946D64800F03AFF4FF4006188
:10263000D24800F0E4FF4FF48051D04800F0DDFFB5
:102640004FF40071CE4800F0DAFF08BD70B50446C3
:10265000002520E004F0800028B14FF48071C748C5
:1026600000F0CBFF04E04FF48071C44800F0C7FFD6
:102670004FF40071C24800F0C0FF6006040E8021D4
:10268000BF4800F0A0FF04434FF40071BC4800F0C5
:10269000B6FF681CC5B2082DDCDB204670BDB9480A
:1026A0000078704710B5044644B94FF40061B34850
:1026B00000F0A5FF0020B349087007E04FF4006167
:1026C000AE4800F09AFF0120AE49087010BD70B509
:1026D00004464FF48051A94800F091FF2046FFF7CF
:1026E000B5FF0020FFF7B2FF05464FF48051A34825
:1026F00000F083FF284670BD70B504460D46FFF715
:10270000CEFF06460020FFF7CDFF4FF480519B48D7
:1027100000F075FF44F02000FFF798FF2846FFF710
:1027200095FF4FF48051954800F067FF3046FFF762
:10273000B9FF70BD2DE9F04105460E461746FFF77B
:10274000AEFF80460020FFF7ADFF4FF480518B486D
:1027500000F055FF45F02000FFF778FF002404E06B
:10276000305DFFF773FF601CC4B2BC42F8DB4FF46E
:102770008051824800F041FF4046FFF793FFBDE8DB
:10278000F0812DE9F04104460E4617464FF4805182
:102790007A4800F034FF2046FFF758FF002505E097
:1027A0000020FFF753FF7055681CC5B2BD42F7DB30
:1027B0004FF48051714800F020FFBDE8F08110B562
:1027C0004FF480516D4800F01AFFE120FFF73EFF03
:1027D0004FF48051694800F010FF10BD10B54FF460
:1027E0008051664800F00BFFE220FFF72FFF4FF407
:1027F0008051624800F001FF10BD10B54FF48051C8
:102800005E4800F0FCFEFF20FFF720FF4FF48051F0
:102810005A4800F0F2FE10BD10B500240020FFF76A
:1028200041FF4FF48051554800F0E9FE0720FFF7C3
:102830004EFF044621460720FFF75EFF4FF480510C
:102840004E4800F0DAFE10BD10B50720FFF73FFF3D
:1028500000F0700010BD70B504460D46052D01DD79
:10286000052000E028460646324621461020FFF7A4
:1028700061FF70BD2DE9F04104460E461546052D59
:1028800001DD052000E028460746052C01DD052076
:1028900000E02046804608F10A01C8B23A463146B7
:1028A000FFF748FFBDE8F0812DE9F04105460E46EF
:1028B000202E01DD202000E030460746FFF77FFF95
:1028C0004FF480512D4800F09AFEA020FFF7BEFE85
:1028D000002404E0285DFFF7B9FE601CC4B2BC42CE
:1028E000F8DB4FF48051254800F087FEBDE8F08109
:1028F00010B5FFF735FE0020FFF7D4FE0521224872
:10290000FFF7A9FF052220490020FFF7B3FF0021B0
:102910000120FFF7F1FE01210220FFF7EDFE00216B
:102920000420FFF7E9FE02210520FFF7E5FE0F2155
:102930000620FFF7E1FE14211120FFF7DDFE0E2136
:102940000020FFF7D9FE10BD10B5FFF709FE0020EB
:10295000FFF7A8FE05210C48FFF77DFF05220A4975
:102960000020FFF787FF01210846FFF7C5FE012180
:102970000220FFF7C1FE1A21042007E000080140F1
:10298000001001402600002021000020FFF7B4FEC7
:1029900002210520FFF7B0FE0F210620FFF7ACFE55
:1029A00014211120FFF7A8FE0E210020FFF7A4FE3E
:1029B00010BD70B50446202C01DD202000E020462B
:1029C00005460020FFF76EFE29461120FFF794FE12
:1029D00070BD10B504460020FFF764FE21460520B7
:1029E000FFF78AFE10BD10B504460020FFF75AFE1F
:1029F00044F008010620FFF77FFE10BD10B500204F
:102A0000FFF765FE044624F0010421460020FFF78D
:102A100073FE10BD10B50020FFF759FE044644F0C8
:102A2000010421460020FFF767FE10BD2DE9F041AB
:102A300005460E460024202E01DD202000E0304611
:102A400007460020FFF72EFEFFF7B9FE4FF4805136
:102A5000EC4800F0D4FDA020FFF7F8FD002404E0CE
:102A6000285DFFF7F3FD601CC4B2BC42F8DB4FF4F5
:102A70008051E44800F0C1FD0120FFF713FEC8209B
:102A800000F09DFBBDE8F0812DE9F04105460E46C2
:102A90000024202E01DD202000E0304607460020E3
:102AA000FFF700FEFFF78BFE4FF48051D54800F092
:102AB000A6FDA020FFF7CAFD002404E0285DFFF773
:102AC000C5FD601CC4B2BC42F8DB4FF48051CD4858
:102AD00000F093FD0120FFF7E5FDC82000F06FFB3B
:102AE000BDE8F0812DE9F04105460E46202E01DDBE
:102AF000202000E0304607460020FFF7D3FD4FF4CA
:102B00008051C04800F07BFD6120FFF79FFD00244D
:102B100005E00020FFF79AFD2855601CC4B2BC42B6
:102B2000F7DB4FF48051B74800F067FDFFF756FE22
:102B3000142000F044FBBDE8F0812DE9F04105468A
:102B40000E46202E01DD202000E030460746002002
:102B5000FFF7A8FD4FF48051AA4800F050FD612016
:102B6000FFF774FD002405E00020FFF76FFD2855F6
:102B7000601CC4B2BC42F7DB4FF48051A14800F0A6
:102B80003CFDFFF72BFE142000F019FBBDE8F0819F
:102B900010B50020FFF79BFD2E2801D0012400E096
:102BA0000024204610BD10B50446FFF7A1FE2E21DB
:102BB0000020FFF7A1FD05212046FFF74CFE05226E
:102BC00021460020FFF756FE0D20FFF7F2FE4D20B4
:102BD000FFF7FFFE0320FFF706FFFFF70FFF10BD13
:102BE00010B500244FF48071874800F0ECFC78B9F0
:102BF000FFF72AFE102808D0202802D0402806D14E
:102C000001E0012403E0022401E0032400BF00E00E
:102C10000024204610BD10B50120FFF743FD10BD74
:102C200010B586B000200290039004900590052214
:102C300002A91020FFF7A5FD052269460A20FFF72B
:102C4000A0FD002406E01DF8041002AA601D115426
:102C5000601CC4B2052CF6DB0120FFF738FD8DF8AF
:102C600012000220FFF733FD8DF813000420FFF758
:102C70002EFD8DF814000520FFF729FD8DF81500B5
:102C80001120FFF724FD8DF816000020FFF71FFD2F
:102C90008DF817005DA3002211461046FEF752FC86
:102CA000FFF776FF30B95BA3002211462A20FEF71A
:102CB00049FC05E059A3002211462A20FEF742FCF8
:102CC00058A3002208211046FEF73CFC9DF808306E
:102CD000002208212A20FEF79AFC9DF809300022E4
:102CE00008213C20FEF793FC9DF80A3000220821C1
:102CF0004E20FEF78CFC9DF80B300022082160204E
:102D0000FEF785FC9DF80C30002208217220FEF7AA
:102D10007EFC46A3002210211046FEF713FC9DF80E
:102D20000D30002210212A20FEF771FC9DF80E3094
:102D3000002210213C20FEF76AFC9DF80F30002293
:102D400010214E20FEF763FC9DF810300022102168
:102D50006020FEF75CFC9DF81130002210217220EB
:102D6000FEF755FC33A3002218211046FEF7EAFBBC
:102D70009DF81230002218212420FEF748FC2FA3D2
:102D8000002218213620FEF7DDFB9DF813300022CB
:102D900018217220FEF73BFC2BA3002220211046B5
:102DA000FEF7D0FB9DF81430002220214220FEF7D0
:102DB0002EFC28A3002228211046FEF7C3FB9DF815
:102DC0001530002228212420FEF721FC23A3002215
:102DD00028213620FEF7B6FB9DF816300022282168
:102DE0006C20FEF714FC20A3002230211046FEF7D1
:102DF000A9FB9DF81730002230212A20FEF707FC9E
:102E000006B010BD00080140001001405374617409
:102E100075733A004E6F726D616C00004572726F8F
:102E20007221000054585F6164643A0052585F6137
:102E300064643A00454E5F41413A0000454E5F529E
:102E400058414444523A000053455455505F52454E
:102E500054523A0052465F43483A000052585F507D
:102E6000575F50303A000000434F4E4649473A0002
:102E70002DE9F04F91B0064689461446307809286E
:102E800035D2DFE800F034050A10161B20262D008D
:102E90002B2020706070A07029E02B2020706070C3
:102EA0002D20A07023E02B2020702D206070A070BA
:102EB00000BF2B2020706070A07018E02D202070C3
:102EC0006070A07000BF2D2020702B206070A0705B
:102ED0000DE02B2020702D2060702B20A07006E0CC
:102EE0002D2020702B2060702D20A07000BF00BF0F
:102EF000032510E0681C305C0CA941F82500681D12
:102F0000305C08A941F8250005F10900305C04A9EE
:102F100041F825006D1E002DECDA0C9805F0F4F94F
:102F20000746324A324B05F03FFACDE902016422EE
:102F30000F9951430E9A02EB820201EB42010D9A66
:102F4000881805F0E1F9CDE90001DDE9022304F07C
:102F500083FF824604F04EFFC9F80000089805F090
:102F6000D3F98246214A224B05F01EFA07468846CD
:102F700064220B9951430A9A02EB820201EB42014F
:102F8000099A881805F0C0F93A464346CDE9000190
:102F900004F062FFCDE9020104F02CFFC9F804003F
:102FA000049805F0B1F98246104A114B05F0FCF97E
:102FB00007468846642207995143069A02EB82022B
:102FC00001EB4201059A881805F09EF93A464346FE
:102FD000CDE9000104F040FFCDE9020104F00AFF51
:102FE000C9F8080011B0BDE8F08F00009A999999CE
:102FF0009999B93F00B589B00121022000F019FD6F
:103000000121042000F008FD0121082000F004FD4A
:1030100018208DF82300C020ADF8200003208DF883
:10302000220008A92D4800F03BFA18208DF81F0057
:103030000120ADF81C0003208DF81E0007A92848C8
:1030400000F02EFA274801F021FC0020ADF8160010
:10305000ADF8120044F61F60ADF814004720ADF83B
:10306000100000208DF8180004A91E4801F07EF819
:10307000684601F0B0FB6020ADF800000020ADF81C
:1030800008000120ADF802000020ADF806006946F6
:10309000144801F0A8F86946124801F0E6F86946BC
:1030A000104801F02FF901210E4801F0BBFB09B0D7
:1030B00000BD10B5044621460A4801F04BFE10BD84
:1030C00010B504462146074801F046FE10BD10B574
:1030D00004462146034801F041FE10BD00080140AE
:1030E000000C01400004004010B5FFF783FF10BD45
:1030F0002DE9F04104462249204605F0F3FC8046C4
:10310000204905F001FE07461F4905F089FC0646E7
:1031100005F0C6FD85B22846FFF7CBFFBDE8F0817C
:103120002DE9F04104461649204605F0DBFC8046B7
:10313000144905F0E9FD0746134905F071FC064600
:1031400005F0AEFD85B22846FFF7BAFFBDE8F08175
:103150002DE9F04104460A49204605F0C3FC8046AB
:10316000084905F0D1FD0746074905F059FC064618
:1031700005F096FD85B22846FFF7A9FFBDE8F0816E
:10318000000034430000FA440000FA4310B56FF029
:10319000040000F0F8FE2E4800682E49B0FBF1F064
:1031A0002D4908700846007800EB4001C1EBC010C3
:1031B0004FF6FF7101EAC0002849088010BD0146A2
:1031C000254A12784A434FF0E0235A6100229A615F
:1031D0001A46126942F001021A6100BF4FF0E02264
:1031E000106900F001021AB100F48032002AF5D013
:1031F0004FF0E022126922F001024FF0E0231A6141
:1032000000229A6170470146144A12884A434FF0DF
:10321000E0235A6100229A611A46126942F00102C3
:103220001A6100BF4FF0E022106900F001021AB1EC
:1032300000F48032002AF5D04FF0E022126922F02B
:1032400001024FF0E0231A6100229A6170470000EA
:103250000800002000127A00280000202A00002028
:10326000014600BF704700BF494A128802F0400281
:10327000002AF9D0C2B2464B1B1D1A80704710B508
:1032800086B00446012144F2040000F0C5FB4FF46F
:103290000070ADF8140003208DF8160018208DF88A
:1032A000170005A93B4800F0FBF84FF48060ADF82B
:1032B000140004208DF8170005A9364800F0F0F836
:1032C00025208DF8000003208DF801008DF8020004
:1032D00001208DF80300684600F00BFE01940020E9
:1032E000ADF80800ADF80A00ADF80C00ADF810001C
:1032F0000C20ADF80E0001A9254800F034FC012295
:1033000040F22551224800F0C6FC0121204800F07F
:10331000B6FC06B010BD10B540F225511C4800F0B7
:103320009FFD10B31A4800F01BFDC4B21A48008874
:1033300000F40040C8B91848008800F4804060B12B
:103340000A2C03D000201449088020E0124800888D
:1033500040F400401049088019E00D2C06D10E48B9
:10336000008840F480400C49088010E00A4800883A
:10337000C0F30D0009490C5407480088401C064959
:10338000088008460088C72801DD0020088010BD9D
:103390000038014000080140300000208D05002069
:1033A0000948804709480047FEE7FEE7FEE7FEE7D9
:1033B000FEE7FEE7FEE7FEE7FEE7FEE70448054915
:1033C000054A064B704700008706000831010008D7
:1033D000B8060020B80C0020B8080020B80800206B
:1033E00010B50446CC48844208D10121042000F0E5
:1033F0002DFB0021042000F029FB46E0C748844251
:1034000008D10121082000F021FB0021082000F054
:103410001DFB3AE0C248844208D10121102000F08F
:1034200015FB0021102000F011FB2EE0BD48844266
:1034300008D10121202000F009FB0021202000F00C
:1034400005FB22E0B848844208D10121402000F069
:10345000FDFA0021402000F0F9FA16E0B34884425A
:1034600008D10121802000F0F1FA0021802000F035
:10347000EDFA0AE0AE48844207D10121801500F040
:10348000E5FA0021A01500F0E1FA10BD10B5012108
:10349000084600F0DBFA0021012000F0D7FA10BD49
:1034A0002DE9F041024600250026002000230024DB
:1034B000002791F803C00CF00F0591F803C00CF041
:1034C000100CBCF1000F03D091F802C04CEA0505C6
:1034D00091F800C0BCF1000F31D0146800202BE03F
:1034E0004FF0010C0CFA00F3B1F800C00CEA03062F
:1034F0009E4220D183004FF00F0C0CFA03F7BC431F
:1035000005FA03FC4CEA040491F803C0BCF1280F4F
:1035100006D14FF0010C0CFA00FCC2F814C00AE00E
:1035200091F803C0BCF1480F05D14FF0010C0CFA23
:1035300000FCC2F810C0401C0828D1D31460B1F8B8
:1035400000C0BCF1FF0F34DD546800202EE000F114
:10355000080C4FF0010808FA0CF3B1F800C00CEAAF
:1035600003069E4221D183004FF00F0C0CFA03F7A3
:10357000BC4305FA03FC4CEA040491F803C0BCF117
:10358000280F05D100F1080C08FA0CF8C2F81480D5
:1035900091F803C0BCF1480F07D100F1080C4FF0BF
:1035A000010808FA0CF8C2F81080401C0828CED395
:1035B0005460BDE8F0814FF6FF71018002218170F7
:1035C0000421C17070470246002093680B400BB184
:1035D000012000E0002070470146886880B27047F3
:1035E00002460020D3680B400BB1012000E0002010
:1035F00070470146C86880B27047016170474161F9
:1036000070470AB1016100E041617047C1607047D5
:103610004FF480320A4382618161826182698269EA
:10362000704702460020434B18684FF680731840DD
:1036300040EA021008433F4B186070473E49C8619A
:103640007047F0B50A46002300240021002500F051
:103650000046B6F1004F02D1364EF16901E0354E19
:103660007168C0F3034583B200F44016B6F5401FFD
:1036700008D121F070612F4E766826F070662D4FCC
:103680007E6012E000F48016B6F5801F06D1032696
:1036900006FA05F4A14341F0706106E0460D3601DB
:1036A00003FA06F6B14341F0706122B1460D3601CE
:1036B00003FA06F6314300F00046B6F1004F02D19E
:1036C0001C4EF16101E01B4E7160F0BD30B500226F
:1036D0008B071C0F0F2303FA04F2164B08338C10D0
:1036E00053F824309343134C08348D1044F825309C
:1036F00023468C1053F824308C07240F00FA04F46E
:1037000023430C4C08348D1044F8253030BD0A4951
:10371000DC3108607047000000080140000C0140E7
:10372000001001400014014000180140001C01403D
:10373000002001400000014000002042DF480068F6
:1037400040F00100DD49086008464068DC49084057
:10375000DA49486008460068DA490840D7490860F5
:103760000846006820F4802008600846406820F47D
:10377000FE0048604FF41F0088607047CF49096819
:1037800021F48031CD4A11601146096821F480216D
:103790001160B0F5803F03D0B0F5802F0ED106E068
:1037A000C649096841F48031C44A116007E0C34941
:1037B000096841F4A021C14A116000E000BF00BFC8
:1037C000704710B501460022002300204A11012A4B
:1037D00002D1BA4C236806E0022A02D1B74C236A10
:1037E00001E0B64C636A01F01F02012494401C40C2
:1037F0000CB1012000E0002010BD38B50020009081
:103800000024002500BF3120FFF7DBFF05460098AC
:10381000401C00900098B0F5A06F01D0002DF2D0B0
:103820003120FFF7CEFF08B1012400E0002420463C
:1038300038BD01460020A14A106820F0F80040EA97
:10384000C10010607047A049086070470246002020
:103850009A4B586820F47C1042EA01031843974BB6
:103860005860704798490866704701460020934A9F
:10387000506820F003000843506070478F4840684C
:1038800000F00C007047014600208C4A506820F080
:10389000F00008435060704701460020874A506896
:1038A00020F4E06008435060704701460020834ADE
:1038B000506820F4605040EAC1005060704729B160
:1038C0007E4A527A02437D4B5A7204E07B4A527A16
:1038D00082437A4B5A7270477B49D83108607047EF
:1038E00001460020754A506820F44040084350606B
:1038F00070470021714A20321170704A82F82010FE
:10390000012802D004280AD104E001216B4A2032A8
:10391000117005E00521694A2032117000E000BFF6
:1039200000BF70476949086070476449096A0143EC
:10393000624A11627047654944390860704730B582
:1039400000210022002400235C4D6D6805F00C016D
:1039500021B1042905D0082923D105E05C4D05607B
:1039600022E05B4D05601FE0544D6D6805F4701258
:10397000524D6D6805F48034022505EB92421CB966
:10398000544D554305600BE04C4D6D6805F4003512
:103990001DB1504D5543056002E04D4D5543056046
:1039A00002E04B4D056000BF00BF444D6D6805F05F
:1039B000F0010909484D6B5C0568DD4045603F4DED
:1039C0006D6805F4E061090A434D6B5C4568DD40B4
:1039D00085603A4D6D6805F46051C90A3E4D6B5CD7
:1039E0004568DD40C560354D6D6805F44041890B83
:1039F0003A4D6B5CC568B5FBF3F5056130BD29B187
:103A00002E4A526902432D4B5A6104E02B4A5269F7
:103A100082432A4B5A61704729B1284A926902436E
:103A2000264B9A6104E0254A92698243234B9A61AE
:103A3000704729B1214AD2690243204BDA6104E080
:103A40001E4AD26982431D4BDA61704729B11B4A75
:103A5000D2680243194BDA6004E0184AD268824304
:103A6000164BDA60704729B1144A12690243134BAE
:103A70001A6104E0114A12698243104B1A617047BF
:103A800012494039086070470F49C86470470B49B4
:103A9000C87170470948406A40F080700749486221
:103AA000704701460020054A92680A400AB1012089
:103AB00000E0002070470149887270470010024002
:103AC0000000FFF8FFFFF6FE000042428004424281
:103AD00000127A0000093D00320000204200002060
:103AE00010B50446FB48844209D101218803FFF741
:103AF000ADFF00214FF48040FFF7A8FF32E0F64809
:103B0000844209D101214804FFF7ADFF00214FF4A1
:103B10000030FFF7A8FF25E0F048844209D10121D9
:103B20008804FFF7A0FF00214FF48020FFF79BFFE0
:103B300018E0EB48844209D10121C804FFF793FF44
:103B400000214FF40020FFF78EFF0BE0E548844290
:103B500008D101210805FFF786FF00214FF48010EE
:103B6000FFF781FF10BD2DE9F04786B005460E46F0
:103B70000024A24600BFA1460027B08900B100BFC3
:103B80002F462C8A4CF6FF700440F08804432C82A8
:103B9000AC894EF6F3100440B0883189084371892E
:103BA00008430443AC81AC8A4FF6FF400440B0891F
:103BB0000443AC8201A8FFF7C2FEC648874202D187
:103BC000DDF810A001E0DDF80CA0A88900F40040A9
:103BD00040B10AEBCA0000EB0A1031684900B0FBA3
:103BE000F1F807E00AEBCA0000EB0A10316889001F
:103BF000B0FBF1F86420B8FBF0F004012009642167
:103C000001FB1089A88900F4004040B1322000EB8C
:103C1000C900B0FBF1F000F00700044308E03220D7
:103C200000EB09106421B0FBF1F000F00F00044339
:103C30002C8106B0BDE8F0874FF4165101600021D9
:103C40008180C18001810C214181002181817047E7
:103C500010B502460020108A4FF2FF0318400B886F
:103C60004C8823438C882343CC88234318431082F9
:103C700010BD0021018041808180C180704721B149
:103C8000828942F40052828104E082894DF6FF73FA
:103C90001A4082817047F0B50346002400260025B3
:103CA000002040F66A17B94200D100BF1846C1F3A0
:103CB000421401F01F06012707FA06F5012C01D175
:103CC0000C3004E0022C01D1103000E014301AB1A5
:103CD00007682F43076002E00768AF430760F0BD45
:103CE0001AB1838A0B43838202E0838A8B438382E7
:103CF0007047028A4FF6F0731A400282028A0A4322
:103D00000282704782894FF2FF731A408281828952
:103D10000A438281704721B1828942F00202828186
:103D200004E082894FF6FD731A4082817047028A4F
:103D30004FF6DF731A400282028A0A4302827047FA
:103D400021B1028A42F48042028204E0028A4BF6E8
:103D5000FF731A4002827047C1F3080282807047E5
:103D600001468888C0F308007047818941F001014D
:103D700081817047028BD2B20283028B42EA012218
:103D800002837047028B02F47F420283028B0A4354
:103D90000283704721B1828A42F02002828204E0CD
:103DA000828A4FF6DF731A408282704721B1828A7D
:103DB00042F01002828204E0828A4FF6EF731A40CA
:103DC0008282704721B1828A42F00802828204E036
:103DD000828A4FF6F7731A408282704721B1828936
:103DE00042F40042828103E08289C2F30E028281A2
:103DF000704721B1828A42F40062828204E0828AA2
:103E00004FF2FF731A4082827047828A4FF6FB732B
:103E10001A408282828A0A438282704721B1828A52
:103E200042F00202828204E0828A4FF6FD731A4059
:103E30008282704702460020B1F5007F00D100BFAA
:103E400013880B400BB1012000E00020704701F403
:103E50000072B2F5007F00D100BFCA4302807047F4
:103E600070B50246002400230025002040F66A16A3
:103E7000B14200D100BFC1F3421501F01F0301267A
:103E800006FA03F3012D02D19689334006E0022D94
:103E900002D1168A334001E0968A33400C12012683
:103EA00006FA04F41688344013B10CB1012000E086
:103EB000002070BD10B50022002340F66A14A14214
:103EC00000D100BF0A1201249440A3B2DC43048055
:103ED00010BD000000380140004400400048004090
:103EE000004C00400050004031490143314A11600C
:103EF000704770B5002100230F22C47804B32D4C05
:103F0000246804F4E064C4F5E064210AC1F1040308
:103F1000CA40447804FA03F184781440214309012B
:103F2000254C0678A155047804F01F050124AC4007
:103F300005786D11AD0005F1E025C5F8004109E0F7
:103F4000047804F01F050124AC401C4D067876115E
:103F500045F8264070BD1A4A0A400243154B1B1F04
:103F60001A60704739B1134A121D12680243114B8F
:103F70001B1D1A6006E00F4A121D126882430D4B8A
:103F80001B1D1A607047042808D14FF0E021096911
:103F900041F004014FF0E022116107E04FF0E02111
:103FA000096921F004014FF0E0221161704700001F
:103FB0000000FA050CED00E000E400E080E100E024
:103FC00080FFFF1F10B50446FE48844208D101213E
:103FD000C014FFF73BFD0021E014FFF737FDC4E0FC
:103FE000B4F1804F08D101210846FFF73CFD0021C4
:103FF0000120FFF738FDB8E0F348844208D10121E1
:104000000220FFF730FD00210220FFF72CFDACE07D
:10401000EE48844208D101210420FFF724FD00214D
:104020000420FFF720FDA0E0E948844208D10121E7
:104030000820FFF718FD00210820FFF714FD94E089
:10404000E448844208D101211020FFF70CFD002133
:104050001020FFF708FD88E0DF48844208D10121E5
:104060002020FFF700FD00212020FFF7FCFC7CE072
:10407000DA48844208D101214014FFF7E7FC00210F
:104080006014FFF7E3FC70E0D548844209D10121B8
:10409000C804FFF7DBFC00214FF40020FFF7D6FC3B
:1040A00063E0D048844209D101210805FFF7CEFC26
:1040B00000214FF48010FFF7C9FC56E0CA48844243
:1040C00009D101214805FFF7C1FC00214FF4001080
:1040D000FFF7BCFC49E0C548844208D101214020DB
:1040E000FFF7C1FC00214020FFF7BDFC3DE0C048C8
:1040F000844208D101218020FFF7B5FC00218020F7
:10410000FFF7B1FC31E0BB48844208D101218015A2
:10411000FFF7A9FC0021A015FFF7A5FC25E0B64894
:10412000844209D101210804FFF790FC00214FF4DB
:104130008030FFF78BFC18E0B048844209D10121A0
:104140004804FFF783FC00214FF40030FFF77EFCAA
:104150000BE0AB48844208D101218804FFF776FCCC
:1041600000214FF48020FFF771FC10BD002202886F
:10417000944B98420ED0994B98420BD0B0F1804F9F
:1041800008D0914B984205D0904B984202D0904B6A
:10419000984204D14FF68F731A404B881A438D4BC7
:1041A000984207D08C4B984204D04FF6FF431A40F8
:1041B000CB881A4302808B8883850B880385814BCB
:1041C00098420BD0854B984208D08B4B984205D033
:1041D0008A4B984202D08A4B984201D10B7A0386CF
:1041E00001238382704770B5002400220023058CD0
:1041F0004FF6FE7635400584028C8388048B4FF69B
:104200008F752C40B51E2C400D882C43751E2A40FE
:104210000D892A434D882A436A4DA8420BD06F4D21
:10422000A84208D0744DA84205D0744DA84202D0CF
:10423000734DA84213D14FF6F7752A404D892A4392
:104240004FF6FB752A408D882A434FF6FF652B40B9
:104250004FF6FF552B408D892B43CD892B4383800F
:104260000483CD888586028470BD70B50024002249
:104270000023058C4FF6EF7635400584028C838849
:10428000048B48F6FF752C404FF6FF452C400D88F7
:104290004FF6FF7606EA05252C434FF6DF752A40D8
:1042A0000D8906EA05152A434D8806EA05152A43B5
:1042B000444DA84202D0494DA8421DD14FF67F750A
:1042C0002A404D894FF6FF7606EA05152A434FF638
:1042D000BF752A408D8806EA05152A434FF6FF353B
:1042E0002B404FF2FF752B408D8906EA85052B4345
:1042F000CD8906EA85052B4383800483CD88058715
:10430000028470BD70B5002400220023058C4FF696
:10431000FF6635400584028C8388848B4FF68F7549
:104320002C404FF6FC752C400D882C434FF6FF5562
:104330002A400D894FF6FF7606EA05252A434D8867
:1043400006EA05252A431F4DA84202D0234DA84264
:104350001DD14FF2FF752A404D894FF6FF7606EAD0
:1043600005252A434FF6FF352A408D8806EA0525A4
:104370002A434EF6FF752B404DF6FF752B408D8975
:1043800006EA05152B43CD8906EA05152B438380E4
:104390008483CD888587028470BD70B50022002398
:1043A0000024058C4EF6FF7635400584038C848806
:1043B000828B48F6FF752A404FF6FF452A400D884C
:1043C00020E00000002C01400004004000080040F4
:1043D000000C004000100040001400400034014078
:1043E000004C0140005001400054014000180040C2
:1043F000001C0040002000400040014000440140FB
:10440000004801404FF6FF7606EA05252A434DF69F
:10441000FF752B400D8906EA05352B434D8806EACA
:1044200005352B43FA4DA84202D0FA4DA84208D1D7
:104430004BF6FF752C408D894FF6FF7606EA851501
:104440002C4384808283CD88A0F84050038470BDC3
:10445000828B4FF2FF331A408283828B4FF6FF73B9
:1044600003EA01231A4382837047F0B50C461546D0
:10447000002200210026078C4EF6FF7C07EA0C077D
:104480000784828B018C4FF6FF7707EA043640F6EB
:10449000FF473A404FF6FF7707EA05273A434FF6C2
:1044A000FF7707EA03373A43D94FB8420ED0D94FC6
:1044B000B8420BD0B0F1804F08D0D74FB84205D0EA
:1044C000D64FB84202D0D64FB84206D14DF6FF774C
:1044D000394046F48057394305E047F6FF573940E5
:1044E00044F48057394382830184F0BD828B4FF6B8
:1044F000F3731A408283828B0A4382837047F0B53C
:104500000C461546002200210026078C4FF6FF6C52
:1045100007EA0C070784828B018C4FF6FF7707EAC6
:1045200004264FF60C773A404FF6FF7707EA031759
:104530002F433A43B64FB8420ED0B64FB8420BD0D5
:10454000B0F1804F08D0B44FB84205D0B34FB84255
:1045500002D0B34FB84206D14FF6FF57394046F468
:104560008077394305E04FF2FF57394044F48077B4
:10457000394382830184F0BD028B4FF2FF331A402E
:104580000283028B4FF6FF7303EA01231A4302836F
:104590007047F0B50C461546002200210026078C16
:1045A0004FF6EF7C07EA0C070784028B018C4FF66D
:1045B000FF7707EA041640F6FF473A404FF6FF77C9
:1045C00007EA03373A434FF6FF7707EA05273A43EE
:1045D0008F4FB8420ED08F4FB8420BD0B0F1804F02
:1045E00008D08D4FB84205D08C4FB84202D08C4FC6
:1045F000B84206D14FF6DF77394046F0100739430D
:1046000005E04FF65F77394044F0100739430283E5
:104610000184F0BD028B4FF6F3731A400283028BC4
:104620000A4302837047F0B50C461546002200216C
:10463000068C4FF6FE773E400684028B018C4FF6C7
:104640000C7632407E1C06EA03162E433243704E2F
:10465000B0420ED06F4EB0420BD0B0F1804F08D0B8
:104660006D4EB04205D06D4EB04202D06C4EB0429D
:1046700006D14FF6FD76314044F00106314305E0A6
:104680004FF6F576314044F0010631430283018450
:10469000F0BD70B505460C465D4885420ED05D48BC
:1046A00085420BD0B5F1804F08D05B48854205D0DC
:1046B0005A48854202D05A48854200D100E000BFE6
:1046C000208850B92389A28861882846FFF7ABFF6C
:1046D000E1882846FFF79EFF25E0208804280AD1BC
:1046E0002389A28861882846FFF753FFE18828467E
:1046F000FFF742FF17E0208808280AD12389A28803
:1047000061882846FFF7FBFEE1882846FFF7EEFEAA
:1047100009E02389A28861882846FFF7A6FEE18880
:104720002846FFF795FE70BD2DE9F04105460C4681
:1047300000260127608808B9022600E00026A0882C
:10474000012801D1022700E001272088A0B9238990
:10475000A28861882846FFF766FFE1882846FFF7B0
:1047600059FF23893A4631462846FFF712FFE18870
:104770002846FFF701FF13E02389A28861882846B5
:10478000FFF707FFE1882846FFF7F6FE23893A4640
:1047900031462846FFF747FFE1882846FFF73AFFF2
:1047A000BDE8F0810A884B881A438B881A43CB886E
:1047B0001A430B891A434B891A438B891A43A0F871
:1047C000442070474FF6FF71818000210180C18035
:1047D0004180017270470021018041808180C18049
:1047E000018141818181C181704700210180418027
:1047F000012181800021C180018170470021018059
:1048000041808180C18001814181818170470000A8
:10481000002C01400034014000040040000800402A
:10482000000C004021B1028842F00102028004E045
:1048300002884FF6FE731A400280704731B1B0F81B
:10484000442042F40042A0F8442005E0B0F844209F
:10485000C2F30E02A0F8442070471AB183890B43BB
:10486000838102E083898B43838170478182704713
:1048700041EA0203A0F8483070471AB183890B431C
:10488000838102E083898B438381704701894FF6DE
:10489000F8721140018170470A46002101894FF6E4
:1048A0008F73194011430181704730B504460D469E
:1048B00029462046FFF7F0FF208940F007002081BD
:1048C00030BD2DE9F04104460D4616461F46602DC9
:1048D00006D13B46012231462046FFF75AFE05E04D
:1048E0003B46012231462046FFF79DFE29462046E1
:1048F000FFF7D2FF208940F007002081BDE8F0815A
:1049000030B50C4600210189C9B24FF6FF7505EAA2
:104910000325154325432943018130BD2DE9F0418D
:1049200005460E4617469846002443463A46314609
:104930002846FFF7E5FF2C894FF6F870044044F055
:1049400007044FF68F70044044F070042C81BDE8DA
:10495000F081F0B504460D4616461F463B463246EA
:1049600029462046FFF7CCFF208940F48040208173
:10497000F0BD0185828270470A46002101884FF60A
:104980008F731940114301807047F0B50C461546EE
:104990001E460021002200230189028B038C4FF662
:1049A000F877394021434FF6FC473A4040F201176F
:1049B0003A434FF6DD773B404FF6FF7707EA06179D
:1049C0002F433B43018102830384F0BD0A4600214B
:1049D000018B4FF68F7319401143018370470A46CC
:1049E0000021018B48F6FF7319404FF6FF7303EA6D
:1049F00002231943018370470A460021818B4FF639
:104A00008F7319401143818370470A460021818BBF
:104A100048F6FF7319404FF6FF7303EA0223194368
:104A20008183704721B1028842F08002028004E055
:104A300002884FF67F731A400280704721B1828846
:104A400042F00402828004E082884FF6FB731A4031
:104A50008280704721B1828842F00802828004E09F
:104A600082884FF6F7731A408280704721B182889E
:104A700042F00102828004E082884FF6FE731A4001
:104A8000828070470A460021018B4FF6F773194068
:104A90001143018370470A460021018B4FF2FF73D7
:104AA00019404FF6FF7303EA02231943018370474D
:104AB0000A460021818B4FF6F77319401143818319
:104AC00070470A460021818B4FF2FF7319404FF661
:104AD000FF7303EA02231943818370470A460021CA
:104AE000018B4FF6FB7319401143018370470A464F
:104AF0000021018B4FF6FF3319404FF6FF7303EA95
:104B000002231943018370470A460021818B4FF627
:104B1000FB7319401143818370470A460021818B42
:104B20004FF6FF3319404FF6FF7303EA0223194390
:104B3000818370470A460021018B4FF67F7319402D
:104B40001143018370470A460021018BC1F30E0116
:104B50004FF6FF7303EA02231943018370470A46A5
:104B60000021818B4FF67F73194011438183704779
:104B70000A460021818BC1F30E014FF6FF7303EA51
:104B800002231943818370470A460021018C4FF6A6
:104B9000FD7319401143018470470A460021018CBE
:104BA0004FF6F77319401143018470470A460021FC
:104BB000018C4FF6DF7319404FF6FF7303EA0213BF
:104BC0001943018470470A460021018C4FF67F7318
:104BD00019404FF6FF7303EA02131943018470472B
:104BE0000A460021018C4FF6FF5319404FF6FF7320
:104BF00003EA02231943018470470A460021018C0D
:104C00004FF2FF7319404FF6FF7303EA0223194373
:104C1000018470470A460021018C4DF6FF7319404C
:104C20004FF6FF7303EA023319430184704730B52E
:104C3000002301248C40A3B2048C9C430484048C84
:104C400002FA01F5ADB22C43048430BD30B5002327
:104C500004248C40A3B2048C9C430484048C02FA88
:104C600001F5ADB22C43048430BD70B5034600207D
:104C700000241846183001258D40ACB21D8CA54388
:104C80001D8409B1082909D100EB6100056825F0F0
:104C9000700505600568154305600EE00D1FC5F33E
:104CA0004E052844056825F4E045056005684FF683
:104CB000FF7606EA02263543056070BD21B1028801
:104CC00042F00202028004E002884FF6FD731A40AF
:104CD0000280704721B1028842F00402028004E0A1
:104CE00002884FF6FB731A400280704721B1828818
:104CF00042F08002828004E082884FF67F731A407F
:104D00008280704702884FF6F7731A40028002884B
:104D10000A430280704782884FF68F731A40828060
:104D200082880A438280704702894FF6F8731A40DE
:104D3000028102890A430281704702894FF67F731C
:104D40001A40028102890A430281704781847047B8
:104D500081857047818670470187704781877047DA
:104D6000A0F84010704702884FF6FF431A400280B7
:104D700002880A43028070470146888E70470146C8
:104D8000088F70470146888F70470146B1F8400090
:104D900070470146888C70470146088D704702466F
:104DA0000020138A0B400BB1012000E00020704767
:104DB000CA430282704730B5024600200023002417
:104DC000158A05EA0103958905EA010413B10CB1BE
:104DD000012000E0002030BDCA430282704700007D
:104DE00010B58CB004461E230BAA03A9204600F080
:104DF000AFFE0090009810B101200CB010BD9DF8DE
:104E00002C00044400200B900EE040489DF82C201C
:104E100050F8221003A800F003FE00B908E09DF846
:104E20002C00401CC0B20B909DF82C000728ECD33E
:104E300000BF9DF82C00072863D2DFE800F00405CE
:104E40003C5E6564630000BF31A001F07FF831A0D3
:104E500001F07CF83FA001F079F84EA001F076F85F
:104E60005CA001F073F86BA001F070F879A001F07C
:104E70006DF886A001F06AF88BA001F067F890A0A9
:104E800001F064F894A001F061F899A001F05EF8D7
:104E90009EA001F05BF8A4A001F058F8B0A001F0CA
:104EA00055F8BDA001F052F8C8A001F04FF8D4A009
:104EB00001F04CF89AE216A001F048F8E0A001F0E9
:104EC00045F800200B900EE0ED4800689DF82C207E
:104ED00000EBC2004168EBA001F038F89DF82C000F
:104EE000401CC0B20B90E648007D9DF82C10884213
:104EF000EADC07A001F02AF878E205A001F026F824
:104F0000C4E171E245E219E2ECE100004800002052
:104F10000D0A00002D2D2D2D2D2D2D2D2D2D2D2D5E
:104F20002D2D2D2D2D2D2D2D2D2D2D2D55534D412F
:104F300052542056332E312D2D2D2D2D2D2D2D2D2E
:104F40002D2D2D2D2D2D2D2D2D2D2D2D2D2D2D209E
:104F50000D0A00002020202055534D415254CAC74D
:104F6000D3C9414C49454E54454BBFAAB7A2B5C41D
:104F7000D2BBB8F6C1E9C7C9B5C4B4AEBFDAB5F79C
:104F8000CAD4BBA5BDBBD7E9BCFE2CCDA8B9FD20BA
:104F90000D0A0000CBFC2CC4E3BFC9D2D4CDA8B904
:104FA000FDB4AEBFDAD6FACAD6B5F7D3C3B3CCD008
:104FB000F2C0EFC3E6B5C4C8CEBACEBAAFCAFD2CB4
:104FC000B2A2D6B4D0D02ED2F2B4CB2CC4E3BFC997
:104FD0000D0A0000D2D4CBE6D2E2B8FCB8C4BAAF16
:104FE000CAFDB5C4CAE4C8EBB2CECAFD28D6A7B381
:104FF000D6CAFDD7D62831302F3136BDF8D6C629CE
:10500000A1A2D7D6B7FBB4AEA1A2BAAFCAFDC8EB76
:105010000D0A0000BFDAB5D8D6B7B5C8D7F7CEAA03
:10502000B2CECAFD292CB5A5B8F6BAAFCAFDD7EEE7
:10503000B6E0D6A7B3D63130B8F6CAE4C8EBB2CEE4
:10504000CAFD2CB2A2D6A7B3D6BAAFCAFDB7B52057
:105050000D0A0000BBD8D6B5CFD4CABE2ED0C2D45C
:10506000F6B2CECAFDCFD4CABEBDF8D6C6C9E8D600
:10507000C3B9A6C4DC2CD0C2D4F6BDF8D6C6D7AA14
:10508000BBBBB9A6C4DC2E0D0A000000BCBCCAF52F
:10509000D6A7B3D63A7777772E6F70656E6564764C
:1050A0002E636F6D0D0A000055534D415254D3D0FD
:1050B00037B8F6CFB5CDB3C3FCC1EE3A0D0A000048
:1050C0003F3A202020202020BBF1C8A1B0EFD6FA23
:1050D000D0C5CFA20D0A000068656C703A20202070
:1050E000BBF1C8A1B0EFD6FAD0C5CFA20D0A00001F
:1050F0006C6973743A202020BFC9D3C3B5C4BAAF5A
:10510000CAFDC1D0B1ED0D0A0A00000069643A2061
:1051100020202020BFC9D3C3BAAFCAFDB5C44944BB
:10512000C1D0B1ED0D0A0A006865783A2020202030
:10513000B2CECAFD3136BDF8D6C6CFD4CABE2CBA5F
:10514000F3B8FABFD5B8F12BCAFDD7D6BCB4D6B4E4
:10515000D0D0BDF8D6C6D7AABBBB0D0A0A00000046
:105160006465633A20202020B2CECAFD3130BDF8FC
:10517000D6C6CFD4CABE2CBAF3B8FABFD5B8F12B75
:10518000CAFDD7D6BCB4D6B4D0D0BDF8D6C6D7AA3F
:10519000BBBB0D0A0A00000072756E74696D653A3A
:1051A000312CBFAAC6F4BAAFCAFDD4CBD0D0BCC68E
:1051B000CAB13B302CB9D8B1D5BAAFCAFDD4CBD027
:1051C000D0BCC6CAB13B0D0A0A000000C7EBB0B4A0
:1051D000D5D5B3CCD0F2B1E0D0B4B8F1CABDCAE4F1
:1051E000C8EBBAAFCAFDC3FBBCB0B2CECAFDB2A217
:1051F000D2D4BBD8B3B5BCFCBDE1CAF82E0D0A00B1
:105200002D2D2D2D2D2D2D2D2D2D2D2D2D2D2D2DCE
:105210002D2D2D2D2D2D2D2D2D2D414C49454E540F
:10522000454B2D2D2D2D2D2D2D2D2D2D2D2D2D2D78
:105230002D2D2D2D2D2D2D2D2D2D2D200D0A000048
:105240002D2D2D2D2D2D2D2D2D2D2D2D2D2D2D2D8E
:105250002D2D2D2D2D2D2D2D2DBAAFCAFDC7E5B528
:10526000A52D2D2D2D2D2D2D2D2D2D2D2D2D2D2DF6
:105270002D2D2D2D2D2D2D2D2D2D2D2D200D0A00DB
:105280008C00002025730D0A00000000F1A000F042
:105290005DFE00200B901AE0FE4909689DF82C2065
:1052A00001EBC20101AB02AA486803A900F076FC39
:1052B000F84800689DF82C1050F8312003A9F6A09A
:1052C00000F044FE9DF82C00401CC0B20B90F14849
:1052D000007D9DF82C108842DEDCAFF2CC3000F06F
:1052E00035FE83E0AFF2D83000F030FE0BAA03A900
:1052F000204600F02FFD9DF82C00C8B9694603A890
:1053000000F0C1FB0B909DF82C0020B9E7A000999C
:1053100000F01CFE0EE09DF82C00042801D00220B5
:105320006BE5E5A000F012FE0120DA49C87501E046
:10533000022062E5DFA000F009FE57E0DDA000F0EA
:1053400005FE0BAA03A9204600F004FD9DF82C00E1
:10535000C8B9694603A800F096FB0B909DF82C0095
:1053600020B9DAA0009900F0F1FD0EE09DF82C00C4
:10537000042801D0022040E5D7A000F0E7FD00207E
:10538000C449C87501E0022037E5CAA000F0DEFD7F
:105390002CE0C8A000F0DAFD0BAA03A9204600F01B
:1053A000D9FC9DF82C00C8B9694603A800F06BFB36
:1053B0000B909DF82C0078B9B649009881F8EC0064
:1053C000084690F8EC0018B1C8A000F0BFFD07E057
:1053D000CDA000F0BBFD03E002200EE502200CE5AD
:1053E000B4A000F0B3FD01E0012006E500BF0020FD
:1053F00003E5CC48008820F00100CA4908804FF638
:10540000FF70C8491C3108800020C649143108804B
:10541000A049C1F8F0007047C248008800F00100C0
:1054200040B19C48D0F8F0004FF6FF71084499490C
:10543000C1F8F0009748D0F8F000BA491431098853
:1054400008449449C1F8F0000846D0F8F0007047CD
:1054500010B5B448008800F0010058B18D490869C2
:1054600080470020AF49143108804FF47A70AD496D
:105470001C310880AB48008820F00100A949088051
:1054800010BD7FB505460C4601210420FEF7D1FA78
:10549000ADF80850ADF804400020ADF80A00ADF8B2
:1054A000060001A99F481038FEF760FE0122412145
:1054B0009C481038FFF7D1F91E208DF8000003201A
:1054C0008DF801008DF8020001208DF80300684678
:1054D000FEF70FFD012193481038FFF7A3F97FBDB8
:1054E00010B5044604EBC40000EB04100122C2EB2B
:1054F000800081B24FF47A70FFF7C3FF0120654945
:10550000C87510BD30B595B0054613AB12AA09A9F0
:10551000284600F043FB044614B1204615B030BDC8
:105520000020149026E05B4909689DF8502001EBAB
:10553000C20113AB11AA486801A900F02FFB044671
:105540000CB12046EAE709A901A800F069FA60B9A0
:105550009DF844009DF84810884201DD0220DDE7F7
:105560009DF850004B4988750AE09DF85000401C9A
:10557000C0B214904748007D9DF850108842D2DC9C
:1055800000BF4448007D9DF85010884201D104209E
:10559000C4E714A9284600F04EFC04460CB120468E
:1055A000BCE79DF850003B4948750020B6E72DE95F
:1055B000F0419AB000263748847D007DA04202DC8D
:1055C0001AB0BDE8F0813349096801EBC40106ABAC
:1055D00007AA486808A900F0E1FA08A952A000F05B
:1055E000B5FC0025BAE02B48008B0121A9400840FA
:1055F000D8B122214EA000F0A9FC284600F00EFCF4
:1056000024492431471839464AA000F09FFC222142
:1056100047A000F09BFC284600F000FC1D49243107
:10562000084410A941F825008EE0284600F0F6FB5A
:1056300018492431085810A941F825001548C07DA3
:1056400030B910A850F825103BA000F07FFC7BE09B
:1056500074E000002D2D2D2D2D2D2D2D2D2D2D2DDA
:105660002D2D2D2D2D2D2D2D2D2D2D2D2DBAAFCABE
:10567000FD204944202D2D2D2D2D2D2D2D2D2D2D71
:105680002D2D2D2D2D2D2D2D2D2D2D2D2D2D2D2D4A
:10569000200D0A008C0000202573206964206973A6
:1056A0003A0D0A3058253038580D0A004845583A06
:1056B000305825580D0A00003136BDF8D6C6B2CE96
:1056C000CAFDCFD4CABE210D0A0000004445433AAA
:1056D000256C750D0A0000003130BDF8D6C6B2CE7B
:1056E000CAFDCFD4CABE210D0A00000052756E203B
:1056F00054696D652043616C63756C6174696F6E8C
:10570000204F4E0D0A00000052756E2054696D65E1
:105710002043616C63756C6174696F6E204F4646FF
:105720000D0A0000100800400D0A25732800000033
:105730002563000025730000256C750010A850F843
:10574000251095A000F002FC9DF81C00401EA84208
:1057500002D093A000F0FAFB681CC5B29DF81C00B3
:105760008542FFF640AF8FA000F0F0FBFFF741FE4F
:105770008D48407D0B280DD2DFE800F0060D151E88
:1057800027323F4E5F7287008749096851F834001D
:105790008047064690E0844A126852F83410109808
:1057A0008847064688E0804B1B6853F83420DDE9C3
:1057B0001001904706467FE07B4F3F6857F8343032
:1057C00010A807C89847064676E0DFF8DCC1DCF889
:1057D00000C05CF8347010A80FC8B84706466BE0EC
:1057E0001498DFF8C4C10090DCF800C05CF8347095
:1057F00010A80FC8B84706465EE0DDE91401DFF8DF
:10580000A8C1CDE90001DCF800C05CF8347010A834
:105810000FC8B84706464FE0DDE914121698DFF8C6
:1058200088C1CDE900120290DCF800C05CF8347049
:1058300010A80FC8B84706463EE0DDE91423DDE9AD
:105840001610DFF864C1CDE90023CDE90210DCF8C1
:1058500000C05CF8347010A80FC8B84706462BE0AB
:10586000DDE9163218991598CDE9023204910190BC
:105870001498DFF834C10090DCF800C05CF8347094
:1058800010A80FC8B847064616E0DDE91623DDE983
:105890001810CDE90223CDE90410DDE91401DFF889
:1058A00008C1CDE90001DCF800C05CF8347010A834
:1058B0000FC8B847064600BF00BFFFF7ADFD9DF813
:1058C000180001280CD13848C07D20B9314637A0D6
:1058D00000F03CFB07E0314636A000F037FB02E069
:1058E00033A000F033FB304890F8EC0088B12E482C
:1058F000D0F8F0000A21B0FBF1F201FB12072A48B0
:10590000D0F8F000B0FBF1F83A4641462CA000F088
:105910001DFB00BF54E670B53148008800F400401C
:10592000002833D02E48057800202E4948551E48BF
:1059300081682C48884704461CB91B49C8688047C1
:1059400021E02848FFF74CFA0546012D00D02C46EF
:10595000CCB1012C06D0022C08D0032C0AD0042C88
:1059600010D10BE020A000F0F1FA0BE021A000F034
:10597000EDFA07E022A000F0E9FA03E023A000F02E
:10598000E5FA00BF00BF00201549088070BD014640
:1059900008687047016070473058255800000000C3
:1059A0002C000000290000008C0000203D256C75B3
:1059B0003B0D0A003D305825583B0D0A0000000001
:1059C00046756E6374696F6E2052756E2054696DF2
:1059D000653A25642E2531646D730D0A00000000C0
:1059E000300000208D050020BAAFCAFDB4EDCEF323
:1059F000210D0A00B2CECAFDB4EDCEF3210D0A008E
:105A0000B2CECAFDCCABB6E0210D0A00CEB4D5D2E1
:105A1000B5BDC6A5C5E4B5C4BAAFCAFD210D0A001F
:105A200002460AE010780B78984201D001207047B6
:105A3000107800B902E0521C491CF3E700BF0020B7
:105A4000F5E706E002780A70027802B902E0401C2D
:105A5000491CF7E700BF70470146002005E00A78BF
:105A600002B903E0421CD0B2491CF8E700BF7047FE
:105A700010B50246012000E050430B1EA1F10104C5
:105A8000E1B2F9D110BD2DE9F04307460E460025DD
:105A90004FF00A083C46002030601FE0207839288B
:105AA00002DC207830280ADA2078462802DC2078C8
:105AB000412804DA2078582809D1012D07D120780F
:105AC000412801DB4FF01008681CC5B205E02078C2
:105AD00000B904E00120BDE8F083641CDEE700BFEC
