:020000040800F2
:10000000E80A002021220008592600085B26000883
:100010005F2600086326000867260008000000002D
:100020000000000000000000000000006B26000837
:100030006D260008000000006F26000871260008E9
:100040003B2200083B2200083B2200083B2200081C
:100050003B2200083B2200083B2200083B2200080C
:100060003B2200083B2200083B2200083B220008FC
:100070003B2200083B2200083B2200083B220008EC
:100080003B2200083B2200083B2200083B220008DC
:100090003B2200083B2200083B2200083B220008CC
:1000A0003B2200083B2200083B2200083B220008BC
:1000B0002B2600083B2200083B2200083B220008B8
:1000C0003B2200083B2200083B2200083B2200089C
:1000D0003B2200083B2200083B2200083B2200088C
:1000E0003B2200083B2200083B2200083B2200087C
:1000F0003B2200083B2200083B2200083B2200086C
:100100003B2200083B2200083B2200083B2200085B
:100110003B2200083B2200083B2200083B2200084B
:100120003B2200083B2200083B2200083B2200083B
:1001300000F002F800F04DF80AA090E8000C8244AC
:100140008344AAF10107DA4501D100F042F8AFF289
:10015000090EBAE80F0013F0010F18BFFB1A43F0A5
:10016000010318473894000058940000103A24BF47
:1001700078C878C1FAD8520724BF30C830C144BF0C
:1001800004680C607047000000230024002500264E
:10019000103A28BF78C1FBD8520728BF30C148BFEA
:1001A0000B607047662908F0C481642905F08482D9
:1001B000782905F0BD82002070471FB505F014FEB8
:1001C00004000020002107F0F3F8E0601FBD10B527
:1001D00010BD05F00DFF1146FFF7EFFF02F059F8D3
:1001E00005F02BFF03B4FFF7F2FF03BC05F06EFF31
:1001F0000CB50020019000906C48006840F48030FD
:100200006A49086000BF6948006800F40030009047
:100210000198401C0190009818B90198B0F5A06FA2
:10022000F1D16248006800F4003010B10120009064
:1002300001E0002000900098012843D15C4800684C
:1002400040F010005A4908600846006820F003009A
:1002500008600846006840F00200086053484068A3
:10026000524948600846406848600846406840F483
:10027000806048600846406820F47C10486008466A
:10028000406840F4E81048600846006840F080701C
:10029000086000BF4548006800F000700028F9D0F1
:1002A0004248406820F003004049486008464068E2
:1002B00040F00200486000BF3C48406800F00C007D
:1002C0000828F9D10CBD10B5FFF792FF10BD10B58D
:1002D0003648006840F0010034490860084640682C
:1002E00034490840314948600846006832490840AE
:1002F0002E4908600846006820F4802008600846FF
:10030000406820F4FE0048604FF41F008860FFF74B
:10031000DAFF4FF000602949086010BD10B50021D8
:1003200000200022214B5B6803F00C0121B104295D
:1003300006D0082928D107E0214B224C236027E072
:100340001F4B204C236023E0184B5B6803F47010B4
:10035000164B5B6803F48032022303EB904022B912
:10036000194B4343174C23600DE0104B5B6803F4BB
:10037000003323B1144B4343124C236003E0104B72
:100380004343104C236003E00D4B0E4C236000BF31
:1003900000BF064B5B68C3F303130C4CE15C094BD5
:1003A0001B68CB40074C236010BD000000100240CA
:1003B000002002400000FFF8FFFFF6FE08ED00E01D
:1003C00000127A000000002000093D000400002017
:1003D00031490143314A1160704770B50021002353
:1003E0000F22C47804B32D4C246804F4E064C4F5EF
:1003F000E064210AC1F10403CA40447804FA03F11D
:100400008478144021430901254C0678A1550478CD
:1004100004F01F050124AC4005786D11AD0005F115
:10042000E025C5F8004109E0047804F01F05012427
:10043000AC401C4D0678761145F8264070BD1A4A2E
:100440000A400243154B1B1F1A60704739B1134A0B
:10045000121D12680243114B1B1D1A6006E00F4A61
:10046000121D126882430D4B1B1D1A607047042831
:1004700008D14FF0E021096941F004014FF0E0227A
:10048000116107E04FF0E021096921F004014FF00C
:10049000E0221161704700000000FA050CED00E059
:1004A00000E400E080E100E080FFFF1F10B504469B
:1004B000CC48844208D10121042000F02DFB00210A
:1004C000042000F029FB46E0C748844208D10121FE
:1004D000082000F021FB0021082000F01DFB3AE07D
:1004E000C248844208D10121102000F015FB0021F0
:1004F000102000F011FB2EE0BD48844208D10121FC
:10050000202000F009FB0021202000F005FB22E064
:10051000B848844208D10121402000F0FDFA0021B2
:10052000402000F0F9FA16E0B348844208D10121D6
:10053000802000F0F1FA0021802000F0EDFA0AE0BE
:10054000AE48844207D10121801500F0E5FA002170
:10055000A01500F0E1FA10BD10B50121084600F029
:10056000DBFA0021012000F0D7FA10BD2DE9F0419F
:10057000024600250026002000230024002791F8D1
:1005800003C00CF00F0591F803C00CF0100CBCF187
:10059000000F03D091F802C04CEA050591F800C0A5
:1005A000BCF1000F31D0146800202BE04FF0010C9B
:1005B0000CFA00F3B1F800C00CEA03069E4220D109
:1005C00083004FF00F0C0CFA03F7BC4305FA03FC51
:1005D0004CEA040491F803C0BCF1280F06D14FF097
:1005E000010C0CFA00FCC2F814C00AE091F803C038
:1005F000BCF1480F05D14FF0010C0CFA00FCC2F819
:1006000010C0401C0828D1D31460B1F800C0BCF160
:10061000FF0F34DD546800202EE000F1080C4FF08D
:10062000010808FA0CF3B1F800C00CEA03069E4278
:1006300021D183004FF00F0C0CFA03F7BC4305FAED
:1006400003FC4CEA040491F803C0BCF1280F05D167
:1006500000F1080C08FA0CF8C2F8148091F803C0F5
:10066000BCF1480F07D100F1080C4FF0010808FA5F
:100670000CF8C2F81080401C0828CED35460BDE8A6
:10068000F0814FF6FF710180022181700421C17059
:1006900070470246002093680B400BB1012000E038
:1006A000002070470146886880B2704702460020EB
:1006B000D3680B400BB1012000E0002070470146D9
:1006C000C86880B2704701617047416170470AB1E4
:1006D000016100E041617047C16070474FF48032B2
:1006E0000A43826181618261826982697047024640
:1006F0000020434B18684FF68073184040EA021000
:1007000008433F4B186070473E49C8617047F0B5D9
:100710000A46002300240021002500F00046B6F11F
:10072000004F02D1364EF16901E0354E7168C0F3D9
:10073000034583B200F44016B6F5401F08D121F0FE
:1007400070612F4E766826F070662D4F7E6012E045
:1007500000F48016B6F5801F06D1032606FA05F4CC
:10076000A14341F0706106E0460D360103FA06F63A
:10077000B14341F0706122B1460D360103FA06F62D
:10078000314300F00046B6F1004F02D11C4EF1613A
:1007900001E01B4E7160F0BD30B500228B071C0FCD
:1007A0000F2303FA04F2164B08338C1053F824304D
:1007B0009343134C08348D1044F8253023468C1095
:1007C00053F824308C07240F00FA04F423430C4C14
:1007D00008348D1044F8253030BD0A49DC310860FA
:1007E0007047000000080140000C0140001001406B
:1007F0000014014000180140001C0140002001408D
:100800000000014000002042DF48006840F0010085
:10081000DD49086008464068DC490840DA4948601C
:1008200008460068DA490840D74908600846006869
:1008300020F4802008600846406820F4FE004860EC
:100840004FF41F0088607047CF49096821F4803158
:10085000CD4A11601146096821F480211160B0F57C
:10086000803F03D0B0F5802F0ED106E0C64909685D
:1008700041F48031C44A116007E0C349096841F47A
:10088000A021C14A116000E000BF00BF704710B551
:1008900001460022002300204A11012A02D1BA4C4D
:1008A000236806E0022A02D1B74C236A01E0B64C65
:1008B000636A01F01F02012494401C400CB1012026
:1008C00000E0002010BD38B5002000900024002575
:1008D00000BF3120FFF7DBFF05460098401C009069
:1008E0000098B0F5A06F01D0002DF2D03120FFF7B5
:1008F000CEFF08B1012400E00024204638BD0146A7
:100900000020A14A106820F0F80040EAC100106001
:100910007047A04908607047024600209A4B58680B
:1009200020F47C1042EA01031843974B586070474B
:1009300098490866704701460020934A506820F0A5
:1009400003000843506070478F48406800F00C0077
:100950007047014600208C4A506820F0F0000843A0
:100960005060704701460020874A506820F4E060DC
:1009700008435060704701460020834A506820F4C5
:10098000605040EAC1005060704729B17E4A527AF7
:1009900002437D4B5A7204E07B4A527A82437A4B7F
:1009A0005A7270477B49D831086070470146002071
:1009B000754A506820F44040084350607047002159
:1009C000714A20321170704A82F82010012802D03A
:1009D00004280AD104E001216B4A2032117005E09D
:1009E0000521694A2032117000E000BF00BF704746
:1009F0006949086070476449096A0143624A1162A3
:100A00007047654944390860704730B500210022BD
:100A1000002400235C4D6D6805F00C0121B1042910
:100A200005D0082923D105E05C4D056022E05B4D2F
:100A300005601FE0544D6D6805F47012524D6D68ED
:100A400005F48034022505EB92421CB9544D554300
:100A500005600BE04C4D6D6805F400351DB1504D3F
:100A60005543056002E04D4D5543056002E04B4D96
:100A7000056000BF00BF444D6D6805F0F001090935
:100A8000484D6B5C0568DD4045603F4D6D6805F481
:100A9000E061090A434D6B5C4568DD4085603A4D75
:100AA0006D6805F46051C90A3E4D6B5C4568DD40D8
:100AB000C560354D6D6805F44041890B3A4D6B5C5E
:100AC000C568B5FBF3F5056130BD29B12E4A526901
:100AD00002432D4B5A6104E02B4A526982432A4B50
:100AE0005A61704729B1284A92690243264B9A619C
:100AF00004E0254A92698243234B9A61704729B1E9
:100B0000214AD2690243204BDA6104E01E4AD269CD
:100B100082431D4BDA61704729B11B4AD2680243F8
:100B2000194BDA6004E0184AD2688243164BDA6047
:100B3000704729B1144A12690243134B1A6104E049
:100B4000114A12698243104B1A61704712494039A9
:100B5000086070470F49C86470470B49C8717047F7
:100B60000948406A40F08070074948627047014672
:100B70000020054A92680A400AB1012000E00020E6
:100B80007047014988727047001002400000FFF86A
:100B9000FFFFF6FE000042428004424200127A004B
:100BA00000093D00140000202400002010B5044678
:100BB000FE48844208D10121C014FFF7ADFF002197
:100BC000E014FFF7A9FFC4E0B4F1804F08D1012180
:100BD0000846FFF7AEFF00210120FFF7AAFFB8E0AB
:100BE000F348844208D101210220FFF7A2FF00212F
:100BF0000220FFF79EFFACE0EE48844208D10121BD
:100C00000420FFF796FF00210420FFF792FFA0E0E9
:100C1000E948844208D101210820FFF78AFF00211A
:100C20000820FFF786FF94E0E448844208D10121C0
:100C30001020FFF77EFF00211020FFF77AFF88E0E9
:100C4000DF48844208D101212020FFF772FF0021F4
:100C50002020FFF76EFF7CE0DA48844208D10121B2
:100C60004014FFF759FF00216014FFF755FF70E0B3
:100C7000D548844209D10121C804FFF74DFF002166
:100C80004FF40020FFF748FF63E0D048844209D1C9
:100C900001210805FFF740FF00214FF48010FFF706
:100CA0003BFF56E0CA48844209D101214805FFF7BD
:100CB00033FF00214FF40010FFF72EFF49E0C54835
:100CC000844208D101214020FFF733FF002140205A
:100CD000FFF72FFF3DE0C048844208D1012180206A
:100CE000FFF727FF00218020FFF723FF31E0BB48FB
:100CF000844208D101218015FFF71BFF0021A015B8
:100D0000FFF717FF25E0B648844209D10121080406
:100D1000FFF702FF00214FF48030FFF7FDFE18E0DF
:100D2000B048844209D101214804FFF7F5FE0021B3
:100D30004FF40030FFF7F0FE0BE0AB48844208D1DF
:100D400001218804FFF7E8FE00214FF48020FFF71F
:100D5000E3FE10BD00220288944B98420ED0994BBE
:100D600098420BD0B0F1804F08D0914B984205D0FB
:100D7000904B984202D0904B984204D14FF68F731B
:100D80001A404B881A438D4B984207D08C4B98429F
:100D900004D04FF6FF431A40CB881A4302808B8859
:100DA00083850B880385814B98420BD0854B9842F5
:100DB00008D08B4B984205D08A4B984202D08A4B80
:100DC000984201D10B7A038601238382704770B564
:100DD000002400220023058C4FF6FE763540058462
:100DE000028C8388048B4FF68F752C40B51E2C40E7
:100DF0000D882C43751E2A400D892A434D882A43AD
:100E00006A4DA8420BD06F4DA84208D0744DA8423D
:100E100005D0744DA84202D0734DA84213D14FF6AD
:100E2000F7752A404D892A434FF6FB752A408D8875
:100E30002A434FF6FF652B404FF6FF552B408D8917
:100E40002B43CD892B4383800483CD888586028400
:100E500070BD70B5002400220023058C4FF6EF769C
:100E600035400584028C8388048B48F6FF752C403E
:100E70004FF6FF452C400D884FF6FF7606EA052514
:100E80002C434FF6DF752A400D8906EA05152A43E3
:100E90004D8806EA05152A43444DA84202D0494D23
:100EA000A8421DD14FF67F752A404D894FF6FF7637
:100EB00006EA05152A434FF6BF752A408D8806EAD3
:100EC00005152A434FF6FF352B404FF2FF752B4097
:100ED0008D8906EA85052B43CD8906EA85052B43D6
:100EE00083800483CD880587028470BD70B500249B
:100EF00000220023058C4FF6FF6635400584028CE6
:100F00008388848B4FF68F752C404FF6FC752C40F0
:100F10000D882C434FF6FF552A400D894FF6FF767A
:100F200006EA05252A434D8806EA05252A431F4D72
:100F3000A84202D0234DA8421DD14FF2FF752A408E
:100F40004D894FF6FF7606EA05252A434FF6FF3511
:100F50002A408D8806EA05252A434EF6FF752B4068
:100F60004DF6FF752B408D8906EA05152B43CD897B
:100F700006EA05152B4383808483CD888587028408
:100F800070BD70B5002200230024058C4EF6FF765C
:100F900035400584038C8488828B48F6FF752A408F
:100FA0004FF6FF452A400D8820E00000002C01404C
:100FB0000004004000080040000C00400010004009
:100FC0000014004000340140004C0140005001403A
:100FD0000054014000180040001C00400020004068
:100FE0000040014000440140004801404FF6FF76B8
:100FF00006EA05252A434DF6FF752B400D8906EAC2
:1010000005352B434D8806EA05352B43FA4DA8429A
:1010100002D0FA4DA84208D14BF6FF752C408D89BD
:101020004FF6FF7606EA85152C4384808283CD88AF
:10103000A0F84050038470BD828B4FF2FF331A40FA
:101040008283828B4FF6FF7303EA01231A43828364
:101050007047F0B50C461546002200210026078C8B
:101060004EF6FF7C07EA0C070784828B018C4FF653
:10107000FF7707EA043640F6FF473A404FF6FF771E
:1010800007EA05273A434FF6FF7707EA03373A4363
:10109000D94FB8420ED0D94FB8420BD0B0F1804FE3
:1010A00008D0D74FB84205D0D64FB84202D0D64F5D
:1010B000B84206D14DF6FF77394046F480573943A0
:1010C00005E047F6FF57394044F48057394382839F
:1010D0000184F0BD828B4FF6F3731A408283828BBA
:1010E0000A4382837047F0B50C4615460022002162
:1010F0000026078C4FF6FF6C07EA0C070784828BEB
:10110000018C4FF6FF7707EA04264FF60C773A403A
:101110004FF6FF7707EA03172F433A43B64FB8421B
:101120000ED0B64FB8420BD0B0F1804F08D0B44FBC
:10113000B84205D0B34FB84202D0B34FB84206D13F
:101140004FF6FF57394046F48077394305E04FF2B8
:10115000FF57394044F48077394382830184F0BDDE
:10116000028B4FF2FF331A400283028B4FF6FF735C
:1011700003EA01231A4302837047F0B50C46154673
:10118000002200210026078C4FF6EF7C07EA0C07AF
:101190000784028B018C4FF6FF7707EA041640F6AE
:1011A000FF473A404FF6FF7707EA03373A434FF6D7
:1011B000FF7707EA05273A438F4FB8420ED08F4F8B
:1011C000B8420BD0B0F1804F08D08D4FB84205D057
:1011D0008C4FB84202D08C4FB84206D14FF6DF7721
:1011E000394046F01007394305E04FF65F77394044
:1011F00044F01007394302830184F0BD028B4FF69F
:10120000F3731A400283028B0A4302837047F0B5DE
:101210000C46154600220021068C4FF6FE773E4014
:101220000684028B018C4FF60C7632407E1C06EA57
:1012300003162E433243704EB0420ED06F4EB04272
:101240000BD0B0F1804F08D06D4EB04205D06D4E3E
:10125000B04202D06C4EB04206D14FF6FD7631401E
:1012600044F00106314305E04FF6F576314044F095
:101270000106314302830184F0BD70B505460C467A
:101280005D4885420ED05D4885420BD0B5F1804F58
:1012900008D05B48854205D05A48854202D05A485A
:1012A000854200D100E000BF208850B92389A28880
:1012B00061882846FFF7ABFFE1882846FFF79EFFCD
:1012C00025E0208804280AD12389A288618828463D
:1012D000FFF753FFE1882846FFF742FF17E0208819
:1012E00008280AD12389A28861882846FFF7FBFED7
:1012F000E1882846FFF7EEFE09E02389A28861888D
:101300002846FFF7A6FEE1882846FFF795FE70BD48
:101310002DE9F04105460C4600260127608808B9F2
:10132000022600E00026A088012801D1022700E063
:1013300001272088A0B92389A28861882846FFF761
:1013400066FFE1882846FFF759FF23893A46314670
:101350002846FFF712FFE1882846FFF701FF13E058
:101360002389A28861882846FFF707FFE18828467D
:10137000FFF7F6FE23893A4631462846FFF747FF36
:10138000E1882846FFF73AFFBDE8F0810A884B88DC
:101390001A438B881A43CB881A430B891A434B890B
:1013A0001A438B891A43A0F8442070474FF6FF7107
:1013B000818000210180C18041800172704700213D
:1013C000018041808180C180018141818181C18111
:1013D0007047002101804180012181800021C1806E
:1013E000018170470021018041808180C18001819D
:1013F0004181818170470000002C01400034014090
:101400000004004000080040000C004021B10288A8
:1014100042F00102028004E002884FF6FE731A4097
:101420000280704731B1B0F8442042F40042A0F885
:10143000442005E0B0F84420C2F30E02A0F8442096
:1014400070471AB183890B43838102E083898B4300
:10145000838170478182704741EA0203A0F84830D7
:1014600070471AB183890B43838102E083898B43E0
:101470008381704701894FF6F872114001817047EE
:101480000A46002101894FF68F73194011430181EB
:10149000704730B504460D4629462046FFF7F0FF59
:1014A000208940F00700208130BD2DE9F04104463D
:1014B0000D4616461F46602D06D13B460122314699
:1014C0002046FFF75AFE05E03B4601223146204602
:1014D000FFF79DFE29462046FFF7D2FF208940F006
:1014E00007002081BDE8F08130B50C46002101895C
:1014F000C9B24FF6FF7505EA032515432543294375
:10150000018130BD2DE9F04105460E46174698464B
:10151000002443463A4631462846FFF7E5FF2C892A
:101520004FF6F870044044F007044FF68F70044003
:1015300044F070042C81BDE8F081F0B504460D46FE
:1015400016461F463B46324629462046FFF7CCFF4B
:10155000208940F480402081F0BD0185828270475F
:101560000A46002101884FF68F731940114301800C
:101570007047F0B50C4615461E4600210022002398
:101580000189028B038C4FF6F877394021434FF6DF
:10159000FC473A4040F201173A434FF6DD773B40B3
:1015A0004FF6FF7707EA06172F433B43018102837B
:1015B0000384F0BD0A460021018B4FF68F7319405A
:1015C0001143018370470A460021018B48F6FF73DF
:1015D00019404FF6FF7303EA022319430183704752
:1015E0000A460021818B4FF68F7319401143818386
:1015F00070470A460021818B48F6FF7319404FF669
:10160000FF7303EA022319438183704721B10288E3
:1016100042F08002028004E002884FF67F731A4095
:101620000280704721B1828842F00402828004E087
:1016300082884FF6FB731A408280704721B18288FE
:1016400042F00802828004E082884FF6F7731A4065
:101650008280704721B1828842F00102828004E0DA
:1016600082884FF6FE731A40828070470A46002136
:10167000018B4FF6F77319401143018370470A46F7
:101680000021018B4FF2FF7319404FF6FF7303EAFD
:1016900002231943018370470A460021818B4FF6CC
:1016A000F77319401143818370470A460021818BEB
:1016B0004FF2FF7319404FF6FF7303EA02231943F9
:1016C000818370470A460021018B4FF6FB73194056
:1016D0001143018370470A460021018B4FF6FF3307
:1016E00019404FF6FF7303EA022319430183704741
:1016F0000A460021818B4FF6FB7319401143818309
:1017000070470A460021818B4FF6FF3319404FF690
:10171000FF7303EA02231943818370470A460021BD
:10172000018B4FF67F7319401143018370470A46BE
:101730000021018BC1F30E014FF6FF7303EA022370
:101740001943018370470A460021818B4FF67F734E
:1017500019401143818370470A460021818BC1F3F0
:101760000E014FF6FF7303EA02231943818370478A
:101770000A460021018C4FF6FD7319401143018484
:1017800070470A460021018C4FF6F7731940114348
:10179000018470470A460021018C4FF6DF7319401F
:1017A0004FF6FF7303EA02131943018470470A4698
:1017B0000021018C4FF67F7319404FF6FF7303EA47
:1017C00002131943018470470A460021018C4FF629
:1017D000FF5319404FF6FF7303EA022319430184B4
:1017E00070470A460021018C4FF2FF7319404FF6F3
:1017F000FF7303EA02231943018470470A4600215C
:10180000018C4DF6FF7319404FF6FF7303EA023364
:1018100019430184704730B5002301248C40A3B2E2
:10182000048C9C430484048C02FA01F5ADB22C4371
:10183000048430BD30B5002304248C40A3B2048C52
:101840009C430484048C02FA01F5ADB22C43048459
:1018500030BD70B50346002000241846183001251D
:101860008D40ACB21D8CA5431D8409B1082909D156
:1018700000EB6100056825F07005056005681543FB
:1018800005600EE00D1FC5F34E052844056825F4DC
:10189000E045056005684FF6FF7606EA0226354307
:1018A000056070BD21B1028842F00202028004E0AE
:1018B00002884FF6FD731A400280704721B10288FA
:1018C00042F00402028004E002884FF6FB731A40E3
:1018D0000280704721B1828842F08002828004E059
:1018E00082884FF67F731A408280704702884FF6D5
:1018F000F7731A40028002880A4302807047828888
:101900004FF68F731A40828082880A438280704724
:1019100002894FF6F8731A40028102890A43028154
:10192000704702894FF67F731A40028102890A4389
:101930000281704781847047818570478186704736
:101940000187704781877047A0F840107047028870
:101950004FF6FF431A40028002880A430280704714
:101960000146888E70470146088F70470146888F70
:1019700070470146B1F8400070470146888C7047B7
:101980000146088D704702460020138A0B400BB1B8
:10199000012000E000207047CA430282704730B542
:1019A0000246002000230024158A05EA01039589D8
:1019B00005EA010413B10CB1012000E0002030BDA4
:1019C000CA4302827047000010B50446FA488442B8
:1019D00008D101214015FFF79FF800216015FFF79E
:1019E0009BF817E0F548844208D101210015FFF764
:1019F00093F800212015FFF78FF80BE0F0488442A0
:101A000008D10121C803FFF787F800214FF40040F7
:101A1000FFF782F810BD30B5024600200023506861
:101A2000E84C20400D790C6844EA052420435060BE
:101A30009068E54C2040D1E902542C434D7944EAAA
:101A4000450420439060D06A20F470000C7C641E32
:101A5000E4B2234340EA0350D06230BD002101606C
:101A6000017141718160C16001210174704721B130
:101A7000826842F00102826003E0826822F0010283
:101A80008260704721B1826842F48072826003E014
:101A9000826822F480728260704710B50023CBB256
:101AA0001AB144681C43446002E044689C434460AB
:101AB00010BD816841F00801816070470146002037
:101AC0008A6802F008020AB1012000E00020704795
:101AD000816841F0040181607047014600208A68F6
:101AE00002F004020AB1012000E00020704721B199
:101AF000826842F4A002826003E0826822F4A002BD
:101B000082607047014600208A6802F480020AB1B0
:101B1000012000E00020704710B50A460021002394
:101B2000416821F46041531E41EA4331416010BDD8
:101B300021B1426842F40062426003E0426822F44C
:101B4000006242607047F0B504460D460020002157
:101B5000092D11DDE068A5F10A0606EB4607072608
:101B600006FA07F18843A5F10A0606EB460603FAD2
:101B700006F10843E0600CE0206905EB4507072605
:101B800006FA07F1884305EB450603FA06F1084318
:101B90002061072A0FDA606B561E06EB86071F26A8
:101BA00006FA07F18843561E06EB860605FA06F18B
:101BB0000843606322E00D2A0FDA206BD61F06EB84
:101BC00086071F2606FA07F18843D61F06EB86060E
:101BD00005FA06F10843206310E0E06AA2F10D0661
:101BE00006EB86071F2606FA07F18843A2F10D06C9
:101BF00006EB860605FA06F10843E062F0BD21B166
:101C0000826842F48012826003E0826822F48012CB
:101C1000826070470146C86C80B2704766484C309D
:101C20000068704721B1426842F48062426003E07C
:101C3000426822F480624260704721B1426842F4F7
:101C40008052426003E0426822F480524260704752
:101C50000A460021816821F4E04111438160704708
:101C600021B1826842F40042826003E0826822F47B
:101C700000428260704721B1826842F402128260A1
:101C800003E0826822F4021282607047014600205D
:101C90008A6802F400120AB1012000E000207047B7
:101CA000F0B504461546002000220026092911DD62
:101CB000E068A1F10A0707EB470C072707FA0CF2C7
:101CC0009043A1F10A0707EB470703FA07F2104315
:101CD000E0600CE0206901EB410C072707FA0CF2E9
:101CE000904301EB410703FA07F210432061A06B18
:101CF000C0F30156EF1C06F1010CA7EB0C0707EB34
:101D0000870C1F2707FA0CF29043EF1C06F1010C19
:101D1000A7EB0C0707EB870701FA07F21043A06354
:101D2000F0BD10B50A4600210023816B21F440115B
:101D3000531E41EA0351816310BD08B5002300938F
:101D40000090009B0B440093009B1A6008BD08B5EF
:101D5000024600200090009201F12800009B1844E8
:101D600000900098006880B208BD0A4600214168D2
:101D7000164B1940114341607047416282627047BF
:101D80000A460021416821F01F011143416070475C
:101D900040B109490831096841F40001064A083296
:101DA000116007E004490831096821F40001024A82
:101DB00008321160704700000024014000280140F3
:101DC000003C0140FFFEF0FFFDF7F1FFFFFD3FFF8C
:101DD0000246002013680B400BB1012000E00020F8
:101DE0007047CA430260704770B502460020002366
:101DF00000240B125568CEB205EA060415681D4092
:101E000015B10CB1012000E0002070BD00220A12C3
:101E1000D34303607047000010B50446FB4884427A
:101E200009D101218803FEF777FE00214FF480409D
:101E3000FEF772FE32E0F648844209D101214804DF
:101E4000FEF777FE00214FF40030FEF772FE25E02A
:101E5000F048844209D101218804FEF76AFE00217E
:101E60004FF48020FEF765FE18E0EB48844209D16C
:101E70000121C804FEF75DFE00214FF40020FEF7AB
:101E800058FE0BE0E548844208D101210805FEF721
:101E900050FE00214FF48010FEF74BFE10BD2DE9DF
:101EA000F04786B005460E460024A24600BFA14674
:101EB0000027B08900B100BF2F462C8A4CF6FF7076
:101EC0000440F08804432C82AC894EF6F3100440A1
:101ED000B08831890843718908430443AC81AC8AD6
:101EE0004FF6FF400440B0890443AC8201A8FEF7DE
:101EF0008CFDC648874202D1DDF810A001E0DDF874
:101F00000CA0A88900F4004040B10AEBCA0000EB25
:101F10000A1031684900B0FBF1F807E00AEBCA008B
:101F200000EB0A1031688900B0FBF1F86420B8FBBF
:101F3000F0F004012009642101FB1089A88900F454
:101F4000004040B1322000EBC900B0FBF1F000F0DE
:101F50000700044308E0322000EB09106421B0FBC5
:101F6000F1F000F00F0004432C8106B0BDE8F087CB
:101F70004FF41651016000218180C18001810C2144
:101F8000418100218181704710B502460020108AEE
:101F90004FF2FF0318400B884C8823438C8823435F
:101FA000CC8823431843108210BD0021018041805A
:101FB0008180C180704721B1828942F400528281C0
:101FC00004E082894DF6FF731A4082817047F0B5B4
:101FD0000346002400260025002040F66A17B94277
:101FE00000D100BF1846C1F3421401F01F060127BB
:101FF00007FA06F5012C01D10C3004E0022C01D1C6
:10200000103000E014301AB107682F43076002E077
:102010000768AF430760F0BD1AB1838A0B43838220
:1020200002E0838A8B4383827047028A4FF6F07303
:102030001A400282028A0A430282704782894FF262
:10204000FF731A40828182890A438281704721B1DD
:10205000828942F00202828104E082894FF6FD7398
:102060001A4082817047028A4FF6DF731A4002825B
:10207000028A0A430282704721B1028A42F48042F6
:10208000028204E0028A4BF6FF731A400282704714
:10209000C1F308028280704701468888C0F30800B7
:1020A0007047818941F0010181817047028BD2B272
:1020B0000283028B42EA012202837047028B02F400
:1020C0007F420283028B0A430283704721B1828AD6
:1020D00042F02002828204E0828A4FF6DF731A40C7
:1020E0008282704721B1828A42F01002828204E02B
:1020F000828A4FF6EF731A408282704721B1828A3A
:1021000042F00802828204E0828A4FF6F7731A4096
:102110008282704721B1828942F40042828103E0C9
:102120008289C2F30E028281704721B1828A42F411
:102130000062828204E0828A4FF2FF731A40828238
:102140007047828A4FF6FB731A408282828A0A4362
:102150008282704721B1828A42F00202828204E0C8
:10216000828A4FF6FD731A40828270470246002031
:10217000B1F5007F00D100BF13880B400BB10120E7
:1021800000E00020704701F40072B2F5007F00D13A
:1021900000BFCA430280704770B502460024002386
:1021A0000025002040F66A16B14200D100BFC1F3FD
:1021B000421501F01F03012606FA03F3012D02D197
:1021C0009689334006E0022D02D1168A334001E0A1
:1021D000968A33400C12012606FA04F4168834401D
:1021E00013B10CB1012000E0002070BD10B5002239
:1021F000002340F66A14A14200D100BF0A12012454
:102200009440A3B2DC43048010BD000000380140BC
:102210000044004000480040004C00400050004096
:102220000948804709480047FEE7FEE7FEE7FEE76A
:10223000FEE7FEE7FEE7FEE7FEE7FEE704480549A6
:10224000054A064B70470000CF0200083101000824
:10225000E8040020E80A0020E8060020E806002044
:1022600010B500F00BFA00F0B3F800F0BBFD00F081
:1022700065FE01F0C2F87F2001F037F900F079FA2D
:10228000002000F097FB414802F03DFE02F0A0FF65
:1022900010BDFFF7E5FF77E03DA300221146104691
:1022A00001F004FB3CA300220A21104601F0FEFAD3
:1022B0003BA300221421104601F0F8FA3AA30022B1
:1022C0001E21104601F0F2FA002002F0C6FF384944
:1022D0000880012002F0C1FF36490880022002F088
:1022E000BCFF354908803248008805F0CDFF05461F
:1022F0004FF08B4105F0EAFE0446304905F0D8FF67
:102300002F4908602B48008805F0BEFF05464FF0B6
:102310008B4105F0DBFE0446284905F0C9FF28493A
:1023200048602548008805F0AFFF05464FF08B4117
:1023300005F0CCFE0446214905F0BAFF204988602B
:10234000084600220A210368282001F04EFB1C48A1
:10235000002214214368282001F047FB184800227E
:102360001E218368282001F040FB164A16491448B4
:1023700002F08EFF1548007830B10D21124802F0AE
:1023800005FD00201149087086E700002E0000209E
:102390005458446174613A00426173653A20000008
:1023A0004C696E6B313A00004C696E6B323A00003A
:1023B000280000202A0000202C00002000003443C8
:1023C0005C0000206800002074000020360000201F
:1023D00008B54FF4C060FDF7FBFF19208DF8000031
:1023E00000208DF8010001208DF802008DF8030017
:1023F0006846FDF7F2FF4FF4C060FDF7E9FF1C20CF
:102400008DF8000000208DF8010002208DF80200F8
:1024100001208DF803006846FDF7DFFF4FF4C06030
:10242000FDF7D6FF1D208DF8000000208DF801007B
:1024300003208DF8020001208DF803006846FDF7A7
:10244000CCFF4FF4C060FDF7C3FF1E208DF80000E5
:1024500000208DF8010004208DF8020001208DF885
:1024600003006846FDF7B9FF4FF4C060FDF7B0FF09
:1024700032208DF8000000208DF8010005208DF835
:10248000020001208DF803006846FDF7A6FF4FF417
:10249000C060FDF79DFF36208DF8000000208DF80C
:1024A000010006208DF8020001208DF80300684627
:1024B000FDF793FF4FF4C060FDF78AFF37208DF8DA
:1024C000000000208DF8010007208DF80200012097
:1024D0008DF803006846FDF780FF4FF4C060FDF7FC
:1024E00077FF2C208DF8000001208DF801000020DE
:1024F0008DF8020001208DF803006846FDF76DFF9E
:102500004FF4A060FDF764FF25208DF80000002047
:102510008DF801008DF8020001208DF80300684657
:10252000FDF75BFF4FF4A060FDF752FF26208DF80A
:10253000000000208DF8010001208DF802008DF8C8
:1025400003006846FDF749FF4FF4A060FDF740FF28
:1025500027208DF8000000208DF8010002208DF862
:10256000020001208DF803006846FDF736FF4FF4A6
:10257000A060FDF72DFF34208DF8000000208DF8BD
:10258000010003208DF8020001208DF80300684649
:10259000FDF723FF4FF4A060FDF71AFF07208DF829
:1025A000000001208DF8010000208DF802000120BC
:1025B0008DF803006846FDF710FF4FF4A060FDF7AB
:1025C00007FF06208DF8000001208DF801008DF82E
:1025D00002008DF803006846FDF7FFFE4FF4A0608F
:1025E000FDF7F6FE17208DF8000001208DF80100A0
:1025F00002208DF8020001208DF803006846FDF7E7
:10260000ECFE4FF4A060FDF7E3FE28208DF80000FB
:1026100001208DF8010003208DF8020001208DF8C3
:1026200003006846FDF7D9FE08BD10B501218807F3
:10263000FFF7C6F90F480088401C0E49088008467D
:102640000088012807D100F066FC002009490880B5
:1026500001200949087010BD704700BFFEE700BFA8
:10266000FEE700BFFEE700BFFEE770477047704718
:1026700070470000340000203600002010B5FEF73F
:10268000C3F84FF48030FEF7DFF8FEF71CF901289D
:1026900020D10020FEF75DF94FF48060FEF762F96B
:1026A0000020FEF768F94FF4E0114FF48030FEF798
:1026B00033F90120FEF73CF900BF3920FEF7E7F8B7
:1026C0000028FAD00220FEF736F900BFFEF73CF9E9
:1026D0000828FBD110BD014601EBC1024FF0E023F9
:1026E0005A6100229A6101221A6100BF4FF0E02274
:1026F000106900F001021AB100F48032002AF5D00E
:1027000000224FF0E0231A619A61704710B5044629
:1027100003E04FF47A70FFF7DEFF201EA4F10104FE
:10272000F7D110BD4FF6FF7101EA40014FF0804232
:10273000918570470EB501218807FFF741F92320E5
:10274000ADF800000020ADF80200ADF806008DF8ED
:10275000080069464FF08040FEF7FCFA012211465E
:102760009007FEF76EFE00214FF08040FEF74EFE10
:102770000EBD10B501210846FEF7C1F9FFF7DAFFDB
:1027800044F62060FFF7CEFF01218807FEF73EFEEA
:1027900010BD0EB501218048FFF712F92320ADF8D6
:1027A00000000020ADF80200ADF806008DF808002A
:1027B00069467948FEF7CEFA012211467648FEF7BF
:1027C00040FE00217448FEF721FE0EBD0EB501212A
:1027D0007248FFF7F5F82320ADF800000020ADF8AF
:1027E0000200ADF806008DF8080069466B48FEF758
:1027F000B1FA012211466948FEF723FE002167481D
:10280000FEF704FE0EBD0EB501216548FFF7D8F8AE
:102810002320ADF800000020ADF80200ADF806005E
:102820008DF8080069465E48FEF794FA01221146C9
:102830005B48FEF706FE00215948FEF7E7FD0EBD96
:102840000EB501215748FFF7BBF82320ADF8000073
:102850000020ADF80200ADF806008DF808006946CA
:102860005048FEF777FA012211464E48FEF7E9FD7F
:1028700000214C48FEF7CAFD0EBD0EB501214A48A5
:10288000FFF79EF82320ADF800000020ADF802000D
:10289000ADF806008DF8080069464348FEF75AFA7D
:1028A000012211464048FEF7CCFD00213E48FEF7CC
:1028B000ADFD0EBD0EB501213C48FFF781F8232088
:1028C000ADF800000020ADF80200ADF806008DF86C
:1028D000080069463548FEF73DFA012211463348A3
:1028E000FEF7AFFD00213148FEF790FD0EBD0EB59D
:1028F00001212F48FFF764F82320ADF800000020E5
:10290000ADF80200ADF806008DF8080069462848C9
:10291000FEF720FA012211462548FEF792FD00211C
:102920002348FEF773FD0EBD4FF6FF7101EA40012B
:10293000194A2C32118070474FF6FF7101EA4001AD
:10294000164A2C32118070474FF6FF7101EA4001A0
:10295000134A2C32118070474FF6FF7101EA400193
:10296000104A2C32118070474FF6FF7101EA400186
:102970000D4A918570474FF6FF7101EA40010B4AFD
:102980002C32118070474FF6FF7101EA4001084A6E
:102990002C32118070470000002C014000040040E0
:1029A00000080040000C00400010004000140040EF
:1029B0000034014010B586B0044601210846FEF7F8
:1029C00091F801218803FEF78DF814B1012C3ED156
:1029D0001DE001210420FEF785F84FF40070ADF8EA
:1029E000040003208DF8060018208DF8070001A9C7
:1029F000E648FDF7BBFD4FF48060ADF8040004200D
:102A00008DF8070001A9E148FDF7B0FD20E00121A4
:102A10000420FDF77CFE01210820FEF763F840202A
:102A2000ADF8040003208DF8060018208DF807008B
:102A300001A9D748FDF79AFD8020ADF804000420D5
:102A40008DF8070001A9D248FDF790FD00E000BF16
:102A500000BF4FF4165002900020ADF80C00ADF806
:102A60000E00ADF81000ADF814000C20ADF8120007
:102A700002A9C848FFF713FA012240F22551C548C0
:102A8000FFF7A5FA0121C348FFF795FA4021C14895
:102A9000FFF779FB06B010BD10B586B004460121E2
:102AA0000846FEF71FF801214804FEF728F814B184
:102AB000012C3CD11BE001210420FEF713F8042077
:102AC000ADF8040003208DF8060018208DF80700EB
:102AD00001A9AE48FDF74AFD0820ADF80400042026
:102AE0008DF8070001A9A948FDF740FD20E001216C
:102AF0000820FDF70CFE01212020FDF7F3FF202028
:102B0000ADF8040003208DF8060018208DF80700AA
:102B100001A9A148FDF72AFD4020ADF804000420DA
:102B20008DF8070001A99C48FDF720FD00E000BFDB
:102B300000BF4FF4165002900020ADF80C00ADF825
:102B40000E00ADF81000ADF814000C20ADF8120026
:102B500002A99248FFF7A3F9012240F225518F48BC
:102B6000FFF735FA01218D48FFF725FA40218B4800
:102B7000FFF709FB06B010BD10B586B00446012171
:102B80000846FDF7AFFF01218804FDF7B8FF14B137
:102B9000012C40D11DE001210820FDF7A3FF4FF4D7
:102BA0008060ADF8040003208DF8060018208DF831
:102BB000070001A97648FDF7D9FC4FF40060ADF895
:102BC000040004208DF8070001A97148FDF7CEFC30
:102BD00022E001217248FDF79AFD01211020FDF746
:102BE00081FF4FF48060ADF8040003208DF80600EB
:102BF00018208DF8070001A96A48FDF7B7FC4FF4CB
:102C00000060ADF8040004208DF8070001A96548B4
:102C1000FDF7ACFC00E000BF00BF4FF4165002907F
:102C20000020ADF80C00ADF80E00ADF81000ADF8C6
:102C300014000C20ADF8120002A95B48FFF72FF931
:102C4000012240F225515848FFF7C1F901215648A9
:102C5000FFF7B1F940215448FFF795FA06B010BDCF
:102C600000B585B001210846FDF73CFF0121C804ED
:102C7000FDF745FF01211020FDF734FF4FF4806080
:102C8000ADF8000003208DF8020018208DF8030035
:102C900069464448FDF76AFC4FF40060ADF8000057
:102CA00004208DF8030069463E48FDF75FFC4FF4B1
:102CB000165001900020ADF80800ADF80A00ADF8FC
:102CC0000C00ADF810000C20ADF80E0001A937483B
:102CD000FFF7E5F8012240F225513448FFF777F974
:102CE00001213248FFF767F940213048FFF74BFADE
:102CF00005B000BD00B585B001210846FDF7F2FE24
:102D000001210805FDF7FBFE01211020FDF7EAFE79
:102D10004FF48050ADF8000003208DF80200182019
:102D20008DF8030069461F48FDF720FC0121202093
:102D3000FDF7D8FE0420ADF800008DF803006946C9
:102D40001548FDF713FC4FF4165001900020ADF824
:102D50000800ADF80A00ADF80C00ADF810000C202A
:102D6000ADF80E0001A91248FFF799F8012240F2D0
:102D700025510F48FFF72BF901210D48FFF71BF9EB
:102D800040210B48FFF7FFF905B000BD00080140E6
:102D9000000C014000380140001401400044004094
:102DA000100014000010014000480040004C00409A
:102DB0000050004010B540215F48FDF784FC10BD75
:102DC00010B520215C48FDF77EFC10BD10B5102128
:102DD0005948FDF778FC10BD10B508215648FDF79D
:102DE00072FC10BD08B501210420FDF77BFE012116
:102DF0000420FDF777FE01210420FDF773FE012179
:102E00000420FDF76FFE0820ADF8000003208DF8C8
:102E1000020010208DF8030069464748FDF7A6FB25
:102E20001020ADF8000003208DF8020010208DF86E
:102E3000030069464048FDF799FB2020ADF80000EB
:102E400003208DF8020010208DF8030069463A48EF
:102E5000FDF78CFB4020ADF8000003208DF8020048
:102E600010208DF8030069463348FDF77FFBFFF71C
:102E7000B3FFFFF7ABFFFFF7A3FFFFF79BFF08BD13
:102E800010B508212C48FDF720FC10BD10B510210D
:102E90002948FDF71AFC10BD10B520212648FDF782
:102EA00014FC10BD10B540212348FDF70EFC10BDE9
:102EB00010B508212048FDF7ECFB012804D10821BA
:102EC0001D48FDF702FC03E008211B48FDF7FBFB52
:102ED00010BD10B510211848FDF7DBFB012804D107
:102EE00010211548FDF7F1FB03E010211248FDF712
:102EF000EAFB10BD10B520210F48FDF7CAFB0128E1
:102F000004D120210C48FDF7E0FB03E020210A4812
:102F1000FDF7D9FB10BD10B540210748FDF7B9FBFF
:102F2000012804D140210448FDF7CFFB03E04021F4
:102F30000148FDF7C8FB10BD0008014008B501219C
:102F40000820FDF7CFFD01210820FDF7CBFD012171
:102F50000820FDF7C7FD01210820FDF7C3FD4FF450
:102F60000060ADF8000048208DF8030069469748DE
:102F7000FDF7FCFA4FF48060ADF8000048208DF8B2
:102F8000030069469148FDF7F1FA0220ADF8000010
:102F900048208DF8030069468C48FDF7E7FA0120C8
:102FA000ADF8000048208DF8030069468748FDF71A
:102FB000DDFA08BD10B54FF400618448FDF769FBE8
:102FC00010BD10B54FF480618048FDF762FB10BD65
:102FD00010B502217D48FDF75CFB10BD10B5012145
:102FE0007A48FDF756FB10BD10B5002078490870EF
:102FF000FFF7E0FF88B977480068401C7549086012
:103000000846006845F6D811884209D90120704960
:10301000087000206F49086002E000206D490860D8
:10302000FFF7CFFF88B96C480068401C6A49086008
:103030000846006845F6D811884209D9022064493B
:10304000087000206449086002E0002062490860BE
:10305000FFF7BEFF88B961480068401C5F490860FF
:103060000846006845F6D811884209D90320584916
:10307000087000205949086002E0002057490860A4
:10308000FFF7ACFF88B956480068401C54490860F7
:103090000846006845F6D811884209D904204C49F1
:1030A000087000204E49086002E000204C4908608A
:1030B0004748007810BD2DE9F0414FF00008FFF7B8
:1030C00079FF0446FFF77DFF0546FFF781FF0646BF
:1030D000FFF784FF07464348007820B1012807D056
:1030E000032815D10FE014B901203E4908700FE004
:1030F0002CB94FF0010803203A49087002E0002083
:103100003849087004E014B100203649087000BF47
:1031100000BF3548007820B1012807D0032815D119
:103120000FE015B90120304908700FE02DB94FF0BC
:10313000020803202C49087002E000202A49087088
:1031400004E015B100202849087000BF00BF2748DF
:10315000007820B1012807D0032815D10FE016B957
:103160000120224908700FE02EB94FF00308032018
:103170001E49087002E000201C49087004E016B1E6
:1031800000201A49087000BF00BF1948007820B11C
:10319000012807D0032815D10FE017B901201449E1
:1031A00008700FE02FB94FF0040803201049087091
:1031B00002E000200E49087004E017B100200C491D
:1031C000087000BF00BF4046BDE8F081000C014020
:1031D000380000203C000020400000204400002077
:1031E000480000204C0000204D0000204E00002030
:1031F0004F00002008B501210820FDF773FC0121D4
:103200000820FDF76FFC01210820FDF76BFC012170
:103210000820FDF767FC01211020FDF763FC4FF447
:103220008050ADF8000003208DF8020010208DF8CA
:1032300003006946FE48FDF799F94FF48051FC48B8
:10324000FDF741FA4FF40050ADF8000003208DF86F
:10325000020010208DF803006946F548FDF786F955
:103260004FF40051F248FDF72EFA4FF48040ADF8CC
:10327000000003208DF8020010208DF8030069463D
:10328000EB48FDF773F94FF48041E948FDF71BFA6D
:103290004FF40040ADF8000003208DF8020010202C
:1032A0008DF803006946E248FDF760F94FF40041EC
:1032B000DF48FDF708FA4020ADF8000003208DF844
:1032C000020010208DF803006946DA48FDF74EF938
:1032D0004021D848FDF7F7F908BD70B50446002530
:1032E00018E04021D348FDF7F0F904F0800028B140
:1032F0004FF40041CE48FDF7E6F904E04FF40041F9
:10330000CB48FDF7E2F94021CA48FDF7DCF9600639
:10331000040E6D1C082DE4D370BD10B504464FF4A7
:103320008051C348FDF7D1F94FF40051C048FDF773
:10333000CCF92046FFF7D1FF4FF48051BC48FDF790
:10334000C2F910BD10B504464FF48051B848FDF7DE
:10335000BCF94FF40051B648FDF7B5F92046FFF728
:10336000BCFF4FF48051B248FDF7ADF910BD70B508
:1033700004460D4605F1B001C8B2FFF7CEFF10219B
:1033800001EB1410FFF7C9FF04F00F00FFF7C5FFB2
:1033900070BD70B500210846FFF7E9FF002411E079
:1033A00000250BE021462846FFF7E1FFA24901EB8B
:1033B000C411485DFFF7C6FF681CC5B2802DF1DB64
:1033C000601CC4B2082CEBDB70BD00200CE00021B7
:1033D00006E00022984B03EBC0135A544A1CD1B2AA
:1033E0008029F6DB421CD0B20828F0DB704710B50C
:1033F000FFF7EBFFFFF7CDFF10BD10B5FFF7FAFEAB
:103400004FF480418A48FDF75EF90A20FFF77EF904
:103410004FF480418648FDF758F90A20FFF776F906
:103420004FF480418248FDF74EF90A20FFF76EF90C
:10343000AE20FFF772FF0220FFF76FFF1020FFF7AB
:103440006CFF4020FFF769FF8120FFF766FFCF2068
:10345000FFF763FFA120FFF760FFC820FFF75DFFC4
:10346000A620FFF75AFFA820FFF757FF3F20FFF7DE
:1034700054FF8120FFF751FFFF20FFF74EFFD320BD
:10348000FFF74BFF0020FFF748FFD520FFF745FF70
:103490008020FFF742FFD920FFF73FFFF120FFF721
:1034A0003CFFDA20FFF739FF1220FFF736FFDB2061
:1034B000FFF733FF4020FFF730FF2020FFF72DFFFD
:1034C0000220FFF72AFF8D20FFF727FF1420FFF7C8
:1034D00024FFA420FFF721FFA620FFF71EFFAF2047
:1034E000FFF71BFFFFF783FF10BD10B504468120D7
:1034F000FFF713FF2046FFF710FF10BD402900DB48
:103500000021802800DB00204C4A51701070704769
:103510002DE9FC5F06460C4691469A462046E11787
:1035200004EB5171C1F3C70BB04604EB0A01481E0E
:10353000C11700EB5171C1F3C701019106EB0900FE
:10354000401EC0B200905D4612E029464046FFF79B
:103550000EFF474607E0384901EBC511C85DFFF78C
:10356000F1FE781CC7B200988742F4DD681CC5B232
:1035700001988542E9DDBDE8FC9F70B504460D4623
:1035800029462046FFF7BAFF2C494878C11700EBBF
:103590005171CB1029494878C11700EB5171C910FE
:1035A000A0EBC101CEB2244800EBC3102349097837
:1035B000405C0121B14088431F4901EBC3111F4A00
:1035C0001278885470BD30B501461C4C6378DC1706
:1035D00003EB5474E010194C6378DC1703EB54745C
:1035E000E410A3EBC404E2B2134B03EBC013134C7F
:1035F00024781B5D01FA02F423430F4C04EBC01442
:103600000E4D2D78635592B10B4C431C04EBC31344
:103610000A4C24781B5DC2F1080441FA04F42343E8
:10362000054D441C05EBC414044D2D78635507E08B
:10363000000C0140001001408100002050000020DB
:10364000FB4B1B78802B0DDB0023F94C23702346AA
:103650005B780833637023465B78402B07DB0023DD
:10366000637004E0F24B1B785B1CF14C237030BD9F
:1036700070B50346EE4D6C78E51704EB5575EA100E
:10368000EB4D6C78E51704EB5575ED10A4EBC50513
:10369000E9B203FA01F4E0B2C443E0B2084100FA2F
:1036A00001F4E0B2E34C04EBC214E14D2D78645D0B
:1036B0000443E04D05EBC215DD4E3678AC55E1B163
:1036C000C1F1080443FA04F0C443E0B2C1F10804B4
:1036D00000FA04F4E0B2C1F108042041D54D541CB5
:1036E00005EBC414D24D2D78645D0443D14E551CB6
:1036F00006EBC515CE4E3678AC55CD4C2478802CD3
:103700000DDB0024CA4D2C702C46647808346C7094
:103710002C466478402C07DB00246C7004E0C44C19
:103720002478641CC24D2C7070BD2DE9F043044612
:103730000D4616461F46E819C7B23019C6B2A9464B
:103740000FE0A04607E049464046FFF716FF08F1A4
:10375000010000F0FF08B045F5DB09F1010000F0C1
:10376000FF09B945EDDBBDE8F0832DE9F0410446E2
:103770000D4616461F463B46324629462046FFF771
:10378000D4FF3B46324629462046FFF7C1FEBDE83E
:10379000F08130B5054600240BE0A5F1200101EBD6
:1037A0004101A54A02EB4101085DFFF70CFF601CD7
:1037B000C4B2062CF1DB30BD30B5054600240DE067
:1037C000A5F1200101EB41019B4A02EB4101095D9A
:1037D000C943C8B2FFF7F7FE601CC4B2062CEFDB8A
:1037E00030BD70B505460E46144631462846FFF7F3
:1037F00085FE8F480078914908708D484078487060
:103800002046FFF7C6FF8D4A51781078082306221C
:10381000FFF77EFE70BD2DE9F04106460F461446C7
:103820001D4639463046FFF769FE814800788349D6
:1038300008707F48407848700A465178107808230D
:103840000622FFF772FF39463046FFF757FE1CB1DC
:103850002846FFF7B1FF02E02846FFF79AFF774AB4
:103860005178107808230622FFF752FEBDE8F08158
:1038700030B50446002505E014F8010BFFF789FF79
:10388000681CC5B220780028F6D1284630BD30B576
:103890000446002505E014F8010BFFF78DFF681CB6
:1038A000C5B220780028F6D1284630BD2DE9F04772
:1038B00081468A4615461E4651464846FFF71EFE7B
:1038C0005B4800785D49087059484078487025B1D8
:1038D0003046FFF7DCFF044603E03046FFF7C8FF41
:1038E00004464FF0080804EB44004006070E534A14
:1038F0005178107843463A46FFF70AFE2046BDE865
:10390000F0872DE9F0410546494800784B49087099
:103910004748407848702846FFF7B9FF0446082713
:1039200004EB44004006060E444A517810783B46AA
:103930003246FFF7EDFD2046BDE8F0812DE9FC4160
:1039400005460E4617461C4622463DA1684601F034
:1039500075FE804608EB48004006020E08233146FB
:103960002846FFF7E2FE6B463A4631462846FFF707
:103970009DFFBDE8FC812DE9FC4105460E4617463A
:103980001C46224630A1684601F058FE804608EBEE
:1039900048004006020E082331462846FFF7C5FEC0
:1039A0006B463A4631462846FFF780FFBDE8FC816A
:1039B0002DE9F84305460E4617461C46224624A12B
:1039C000684601F03BFE804608EB48004006020EC8
:1039D000082331462846FFF7A8FE6B463A46314693
:1039E0002846FFF763FFBDE8F8832DE9FE4F054643
:1039F0000E4691461C46204604F0DAFA07463A463F
:103A00000B4615A1684601F019FE82460AEB4A00F2
:103A10004006020E082331462846FFF786FE6B4615
:103A20004A4631462846FFF741FFBDE8FE8F0000B9
:103A3000500000208100002026860008520000204F
:103A4000253034640000000025303278000000008A
:103A500025303264000000002530342E316600002D
:103A60002DE9F84305460E4617461C462246AFF29E
:103A70002801684601F0E2FD804608EB4800400658
:103A8000020E082331462846FFF74FFE6B463A46A2
:103A900031462846FFF70AFFBDE8F88330B50546F2
:103AA000002409E0A5F12001F64A02EB0111085DAE
:103AB000FFF789FD601CC4B2082CF3DBF2480078E4
:103AC0000838F149087008464078083048700824E2
:103AD00009E0A5F12001EB4A02EB0111085DFFF7B7
:103AE00072FD601CC4B2102CF3DB30BD30B505464E
:103AF00000240BE0A5F12001E24A02EB0111095D6F
:103B0000C943C8B2FFF75FFD601CC4B2082CF1DBEB
:103B1000DD4800780838DC490870084640780830ED
:103B2000487008240DE0A5F12001D64A02EB0111EE
:103B3000095D6FEA0111C1F30710FFF744FD601C36
:103B4000C4B2102CEFDB30BD70B505460C46CE4834
:103B50000078CE490870CC48407848701CB128469F
:103B6000FFF7C4FF02E02846FFF798FFC74A5178E5
:103B700010780C230822FFF7CBFC70BD70B504460B
:103B80000D46002610E025B114F8010BFFF7AEFF3B
:103B900003E014F8010BFFF781FFBB4840780838B9
:103BA000B9494870701CC6B220780028EBD1304665
:103BB00070BD70B504460D46002600BF10E025B16B
:103BC00014F8010BFFF792FF03E014F8010BFFF765
:103BD00065FFAD4840780838AB494870701CC6B2E4
:103BE000062EECDB70BD2DE9F04106460F4614466B
:103BF0001D4639463046FFF781FCA3480078A349AB
:103C00000870A148407848700A46517810780C2313
:103C10000822FFF78AFD39463046FFF76FFC1CB1DA
:103C20002846FFF763FF02E02846FFF737FF974A71
:103C3000517810780C230822FFF76AFCBDE8F08168
:103C40002DE9F04781468A4615461E4651464846AC
:103C5000FFF754FC8C4800788C4908708A484078FB
:103C600048702DB101213046FFF788FF044604E07B
:103C700000213046FFF782FF04464FF00C08E006B3
:103C8000070E824A5178107843463A46FFF740FCC7
:103C90002046BDE8F0872DE9F04780468946144666
:103CA0001D4649464046FFF729FC7748007877498A
:103CB000087075484078487024B101212846FFF704
:103CC00078FF03E000212846FFF773FF0C2730261A
:103CD0006E4A517810783B463246FFF719FCBDE832
:103CE000F0872DE9FC4105460E4617461C46224644
:103CF000AFF2B421684601F0A1FC00F0FF084FEAE2
:103D0000C860020E0C2331462846FFF70EFD6B46B5
:103D10003A4631462846FFF793FFBDE8FC812DE97E
:103D2000FC4105460E4617461C462246AFF2E021EE
:103D3000684601F083FC00F0FF084FEAC860020EFD
:103D40000C2331462846FFF7F0FC6B463A463146D5
:103D50002846FFF775FFBDE8FC812DE9FC470546C5
:103D60000E4691461C46204604F022F907463A4684
:103D70000B4647A1684601F061FC00F0FF0A4FEADC
:103D8000CA60020E0C2331462846FFF7CEFC6B4674
:103D90004A4631462846FFF753FFBDE8FC872DE928
:103DA000FE4F05460E4691461C46204604F000F99B
:103DB00007463A460B4638A1684601F03FFC00F042
:103DC000FF0A4FEACA60020E0C2331462846FFF76D
:103DD000ACFC6B464A4631462846FFF731FFBDE84A
:103DE000FE8F2DE9FE4305460E4617461C46224629
:103DF0002BA1684601F022FC00F0FF084FEAC860E2
:103E0000020E0C2331462846FFF78FFC6B463A46DC
:103E100031462846FFF714FFBDE8FE832DE9F04147
:103E200080460F4615461E4639464046FFF766FB5C
:103E300000240BE02EB1295DC943C8B2FFF7C3FBD4
:103E400002E0285DFFF7BFFB601CC4B20C2CF1DB65
:103E500007F10800C1B24046FFF750FB0C240DE00B
:103E60003EB1295D6FEA0111C1F30710FFF7ABFB0B
:103E700002E0285DFFF7A7FB601CC4B2182CEFDB43
:103E8000BDE8F08148880008500000205200002062
:103E90002530352E326656002530332E31665600D9
:103EA00025336420250000002DE9F04104460D462D
:103EB00016461F463B46324629462046FFF7AEFFD0
:103EC0000C231A4629462046FFF722FBBDE8F08165
:103ED0002DE9F0470646884617461D46DDF8209036
:103EE00041463046FFF70AFB00240EE004EB440194
:103EF00009EBC10204EB440106EB8101C8B23B4669
:103F00004146FFF78BFF601CC4B2AC42EEDB05EB11
:103F100045008006020E0C2341463046FFF7F8FAB2
:103F2000BDE8F08730B50546002409E0A5F1200181
:103F3000FA4A02EB0111085DFFF745FB601CC4B2B1
:103F4000082CF3DBF64800780838F5490870084675
:103F5000407808304870082409E0A5F12001EF4AB4
:103F600002EB0111085DFFF72EFB601CC4B2102CA0
:103F7000F3DB30BD30B5054600240BE0A5F1200190
:103F8000E64A02EB0111095DC943C8B2FFF71BFB0A
:103F9000601CC4B2082CF1DBE14800780838E04925
:103FA0000870084640780830487008240BE0A5F1F6
:103FB0002001DA4A02EB0111095DC943C8B2FFF7DB
:103FC00002FB601CC4B2102CF1DB30BD70B505469D
:103FD0000C46D3480078D3490870D14840784870DF
:103FE0001CB12846FFF7C6FF02E02846FFF79AFFFC
:103FF000CC4A5178107810230822FFF789FA70BD57
:1040000070B504460D46002610E025B114F8010BEA
:10401000FFF7B0FF03E014F8010BFFF783FFC04880
:1040200040780838BE494870701CC6B22078002815
:10403000EBD1304670BD2DE9F04781468A461546E2
:104040001E4651464846FFF759FAB5480078B5492B
:104050000870B348407848702DB101213046FFF711
:10406000CFFF044604E000213046FFF7C9FF0446B5
:104070004FF01008E006070EAA4A51781078434620
:104080003A46FFF745FA2046BDE8F0872DE9FC41A6
:1040900005460E4617461C462246AFF25C6168464E
:1040A00001F0CCFA00F0FF084FEAC860020E1023BE
:1040B00031462846FFF739FB6B463A4631462846DB
:1040C000FFF7B9FFBDE8FC812DE9FE4F05460E461E
:1040D00091461C46204603F06BFF07463A460B46C6
:1040E000AFF25421684601F0A9FA00F0FF0A4FEA46
:1040F000CA60020E102331462846FFF716FB6B46B6
:104100004A4631462846FFF796FFBDE8FE8F2DE967
:10411000F04180460F4615461E4639464046FFF799
:10412000EDF900240BE02EB1295DC943C8B2FFF7B9
:104130004AFA02E0285DFFF746FA601CC4B2102C70
:10414000F1DB07F10800C1B24046FFF7D7F91024B0
:104150000BE02EB1295DC943C8B2FFF734FA02E083
:10416000285DFFF730FA601CC4B2202CF1DBBDE8FB
:10417000F0812DE9F04104460D4616461F463B46A8
:10418000324629462046FFF7C2FF10231A46294629
:104190002046FFF7BDF9BDE8F0812DE9F04706465E
:1041A000884617461D46DDF8209041463046FFF709
:1041B000A5F900240AE009EB441206EB0411C8B289
:1041C0003B464146FFF7A3FF601CC4B2AC42F2DBA2
:1041D0002807020E102341463046FFF799F9BDE843
:1041E000F0870146802902DB4842C0B2704708468A
:1041F000FCE702780B7803700A70704730B50A4606
:10420000CD1701EB5575C5F3C703CD1701EB5575F8
:10421000ED10A1EBC505ECB2434A02EBC312125CF0
:104220000125A5402A43404D05EBC3152A5430BD56
:1042300070B504460D4629462046FFF7DFFF0823E8
:10424000012229462046FFF763F970BD02468A42E3
:1042500001DC104670470846FCE702468A4201D15D
:1042600000207047914201DD0120FAE74FF0FF3056
:10427000F7E72DE9F04304460D4616461F46E819B8
:10428000C7B23019C6B2A9460FE0A04607E04946BA
:104290004046FFF7B3FF08F1010000F0FF08B0450A
:1042A000F5DB09F1010000F0FF09B945EDDBBDE8E0
:1042B000F0832DE9FF4F82B005460C469146A9EBED
:1042C0000501C8B2FFF78DFF01900599091BC8B21F
:1042D000FFF787FF00909DF800009DF804108842CA
:1042E00005DD0126694601A8FFF783FF00E00026EF
:1042F00049462846FFF7B1FF834620460599FFF758
:10430000ACFF07469DF80400C0F101019DF80000D4
:1043100088400FFA80F84FF0000A2CE0488E000821
:104320005000002052000020810000202146284635
:10433000FFF764FFB8F1000F0CDB1EB105EB0B00BB
:10434000C5B201E0E019C4B29DF80400A8EB40003A
:104350000FFA80F816B1E019C4B202E005EB0B00C9
:10436000C5B29DF8000008EB40000FFA80F80AF192
:10437000010000F0FF0A9DF804008245D6DD06B07A
:10438000BDE8F08F2DE9F05F07460C4615461E4646
:10439000E91BC8B2FFF725FF401C00F0FF08311BE6
:1043A000C8B2FFF71EFF401C00F0FF09294638463F
:1043B000FFF74CFF824631462046FFF747FF834612
:1043C00033462A4621463846FFF773FF4B4642469E
:1043D00059465046FFF79CF8BDE8F09F2DE9F041A3
:1043E00005460E4600240FE0671C05EB47077B7867
:1043F000671C15F8172005EB4407797815F81400A9
:10440000FFF757FF601CC4B2B442EDDBFEF7C1FFFB
:10441000BDE8F0812DE9F04104460D4616461F46E1
:10442000DDF818807F2C00DD7F243F2D00DD3F2547
:10443000B8F1000F05D03B46324629462046FFF72B
:1044400018FFA019C2B22B4629462046FFF731FFBC
:10445000E919CBB2A119CAB2A119C8B22946FFF70E
:1044600028FFE819C3B2224629462046FFF721FF5C
:10447000E819C3B2A019C2B2E819C1B22046FFF7C9
:1044800018FF781CC3B2701CC2B229462046FFF741
:104490003FF8BDE8F0812DE9F04706460F4690460B
:1044A000002445460520A0EB880944E07A19D1B2E2
:1044B0003219D0B2FFF7A2FE7A1BD1B23219D0B2B4
:1044C000FFF79CFE7A19D1B2321BD0B2FFF796FEED
:1044D0007A1BD1B2321BD0B2FFF790FE3A19D1B29B
:1044E0007219D0B2FFF78AFE3A1BD1B27219D0B25C
:1044F000FFF784FE3A19D1B2721BD0B2FFF77EFEED
:104500003A1BD1B2721BD0B2FFF778FE601CC4B266
:10451000B9F1000F06DA0C2000EBC40048440FFA92
:1045200080F908E0681EC5B2E000A0EBC5001430B9
:1045300048440FFA80F9AC42B8DD4FF0010C0CEBA7
:10454000480C0CF0FF034FF0010C0CEB480C0CF086
:10455000FF02A7EB080C0CF0FF01A6EB080C0CF017
:10456000FF00FEF7D5FFBDE8F0872DE9FF4F83B0D0
:104570000F4690461E46DDF844904FF0000AFF209B
:104580000190701EC11700EB5171C910491C01F058
:10459000FF0B3046F11706EB5171C910A6EBC101B4
:1045A000C9B20291DDE901018840C0B201901098C2
:1045B00000284ED00298002831D0002414E007EBE8
:1045C000C400C1B20398FEF799FF002508E05146E8
:1045D0000AF1010A19F80100FFF74AF8681CC5B290
:1045E0004545F4DB601CC4B2ABF10100A042E6DC3F
:1045F00007EBC000C1B20398FEF780FF00250BE077
:1046000051460AF1010A19F80110019A41EA020023
:10461000FFF72EF8681CC5B24545F1DB32E00024F7
:1046200014E007EBC400C1B20398FEF767FF002552
:1046300008E051460AF1010A19F80100FFF718F8DD
:10464000681CC5B24545F4DB601CC4B25C45E8DBC0
:1046500018E0002414E007EBC400C1B20398FEF791
:104660004DFF002508E051460AF1010A19F8010042
:10467000FEF7A9FF681CC5B24545F4DB601CC4B257
:104680005C45E8DB3346424639460398FEF740FF77
:1046900007B0BDE8F08F2DE9F04F8DB08046894618
:1046A00017461D46DDF858A09AFBF7F00C909AFBD0
:1046B000F5FB1798002845D0002438E0189803F03F
:1046C00077FCCDE906010C9803F0DEFD0190204651
:1046D00003F0DAFD0090019903F0EAFD4FF0884104
:1046E000029003F0F3FC039003F062FCCDE90401B7
:1046F000DDE9062302F04AF900224FF08143CDE9BB
:10470000080103F045F9CDE90A0103F0ADF80646CA
:10471000B6FBFBF6AE4200D92E46A9EB0602D1B29B
:1047200008EB0402D0B2FFF769FD601CC4B2BC42C2
:10473000C4DBA9EB0500C1B22B463A464046FEF762
:10474000E7FE44E0002438E0189803F031FCCDE99E
:1047500006010C9803F098FD0190204603F094FDAB
:104760000090019903F0A4FD4FF08841029003F0FE
:10477000ADFC039003F01CFCCDE90401DDE9062348
:1047800002F004F900224FF08143CDE9080103F063
:10479000FFF8CDE90A0103F067F80646B6FBFBF621
:1047A000AE4200D92E4609EB0602D1B2A8EB0402B4
:1047B000D0B2FFF723FD601CC4B2BC42C4DBA8EB3F
:1047C0000701C8B22B463A464946FEF7A1FE0DB096
:1047D000BDE8F08F2DE9F04F95B081460E461746A3
:1047E0001C46DDF878A09AFBF7F013909AFBF4F0E2
:1047F0001290002557E04FF07E50209903F024FEE0
:104800004FF088410B9003F053FD834603F0D0FB3B
:10481000CDE90E011F9803F0CBFBCDE906011398FB
:1048200003F032FD0290284603F02EFD019002991C
:1048300003F03EFD4FF08941039003F047FC8346AF
:1048400003F0B6FBCDE90401DDE9062302F09EF892
:10485000CDE90A014FF08940209903F029FD8346F4
:1048600003F0A6FBCDE90801DDE90A2303F090F887
:10487000CDE90C01DDE90E2302F0E2FDCDE91001E6
:1048800002F0F2FF80461298B8FBF0F8A04500D97C
:10489000A046A6EB0802D1B209EB0502D0B2FFF7A1
:1048A000ADFC681CC5B2BD42A5DB301BC1B22346BE
:1048B0003A464846FEF72CFE15B0BDE8F08F0000E2
:1048C00008B501210420FCF70DF94FF40060ADF8A4
:1048D000000003208DF8020010208DF803006946C7
:1048E000FE48FBF743FE01210420FCF7FBF84FF4E0
:1048F0008050ADF8000003208DF8020010208DF8E4
:1049000003006946F548FBF731FE01211020FCF752
:10491000E9F84FF40070ADF8000003208DF80200B4
:1049200010208DF803006946ED48FBF71FFE0121BA
:104930001020FCF7D7F88020ADF8000048208DF853
:1049400003006946E648FBF711FE01210420FCF74D
:10495000C9F84FF48070ADF8000003208DF8020014
:1049600010208DF803006946DC48FBF7FFFD0121AC
:104970001020FCF7B7F84FF48070ADF80000482025
:104980008DF803006946D648FBF7F0FD4FF400614F
:10499000D248FBF79AFE4FF48051D048FBF793FEC4
:1049A0004FF40071CE48FBF790FE08BD70B5044689
:1049B000002520E004F0800028B14FF48071C74842
:1049C000FBF781FE04E04FF48071C448FBF77DFEE5
:1049D0004FF40071C248FBF776FE6006040E80219A
:1049E000BF48FBF756FE04434FF40071BC48FBF789
:1049F0006CFE681CC5B2082DDCDB204670BDB948D2
:104A00000078704710B5044644B94FF40061B348CC
:104A1000FBF75BFE0020B349087007E04FF400612C
:104A2000AE48FBF750FE0120AE49087010BD70B5CE
:104A300004464FF48051A948FBF747FE2046FFF794
:104A4000B5FF0020FFF7B2FF05464FF48051A348A1
:104A5000FBF739FE284670BD70B504460D46FFF7DA
:104A6000CEFF06460020FFF7CDFF4FF480519B4854
:104A7000FBF72BFE44F02000FFF798FF2846FFF7D6
:104A800095FF4FF480519548FBF71DFE3046FFF728
:104A9000B9FF70BD2DE9F04105460E461746FFF7F8
:104AA000AEFF80460020FFF7ADFF4FF480518B48EA
:104AB000FBF70BFE45F02000FFF778FF002404E031
:104AC000305DFFF773FF601CC4B2BC42F8DB4FF4EB
:104AD00080518248FBF7F7FD4046FFF793FFBDE8A2
:104AE000F0812DE9F04104460E4617464FF48051FF
:104AF0007A48FBF7EAFD2046FFF758FF002505E05E
:104B00000020FFF753FF7055681CC5B2BD42F7DBAC
:104B10004FF480517148FBF7D6FDBDE8F08110B528
:104B20004FF480516D48FBF7D0FDE120FFF73EFFC9
:104B30004FF480516948FBF7C6FD10BD10B54FF426
:104B400080516648FBF7C1FDE220FFF72FFF4FF4CD
:104B500080516248FBF7B7FD10BD10B54FF480518E
:104B60005E48FBF7B2FDFF20FFF720FF4FF48051B6
:104B70005A48FBF7A8FD10BD10B500240020FFF730
:104B800041FF4FF480515548FBF79FFD0720FFF789
:104B90004EFF044621460720FFF75EFF4FF4805189
:104BA0004E48FBF790FD10BD10B50720FFF73FFF03
:104BB00000F0700010BD70B504460D46052D01DDF6
:104BC000052000E028460646324621461020FFF721
:104BD00061FF70BD2DE9F04104460E461546052DD6
:104BE00001DD052000E028460746052C01DD0520F3
:104BF00000E02046804608F10A01C8B23A46314634
:104C0000FFF748FFBDE8F0812DE9F04105460E466B
:104C1000202E01DD202000E030460746FFF77FFF11
:104C20004FF480512D48FBF750FDA020FFF7BEFE4A
:104C3000002404E0285DFFF7B9FE601CC4B2BC424A
:104C4000F8DB4FF480512548FBF73DFDBDE8F081CE
:104C500010B5FFF735FE0020FFF7D4FE05212248EE
:104C6000FFF7A9FF052220490020FFF7B3FF00212D
:104C70000120FFF7F1FE01210220FFF7EDFE0021E8
:104C80000420FFF7E9FE02210520FFF7E5FE0F21D2
:104C90000620FFF7E1FE14211120FFF7DDFE0E21B3
:104CA0000020FFF7D9FE10BD10B5FFF709FE002068
:104CB000FFF7A8FE05210C48FFF77DFF05220A49F2
:104CC0000020FFF787FF01210846FFF7C5FE0121FD
:104CD0000220FFF7C1FE1A21042007E0000801406E
:104CE000001001405900002054000020FFF7B4FEDE
:104CF00002210520FFF7B0FE0F210620FFF7ACFED2
:104D000014211120FFF7A8FE0E210020FFF7A4FEBA
:104D100010BD70B50446202C01DD202000E02046A7
:104D200005460020FFF76EFE29461120FFF794FE8E
:104D300070BD10B504460020FFF764FE2146052033
:104D4000FFF78AFE10BD10B504460020FFF75AFE9B
:104D500044F008010620FFF77FFE10BD10B50020CB
:104D6000FFF765FE044624F0010421460020FFF70A
:104D700073FE10BD10B50020FFF759FE044644F045
:104D8000010421460020FFF767FE10BD2DE9F04128
:104D900005460E460024202E01DD202000E030468E
:104DA00007460020FFF72EFEFFF7B9FE4FF48051B3
:104DB000EC48FBF78AFCA020FFF7F8FD002404E094
:104DC000285DFFF7F3FD601CC4B2BC42F8DB4FF472
:104DD0008051E448FBF777FC0120FFF713FEC82061
:104DE000FDF779FCBDE8F0812DE9F04105460E465E
:104DF0000024202E01DD202000E030460746002060
:104E0000FFF700FEFFF78BFE4FF48051D548FBF70C
:104E10005CFCA020FFF7CAFD002404E0285DFFF73A
:104E2000C5FD601CC4B2BC42F8DB4FF48051CD48D4
:104E3000FBF749FC0120FFF7E5FDC820FDF74BFC1F
:104E4000BDE8F0812DE9F04105460E46202E01DD3A
:104E5000202000E0304607460020FFF7D3FD4FF446
:104E60008051C048FBF731FC6120FFF79FFD002413
:104E700005E00020FFF79AFD2855601CC4B2BC4233
:104E8000F7DB4FF48051B748FBF71DFCFFF756FEE8
:104E90001420FDF720FCBDE8F0812DE9F041054626
:104EA0000E46202E01DD202000E03046074600207F
:104EB000FFF7A8FD4FF48051AA48FBF706FC6120DC
:104EC000FFF774FD002405E00020FFF76FFD285573
:104ED000601CC4B2BC42F7DB4FF48051A148FBF721
:104EE000F2FBFFF72BFE1420FDF7F5FBBDE8F08188
:104EF00010B50020FFF79BFD2E2801D0012400E013
:104F00000024204610BD10B50446FFF7A1FE2E2157
:104F10000020FFF7A1FD05212046FFF74CFE0522EA
:104F200021460020FFF756FE0D20FFF7F2FE4D2030
:104F3000FFF7FFFE0320FFF706FFFFF70FFF10BD8F
:104F400010B500244FF480718748FBF7A2FB78B9B5
:104F5000FFF72AFE102808D0202802D0402806D1CA
:104F600001E0012403E0022401E0032400BF00E08B
:104F70000024204610BD10B50120FFF743FD10BDF1
:104F800010B586B000200290039004900590052291
:104F900002A91020FFF7A5FD052269460A20FFF7A8
:104FA000A0FD002406E01DF8041002AA601D1154A3
:104FB000601CC4B2052CF6DB0120FFF738FD8DF82C
:104FC00012000220FFF733FD8DF813000420FFF7D5
:104FD0002EFD8DF814000520FFF729FD8DF8150032
:104FE0001120FFF724FD8DF816000020FFF71FFDAC
:104FF0008DF817005DA3002211461046FEF756FCFF
:10500000FFF776FF30B95BA3002211462A20FEF796
:105010004DFC05E059A3002211462A20FEF746FC6C
:1050200058A3002208211046FEF740FC9DF80830E6
:10503000002208212A20FEF79EFC9DF8093000225C
:1050400008213C20FEF797FC9DF80A300022082139
:105050004E20FEF790FC9DF80B30002208216020C6
:10506000FEF789FC9DF80C30002208217220FEF723
:1050700082FC46A3002210211046FEF717FC9DF883
:105080000D30002210212A20FEF775FC9DF80E300D
:10509000002210213C20FEF76EFC9DF80F3000220C
:1050A00010214E20FEF767FC9DF8103000221021E1
:1050B0006020FEF760FC9DF8113000221021722064
:1050C000FEF759FC33A3002218211046FEF7EEFB31
:1050D0009DF81230002218212420FEF74CFC2FA34B
:1050E000002218213620FEF7E1FB9DF81330002244
:1050F00018217220FEF73FFC2BA30022202110462E
:10510000FEF7D4FB9DF81430002220214220FEF748
:1051100032FC28A3002228211046FEF7C7FB9DF889
:105120001530002228212420FEF725FC23A300228D
:1051300028213620FEF7BAFB9DF8163000222821E0
:105140006C20FEF718FC20A3002230211046FEF749
:10515000ADFB9DF81730002230212A20FEF70BFC12
:1051600006B010BD00080140001001405374617486
:1051700075733A004E6F726D616C00004572726F0C
:105180007221000054585F6164643A0052585F61B4
:1051900064643A00454E5F41413A0000454E5F521B
:1051A00058414444523A000053455455505F5245CB
:1051B00054523A0052465F43483A000052585F50FA
:1051C000575F50303A000000434F4E4649473A007F
:1051D00000B587B001214802FBF784FC01210420BF
:1051E000FBF780FC4FF40040FBF7E0FB00208DF85C
:1051F00007000720ADF8040003208DF8060001A980
:105200002148FBF7B3F90020029005904FF460208D
:10521000049000208DF80D008DF80C0001208DF811
:10522000180002A91948FCF7F6FB01211748FCF702
:105230001EFC1648FCF73DFC00BF1448FCF73EFC82
:105240000128FAD01148FCF743FC00BF0F48FCF7D7
:1052500044FC0128FAD007B000BD10B50446052370
:10526000012221460948FCF76EFC01210748FCF7A2
:105270003EFC00BF02210548FCF7AAFD0028F9D03A
:105280000248FCF7C7FC10BD0008014000240140A3
:105290002DE9F04F91B004460D469146206802F08A
:1052A00087FE0746E04AE14B02F070FC13D26068CB
:1052B00002F07EFE0746DC4ADC4B02F067FC0AD2B5
:1052C000E06802F075FE0746D74AD84B02F05EFC54
:1052D00001D231202870206802F06AFE0746D24AC7
:1052E000D24B02F053FC13D2606802F061FE074615
:1052F000CD4ACE4B02F04AFC0AD2E06802F058FEDA
:105300000746C94AC94B02F007FB01D23220287078
:10531000206802F04DFE0746C34AC44B02F036FC3B
:1053200013D2606802F044FE0746BF4ABF4B02F04A
:10533000F3FA0AD2E06802F03BFE0746BA4ABB4BDA
:1053400002F0EAFA01D233202870206802F030FE21
:105350000746B54AB54B02F0DFFA13D2606802F097
:1053600027FE0746B04AB14B02F0D6FA0AD2E068EF
:1053700002F01EFE0746AC4AAC4B02F0CDFA01D259
:1053800034202870206802F013FE0746A64AA74B77
:1053900002F0C2FA13D2606802F00AFE0746A24A7F
:1053A000A24B02F0B9FA0AD2E06802F001FE074609
:1053B0009D4A9E4B02F0EAFB01D2352028702068FE
:1053C00002F0F6FD0746984A984B02F0A5FA13D270
:1053D000606802F0EDFD0746934A944B02F0D6FB5D
:1053E0000AD2E06802F0E4FD07468F4A8F4B02F0D4
:1053F000CDFB01D236202870206802F0D9FD074687
:10540000894A8A4B02F0C2FB13D2606802F0D0FDD9
:105410000746854A854B02F07FFA0AD2E06802F01F
:10542000C7FD0746804A814B02F0B0FB01D237200E
:105430002870206802F0BCFD07467B4A7B4B02F0D7
:105440006BFA13D2606802F0B3FD0746764A774BD9
:1054500002F09CFB0AD2E06802F0AAFD0746724AFD
:10546000724B02F059FA01D238202870002616E05B
:1054700054F826006E4902F01BFF074602F0E8FED2
:105480000EA941F826000EA850F82600002805DADB
:105490000EA850F82600404241F82600761C032E44
:1054A000E6DB00261CE0B00000F1010A13E00EA8C4
:1054B00050F826000A2190FBF1F201FB120B05F8CF
:1054C0000AB00EA850F8260090FBF1F00EA941F8A2
:1054D00026000AF1010AB000001D5045E7DA761CEB
:1054E000032EE0DB2979642201FB02F002F0E9F9E6
:1054F000CDE90A01E97801EB8101480002F0E1F908
:10550000CDE90601A87802F0F3F9CDE90201687847
:1055100002F0EEF90746474A474B02F039FACDE967
:105520000001DDE9022301F08BFFCDE90401DDE993
:10553000062301F085FFCDE90801DDE90A2301F02A
:105540007FFFCDE90C0101F049FFC9F80000297A7D
:10555000642201FB02F002F0B4F9CDE90A01E97915
:1055600001EB8101480002F0ACF9CDE90601A87910
:1055700002F0BEF9CDE90201687902F0B9F90746F7
:105580002C4A2D4B02F004FACDE90001DDE902239B
:1055900001F056FFCDE90401DDE9062301F050FFDB
:1055A000CDE90801DDE90A2301F04AFFCDE90C014C
:1055B00001F014FFC9F80400297B642201FB02F00A
:1055C00002F07FF9CDE90A01E97A01EB8101480097
:1055D00002F077F9CDE90601A87A02F089F9CDE960
:1055E0000201687A02F084F90746124A124B02F06F
:1055F000CFF9CDE90001DDE9022301F021FFCDE97A
:105600000401DDE9062301F01BFFCDE90801DDE916
:105610000A2301F015FFCDE90C0101F0DFFEC9F806
:10562000080011B0BDE8F08F48AFBC9AF2D77A3EBF
:10563000000020419A9999999999B93F0FB41CB5E6
:10564000084B06AA7B4469460090059800F0B3FB1E
:1056500004460020694600F0C1FB20461CBC5DF8F2
:1056600014FB00009507000070B5044685690068CA
:10567000C10601D5302600E02026C00707D070BD46
:10568000D4E9012130469047206A401C20626D1EFB
:10569000F6D570BD70B5044685690078C00707D19E
:1056A00070BDD4E9012120209047206A401C20626F
:1056B0006D1EF6D570BD00002DE9F04106460024B0
:1056C00010687529314616A510D0AFF30080002868
:1056D00002DA404213A507E031688A0701D512A516
:1056E00002E0490704D511A5012401E0AFF30080D1
:1056F00000210A2206F1240709E0B0FBF2FCB0FB0E
:10570000F2F302FB1C00303078541846491C002884
:10571000F3D123462A463046BDE8F04100F0DEB81A
:10572000000000002D0000002B0000002000000001
:1057300070B504460D4621461068AFF300802188FD
:10574000090502D50F4A7A4402E00E4A7A440E3225
:10575000002104F1240305E000F00F060009965D26
:105760005E54491C0028F7D120780023000704D597
:10577000702D02D009B1022311322046BDE87040DD
:1057800000F0ACB8EE3C00002DE9F05F894604461D
:105790004FF0000ADFF824B1FB44C0F820A02046F7
:1057A000E168884700287DD0252806D0D4E901216A
:1057B0009047206A401C2062F1E700255F462046A2
:1057C000E16888472028064607DB312E05D2B81944
:1057D00010F8200C08B10543F1E7A80701D525F022
:1057E0000405C4F81CA00027C4F818A02A2E09D06C
:1057F000304601F0C3F838B304EB8708303EC8F8F0
:10580000186019E059F8041B204604EB87029161E7
:10581000E1688847012F064618D1E069002820DAA0
:1058200025F020051DE0D8F8180000EB800006EBFD
:1058300040003038C8F818002046E168884706461E
:1058400001F09CF80028EED1012F0AD02E2E08D1AD
:105850002046E16888477F1C0646022F45F0200558
:10586000C4DBA069002803DA404245F00105A061CD
:10587000E80701D025F01005A6B1A6F141001928CE
:1058800002D8203645F400654A4631462046256058
:105890004D46FAF787FC60B1012807D0ED1D25F0D1
:1058A000070000E007E000F1080978E705F10409C6
:1058B00075E730467AE7206ABDE8F09FC43C0000F7
:1058C00070477047704710B500F092FA006810BD3D
:1058D00010B5044600F08CFA046010BD2DE9F047C5
:1058E0000D4699469246044600F124080168880650
:1058F00004D5E06921F01001216000E00120A842F8
:1059000001DD471B00E00027A1697A1902EB0900BD
:10591000081AA0612078C00602D42046FFF7A4FE32
:10592000002608E0D4E901211AF806009047206A11
:10593000401C761C20624E45F4DB2078C0060AD558
:105940002046FFF791FE06E0D4E901213020904780
:10595000206A401C2062381EA7F10107F4DC07E032
:10596000D4E9012118F805009047206A401C206204
:10597000281EA5F10105F3DC2046FFF78BFE2078F9
:10598000000602D50220BDE8F0870120FBE7704742
:105990002DE9FF4F0C461E464FF0FF378BB0D2E982
:1059A0000001DDF860800A908A46C1F30A5505B906
:1059B0003D46002108464FF00000BAF1000F00F408
:1059C000400005DA00EB80004FF4400101EA50008E
:1059D0004FEA9059B9F1010F00DDB9460A9850EA33
:1059E0004A000ED044F61050A5F2FF3545432F145F
:1059F000B8F1000F1ED07542291E1EDDC9F100024C
:105A00001CE0B8F1010F4FF0000001D0302103E09D
:105A1000F24305E02154401CB042FBDB304600223B
:105A2000002121540B99C1F80880C1E900200FB072
:105A3000BDE8F08FBD1B6D1CDEE74A4600DA694207
:105A400006A800F05FFA06AB93E8070003AB83E813
:105A5000070050460A9900F040FB8DE80700A0F5CA
:105A600000501F3800900398002D0ADD42F21F01FC
:105A70004A460844002303A90390684600F0A9FDA4
:105A800009E0A0F500504A461F38002303A90390FF
:105A9000684600F0B3FD8DE807000004000C03D059
:105AA0004FF0FF30410800E01046B8F1000F03D07E
:105AB0000022009215461EE0751E05D400F09CF9E8
:105AC000303262556D1EF9D5B3460122084302D02B
:105AD00000227F1C04E02078302801D100227F1EA4
