:020000040800F2
:10000000C8080020151F0008A7050008A90500085A
:10001000AD050008B1050008B505000800000000A6
:10002000000000000000000000000000B90500080A
:10003000BB05000800000000BD050008BF05000862
:100040002F1F00082F1F00082F1F00082F1F000858
:100050002F1F00082F1F00082F1F00082F1F000848
:100060002F1F00082F1F00082F1F00082F1F000838
:100070002F1F00082F1F00082F1F00082F1F000828
:100080002F1F00082F1F00082F1F00082F1F000818
:100090002F1F00082F1F00082F1F00082F1F000808
:1000A0002F1F00082F1F00082F1F00082F1F0008F8
:1000B0002F1F00082F1F0008C53F00082F1F000832
:1000C0002F1F00082F1F00082F1F00082F1F0008D8
:1000D0002F1F00088B1E00082F1F00082F1F00086D
:1000E0002F1F00082F1F00082F1F00082F1F0008B8
:1000F0002F1F00082F1F00082F1F00082F1F0008A8
:100100002F1F00082F1F00082F1F00082F1F000897
:100110002F1F00082F1F00082F1F00082F1F000887
:100120002F1F00082F1F00082F1F00082F1F000877
:1001300000F002F800F076F80AA090E8000C824483
:100140008344AAF10107DA4501D100F06BF8AFF260
:10015000090EBAE80F0013F0010F18BFFB1A43F0A5
:100160000103184778720000987200000A444FF0AB
:10017000000C10F8013B13F0070408BF10F8014B06
:100180001D1108BF10F8015B641E05D010F8016B4B
:10019000641E01F8016BF9D113F0080F1EBF10F8AF
:1001A000014BAD1C0C1B09D16D1E58BF01F801CBD2
:1001B000FAD505E014F8016B01F8016B6D1EF9D555
:1001C0009142D6D37047000000230024002500266A
:1001D000103A28BF78C1FBD8520728BF30C148BFAA
:1001E0000B607047662906F03685642904F0D884D0
:1001F000752904F0D584782904F00E85632905F06B
:100200008E80732905F09380002070471FB505F09C
:10021000A5F804000020002105F0F6FDE0601FBDF8
:1002200010B510BD05F09EF91146FFF7EFFF00F085
:1002300009F805F0BCF903B4FFF7F2FF03BC01F0C5
:10024000C9FD00004FF4A06002F008FC01F058FD69
:10025000314801F0CEFD314841684820884700F020
:100260009FFA00F0C5FA01F0EAFC01F0B7FA2C4859
:1002700001F03BF901F070F801F06FF929A20121BA
:10028000084601F00AFC29A20121022001F005FC28
:1002900028A20121032001F000FC28A20121042052
:1002A00001F0FBFB37E001F03DF9022807D100F037
:1002B00055FF1121234801F0B7F801F04EF922490A
:1002C000204801F053F9204808218268012001F0FC
:1002D000F8FB1D4808210268022001F0F2FB1A48D1
:1002E00008214268032001F0ECFB17480821C2688E
:1002F000042001F0E6FB1449086801F073FA124982
:10030000486801F087FA1049886801F09BFA0E49A5
:10031000C86801F0AFFAC6E720A1070088000020F6
:1003200000000020626173653A0000006C696E6B2A
:10033000313A00006C696E6B323A0000636C617791
:100340003A0000007C0100209001002008B54FF425
:10035000C06002F083FB19208DF8000000208DF8AA
:10036000010001208DF802008DF80300684602F0BC
:100370007AFB4FF4C06002F071FB1C208DF8000086
:1003800000208DF8010002208DF8020001208DF878
:100390000300684602F067FB4FF4C06002F05EFBAA
:1003A0001D208DF8000000208DF8010003208DF83D
:1003B000020001208DF80300684602F054FB4FF460
:1003C000C06002F04BFB1E208DF8000000208DF86D
:1003D000010004208DF8020001208DF8030068461A
:1003E00002F041FB4FF4C06002F038FB32208DF880
:1003F000000000208DF8010005208DF8020001208A
:100400008DF80300684602F02EFB4FF4C06002F046
:1004100025FB36208DF8000000208DF80100062015
:100420008DF8020001208DF80300684602F01BFBE6
:100430004FF4C06002F012FB37208DF8000000205E
:100440008DF8010007208DF8020001208DF80300CF
:10045000684602F008FB4FF4C06002F0FFFA2C205F
:100460008DF8000001208DF8010000208DF80200B9
:1004700001208DF80300684602F0F5FA4FF4A06001
:1004800002F0ECFA25208DF8000000208DF8010024
:100490008DF8020001208DF80300684602F0E3FAAF
:1004A0004FF4A06002F0DAFA26208DF80000002058
:1004B0008DF8010001208DF802008DF803006846D8
:1004C00002F0D1FA4FF4A06002F0C8FA27208DF8AC
:1004D000000000208DF8010002208DF802000120AC
:1004E0008DF80300684602F0BEFA4FF4A06002F0F7
:1004F000B5FA34208DF8000000208DF801000320AB
:100500008DF8020001208DF80300684602F0ABFA76
:100510004FF4A06002F0A2FA07208DF8000001203D
:100520008DF8010000208DF8020001208DF80300F5
:10053000684602F098FA4FF4A06002F08FFA0620A5
:100540008DF8000001208DF801008DF802008DF873
:100550000300684602F087FA4FF4A06002F07EFACA
:1005600017208DF8000001208DF8010002208DF881
:10057000020001208DF80300684602F074FA4FF47F
:10058000A06002F06BFA28208DF8000001208DF8A1
:10059000010003208DF8020001208DF80300684659
:1005A00002F061FA08BD704700BFFEE700BFFEE73A
:1005B00000BFFEE700BFFEE7704770477047704717
:1005C0000CB50020019000906C48006840F4803029
:1005D0006A49086000BF6948006800F40030009074
:1005E0000198401C0190009818B90198B0F5A06FCF
:1005F000F1D16248006800F4003010B10120009091
:1006000001E0002000900098012843D15C48006878
:1006100040F010005A4908600846006820F00300C6
:1006200008600846006840F00200086053484068CF
:10063000524948600846406848600846406840F4AF
:10064000806048600846406820F47C104860084696
:10065000406840F4E81048600846006840F0807048
:10066000086000BF4548006800F000700028F9D01D
:100670004248406820F0030040494860084640680E
:1006800040F00200486000BF3C48406800F00C00A9
:100690000828F9D10CBD10B5FFF792FF10BD10B5B9
:1006A0003648006840F00100344908600846406858
:1006B00034490840314948600846006832490840DA
:1006C0002E4908600846006820F48020086008462B
:1006D000406820F4FE0048604FF41F008860FFF778
:1006E000DAFF4FF000602949086010BD10B5002105
:1006F00000200022214B5B6803F00C0121B104298A
:1007000006D0082928D107E0214B224C236027E09E
:100710001F4B204C236023E0184B5B6803F47010E0
:10072000164B5B6803F48032022303EB904022B93E
:10073000194B4343174C23600DE0104B5B6803F4E7
:10074000003323B1144B4343124C236003E0104B9E
:100750004343104C236003E00D4B0E4C236000BF5D
:1007600000BF064B5B68C3F303130C4CE15C094B01
:100770001B68CB40074C236010BD000000100240F6
:10078000002002400000FFF8FFFFF6FE08ED00E049
:1007900000127A000800002000093D000C00002033
:1007A00008B50121242001F0F1FE4FF48070ADF86E
:1007B000000010208DF8030003208DF80200694628
:1007C000094801F027FC4FF48071074801F0CFFC85
:1007D0000420ADF800006946044801F01BFC042128
:1007E000024801F0C4FC08BD0008014000140140AB
:1007F00008B50121142001F0C9FE0121374801F09C
:10080000DAFC4FF40040ADF8000048208DF80300FA
:100810006946334801F0FEFB2020ADF80000482077
:100820008DF8030069462F4801F0F4FB0120ADF874
:10083000000028208DF803006946294801F0EAFBF2
:1008400008BD10B5044614B1012027490870264898
:10085000007868B32021234801F06FFC58B14FF4B1
:1008600000411F4801F069FC28B101211C4801F03A
:1008700064FC01281CD10A2001F07FFA00201A49EB
:1008800008702021174801F058FC08B9012010BD5C
:100890004FF40041124801F050FC08B90220F6E77D
:1008A00001210F4801F049FC012815D10320EEE792
:1008B00020210C4801F041FC01280DD1C10308485A
:1008C00001F03BFC012807D10121054801F035FC6E
:1008D00010B90120044908700020D8E70002300058
:1008E00000080140001001401C00002010B502204B
:1008F00001F01FFA10BD08B50121102001F046FEDD
:100900004FF4C050ADF8000010208DF80300032014
:100910008DF802006946864801F07CFB4FF4C05117
:10092000834801F024FC08BD10B58148406820F4DC
:1009300070407F4948600846406840F44050486035
:1009400001207C4908607C49C1F8B001FFF7CEFF67
:10095000002078490860FFF7C9FF00207649C1F8F8
:10096000B00110BD10B57248406820F47040704965
:1009700048600846406840F44050486000206D4997
:10098000091D08606C49C1F8AC01FFF7AFFF0120F9
:100990006849091D08606849C1F8AC01FFF7A6FF66
:1009A00010BD10B500246248406820F470406049D2
:1009B00048600846406840F40040486001205D49B6
:1009C0000860FFF793FF01205B49C1F8B001FFF712
:1009D0008DFF07E0601CC4B2FA2C03DDFFF7C2FFF5
:1009E000012010BD5348803800680028F2D15149D9
:1009F000091D086000BFF4E710B500204D49091D2E
:100A000008604B48406820F47040494948600846F7
:100A1000406840F44050486000204749C1F8AC01AC
:100A2000FFF764FF01204349091D0860FFF75EFFDF
:100A300000204149C1F8B00110BD10B500203D496A
:100A4000091D08603A48406820F470403849486001
:100A50000846406840F44050486001203649C1F8DB
:100A6000AC01FFF743FF01203249091D0860FFF781
:100A70003DFF00203049C1F8B00110BD70B50446FB
:100A80002B48406820F47040294948600846406877
:100A900040F44050486000202649091D08600025A8
:100AA00012E0E009234908606006040E0120224993
:100AB000C1F8B001FFF71AFF00201E49091D0860A8
:100AC000FFF714FF681CC5B2082DEADB70BD70B5D6
:100AD000054600241648406820F4704014494860D8
:100AE0000846406840F400404860002615E00020B9
:100AF0001049091D0860FFF7F9FE01200E49C1F8F1
:100B0000B0016006040E0B488038006808B1601C14
:100B1000C4B2FFF7EBFE701CC6B2082EE7DB15B9B6
:100B2000FFF78BFF01E0FFF767FF204670BD000075
:100B300000100140AC0122420000224270B505467F
:100B40000C46FFF7F1FED020FFF798FFFFF729FFD3
:100B500018B1FFF707FF012070BD2846FFF78EFF91
:100B6000FFF71FFF2046FFF789FFFFF71AFF18B1B5
:100B7000FFF7F8FE0120EFE7FFF7F4FE0020EBE7B8
:100B800070B504460025BC2C01DB012510E0622C69
:100B900001DB02250CE02A2C01DB032508E0142CE4
:100BA00001DB042504E00A2C01DB052500E0062515
:100BB00029461A20FFF7C2FF70BD70B50446B4F590
:100BC0007A7F01DD4FF47A74042C00DA04244FF4A8
:100BD0007A7090FBF4F0401EC5B229461920FFF749
:100BE000ADFF0546264604EBD671C1F34F00FFF773
:100BF000C7FF70BD70B50446FFF796FED020FFF723
:100C00003DFFFFF7CEFE2046FFF738FFFFF7C9FE96
:100C1000FFF78AFED120FFF731FFFFF7C2FE002069
:100C2000FFF755FF0546FFF79DFE284670BD10B53E
:100C30000446E006010E1C20FFF780FF10BD10B532
:100C40000446E006010E1B20FFF778FF10BD10B52B
:100C5000FFF751FE80216B20FFF770FF642001F049
:100C60008CF800216B20FFF769FF0320FFF7E7FFF7
:100C70000020FFF7DCFF3220FFF79FFF0021382024
:100C8000FFF75CFF00216A20FFF758FF00212320B7
:100C9000FFF754FF80213720FFF750FF7520FFF743
:100CA000A9FF0446682C0BD101216B20FFF746FFFA
:100CB00000216C20FFF742FF3220FFF77EFF01E0AA
:100CC000012010BD0020FCE72DE9F04106460F464B
:100CD00014461D46FFF728FE002141EA4601C8B22E
:100CE000FFF7CCFEFFF75DFE20B1FFF73BFE0120D2
:100CF000BDE8F0813846FFF7C1FEFFF752FEFFF76F
:100D000013FE012101EB4601C8B2FFF7B7FEFFF762
:100D100048FE0DE0012C04D10020FFF7D8FE28701A
:100D200003E00120FFF7D3FE2870601EC4B26D1CE3
:100D3000002CEFD1FFF716FE0020D9E72DE9F84F80
:100D40006B46022241216820FFF7BEFF9DF801009B
:100D50009DF8001040EA01200FFA80FA504605F095
:100D60009BFA804600224B4B05F03EF906464A4A64
:100D70004A4B05F091F8044605F05CF88346484973
:100D8000584605F027FE044605F0E8FD00B2BDE830
:100D9000F88F2DE9FC4104460D4616466B460622A7
:100DA00043216820FFF790FF0746BFB99DF8010077
:100DB0009DF8001040EA012000B220809DF8030059
:100DC0009DF8021040EA012000B228809DF805003D
:100DD0009DF8041040EA012000B230803846BDE89A
:100DE000FC812DE9FC4104460D4616466B46062261
:100DF0003B216820FFF768FF0746BFB99DF8010057
:100E00009DF8001040EA012000B220809DF8030008
:100E10009DF8021040EA012000B228809DF80500EC
:100E20009DF8041040EA012000B230803846BDE849
:100E3000FC812DE9F04105460E4617469846FFF71E
:100E400073FD002141EA4501C8B2FFF717FEFFF725
:100E5000A8FD20B1FFF786FD0120BDE8F0813046F6
:100E6000FFF70CFEFFF79DFD00240CE018F80400CE
:100E7000FFF704FEFFF795FD18B1FFF773FD0120A2
:100E8000EBE7601CC4B2BC42F0DBFFF76BFD002057
:100E9000E3E7000000407540A4703D0AD74342409C
:100EA0000000C84208B50121042001F06FFB4FF497
:100EB0000060ADF8000003208DF8020010208DF8CE
:100EC00003006946FE4801F0A5F80121042001F065
:100ED0005DFB4FF48050ADF8000003208DF8020058
:100EE00010208DF803006946F54801F093F80121C0
:100EF000102001F04BFB4FF40070ADF80000032010
:100F00008DF8020010208DF803006946ED4801F0CD
:100F100081F80121102001F039FB8020ADF800009C
:100F200048208DF803006946E64801F073F8012176
:100F3000042001F02BFB4FF48070ADF8000003207B
:100F40008DF8020010208DF803006946DC4801F09E
:100F500061F80121102001F019FB4FF48070ADF809
:100F6000000048208DF803006946D64801F052F889
:100F70004FF40061D24801F0FCF84FF48051D048A2
:100F800001F0F5F84FF40071CE4801F0F2F808BD19
:100F900070B50446002520E004F0800028B14FF42D
:100FA0008071C74801F0E3F804E04FF48071C44851
:100FB00001F0DFF84FF40071C24801F0D8F8600684
:100FC000040E8021BF4801F0B8F804434FF40071CB
:100FD000BC4801F0CEF8681CC5B2082DDCDB204609
:100FE00070BDB9480078704710B5044644B94FF455
:100FF0000061B34801F0BDF80020B349087007E074
:101000004FF40061AE4801F0B2F80120AE4908701B
:1010100010BD70B504464FF48051A94801F0A9F8FD
:101020002046FFF7B5FF0020FFF7B2FF05464FF45B
:101030008051A34801F09BF8284670BD70B5044666
:101040000D46FFF7CEFF06460020FFF7CDFF4FF419
:1010500080519B4801F08DF844F02000FFF798FF85
:101060002846FFF795FF4FF48051954801F07FF82F
:101070003046FFF7B9FF70BD2DE9F04105460E4639
:101080001746FFF7AEFF80460020FFF7ADFF4FF495
:1010900080518B4801F06DF845F02000FFF778FF94
:1010A000002404E0305DFFF773FF601CC4B2BC4253
:1010B000F8DB4FF48051824801F059F84046FFF7C1
:1010C00093FFBDE8F0812DE9F04104460E46174636
:1010D0004FF480517A4801F04CF82046FFF758FF52
:1010E000002505E00020FFF753FF7055681CC5B2CE
:1010F000BD42F7DB4FF48051714801F038F8BDE88C
:10110000F08110B54FF480516D4801F032F8E120C4
:10111000FFF73EFF4FF48051694801F028F810BDF9
:1011200010B54FF48051664801F023F8E220FFF734
:101130002FFF4FF48051624801F019F810BD10B52F
:101140004FF480515E4801F014F8FF20FFF720FFB4
:101150004FF480515A4801F00AF810BD10B5002430
:101160000020FFF741FF4FF48051554801F001F88E
:101170000720FFF74EFF044621460720FFF75EFFDA
:101180004FF480514E4800F0F2FF10BD10B507201B
:10119000FFF73FFF00F0700010BD70B504460D462C
:1011A000052D01DD052000E0284606463246214691
:1011B0001020FFF761FF70BD2DE9F04104460E4697
:1011C0001546052D01DD052000E028460746052CC3
:1011D00001DD052000E02046804608F10A01C8B282
:1011E0003A463146FFF748FFBDE8F0812DE9F0416E
:1011F00005460E46202E01DD202000E03046074641
:10120000FFF77FFF4FF480512D4800F0B2FFA02080
:10121000FFF7BEFE002404E0285DFFF7B9FE601C66
:10122000C4B2BC42F8DB4FF48051254800F09FFF68
:10123000BDE8F08110B5FFF735FE0020FFF7D4FEC2
:1012400005212248FFF7A9FF052220490020FFF7CA
:10125000B3FF00210120FFF7F1FE01210220FFF77B
:10126000EDFE00210420FFF7E9FE02210520FFF733
:10127000E5FE0F210620FFF7E1FE14211120FFF704
:10128000DDFE0E210020FFF7D9FE10BD10B5FFF7DF
:1012900009FE0020FFF7A8FE05210C48FFF77DFF9F
:1012A00005220A490020FFF787FF01210846FFF7C2
:1012B000C5FE01210220FFF7C1FE1A21042007E02C
:1012C0000008014000100140220000201D00002005
:1012D000FFF7B4FE02210520FFF7B0FE0F21062024
:1012E000FFF7ACFE14211120FFF7A8FE0E2100200D
:1012F000FFF7A4FE10BD70B50446202C01DD2020B0
:1013000000E0204605460020FFF76EFE294611202A
:10131000FFF794FE70BD10B504460020FFF764FE91
:1013200021460520FFF78AFE10BD10B504460020B7
:10133000FFF75AFE44F008010620FFF77FFE10BDBC
:1013400010B50020FFF765FE044624F00104214695
:101350000020FFF773FE10BD10B50020FFF759FE07
:10136000044644F0010421460020FFF767FE10BD4B
:101370002DE9F04105460E460024202E01DD2020F7
:1013800000E0304607460020FFF72EFEFFF7B9FECB
:101390004FF48051734800F0ECFEA020FFF7F8FDF9
:1013A000002404E0285DFFF7F3FD601CC4B2BC42DA
:1013B000F8DB4FF480516B4800F0D9FE0120FFF7B5
:1013C00013FEC82000F0B5FCBDE8F0812DE9F04126
:1013D00005460E460024202E01DD202000E0304688
:1013E00007460020FFF700FEFFF78BFE4FF4805109
:1013F0005C4800F0BEFEA020FFF7CAFD002404E018
:10140000285DFFF7C5FD601CC4B2BC42F8DB4FF499
:101410008051544800F0ABFE0120FFF7E5FDC820E5
:1014200000F087FCBDE8F0812DE9F04105460E464D
:10143000202E01DD202000E0304607460020FFF787
:10144000D3FD4FF48051474800F093FE6120FFF731
:101450009FFD002405E00020FFF79AFD2855601C41
:10146000C4B2BC42F7DB4FF480513E4800F07FFE2F
:10147000FFF756FE142000F05CFCBDE8F0812DE97A
:10148000F04105460E46202E01DD202000E03046CA
:1014900007460020FFF7A8FD4FF48051314800F0C7
:1014A00068FE6120FFF774FD002405E00020FFF7CF
:1014B0006FFD2855601CC4B2BC42F7DB4FF480516D
:1014C000284800F054FEFFF72BFE142000F031FCFA
:1014D000BDE8F08110B50020FFF79BFD2E2801D05C
:1014E000012400E00024204610BD10B50446FFF79B
:1014F000A1FE2E210020FFF7A1FD05212046FFF7C8
:101500004CFE052221460020FFF756FE1120FFF772
:10151000F2FE4D20FFF7FFFE0320FFF706FFFFF767
:101520000FFF10BD10B500244FF480710E4800F07D
:1015300004FE78B9FFF72AFE102808D0202802D030
:10154000402806D101E0012403E0022401E0032445
:1015500000BF00E00024204610BD10B50120FFF7B9
:1015600043FD10BD00080140001001402DE9F04787
:1015700094B081468A4603241AE0601C19F80000E2
:1015800010A941F82400601D19F800000CA941F8C9
:10159000240004F1090019F8000008A941F824000A
:1015A00004F10D0019F8000004A941F82400641E9C
:1015B000002CE2DA109804F086FE444A444BCDE950
:1015C000000104F093FE05460E4664221399514330
:1015D000129A02EB820201EB4201119A881804F080
:1015E00072FE07462A46334604F056FCCDE9020156
:1015F00004F020FCCAF800000C9804F064FE0746D2
:10160000324A334B04F072FE05460E4664220F99AF
:1016100051430E9A02EB820201EB42010D9A8818A7
:1016200004F051FE2A463346CDE9000104F034FCB3
:10163000CDE9020104F0FEFBCAF80400089804F0AA
:1016400042FE224A224BCDE9000104F04FFE05463E
:101650000E4664220B9951430A9A02EB820201EB77
:101660004201099A881804F02EFE07462A4633469E
:1016700004F012FCCDE9020104F0DCFBCAF808001A
:10168000049804F020FE114A114BCDE9000104F04A
:101690002DFE05460E46642207995143069A02EB39
:1016A000820201EB4201059A881804F00CFE0746FD
:1016B0002A46334604F0F0FBCDE9020104F0BAFB00
:1016C000CAF80C0014B0BDE8F08700009A99999907
:1016D0009999B93F00B589B00121022000F063FF5C
:1016E0000121042000F052FF0121082000F04EFFEC
:1016F00018208DF82300C020ADF8200003208DF8BD
:10170000220008A9324800F085FC18208DF81F003F
:101710000320ADF81C008DF81E0007A92D4800F02D
:1017200079FC2D4801F06CFE0020ADF81600ADF8F4
:10173000120044F61F60ADF814004720ADF8100009
:1017400000208DF8180004A9234801F0C9FA684662
:1017500001F0FBFD6020ADF800000020ADF80800AE
:101760000120ADF802000020ADF8060069461A48D5
:1017700001F0F3FA6946184801F031FB6946164852
:1017800001F07AFB6946144801F0C1FB01211248BF
:1017900001F002FE09B000BD10B5044621460E4816
:1017A00002F092F810BD10B5044621460A4802F036
:1017B0008DF810BD10B504462146074802F088F8A0
:1017C00010BD10B504462146034802F083F810BD51
:1017D00000080140000C01400004004010B5FFF774
:1017E00079FF10BD2DE9F04104462E49204604F052
:1017F000F3FF80462C4905F0EDF807462B4904F02D
:1018000089FF064605F0C6F885B22846FFF7C4FFF3
:10181000BDE8F0812DE9F04104462249204604F05C
:10182000DBFF8046204905F0D5F807461F4904F044
:1018300071FF064605F0AEF885B22846FFF7B3FF04
:10184000BDE8F0812DE9F04104461649204604F038
:10185000C3FF8046144905F0BDF80746134904F05C
:1018600059FF064605F096F885B22846FFF7A2FF15
:10187000BDE8F0812DE9F04104460A49204604F014
:10188000ABFF8046084905F0A5F80746074904F074
:1018900041FF064605F07EF885B22846FFF791FF26
:1018A000BDE8F081000034430000FA440000FA4330
:1018B00008B50121082000F069FE14208DF803000E
:1018C00003208DF802004FF48060ADF800006946F7
:1018D000FE4800F09FFB4FF40060ADF80000694641
:1018E000FA4800F097FB01229102F84800F043FC0F
:1018F0000122D102F54800F03EFC08BD10B50122DE
:10190000D102F24800F037FC01229102EF4800F0CA
:1019100032FC00224FF40061EC4800F02CFC002265
:101920004FF48061E94800F026FC10BD10B500229C
:101930004FF40061E54800F01EFC01229102E348EB
:1019400000F019FC0122D102E04800F014FC10BDA7
:1019500070B50546002415E08020204100EA05020C
:101960004FF40061D94800F006FC01229102D748EB
:1019700000F001FC00224FF48061D44800F0FBFB32
:10198000601CC4B2082CE7DB01229102CF4800F0B2
:10199000F2FB00224FF48061CC4800F0ECFB70BDFC
:1019A00010B50446FFF7AAFF7820FFF7D1FF00200B
:1019B000FFF7CEFF2046FFF7CBFFFFF7B7FF10BDC5
:1019C00010B50446FFF79AFF7820FFF7C1FF4020CB
:1019D000FFF7BEFF2046FFF7BBFFFFF7A7FF10BDD5
:1019E00070B505460C4645F0B000FFF7D9FF102151
:1019F00041EA1410FFF7D4FF04F00F00FFF7D0FF07
:101A000070BD70B500240EE000212046FFF7E8FF0E
:101A1000002504E00020FFF7D3FF681CC5B2802D2D
:101A2000F8DB601CC4B2082CEEDB70BD2DE9F04180
:101A300005460E461746721ED206110E6A1E520643
:101A4000100EFFF7CDFF002409E0A7F12001A04A06
:101A500002EB0111085DFFF7B3FF601CC4B2082C54
:101A6000F3DB721ED206110E6A1E012303EB420243
:101A7000D0B2FFF7B5FF00240BE0A7F12001944A94
:101A800002EB011204F10801505CFFF799FF601CA2
:101A9000C4B2082CF1DBBDE8F0812DE9F041074626
:101AA0000E461546002407E02A5D3019C1B23846BB
:101AB000FFF7BCFF601CC4B2285D0028F4D1BDE86C
:101AC000F0812DE9F843054688461446204604F087
:101AD000F5FD064632460B467EA1684602F0FCFF45
:101AE0006A4641462846FFF7D8FFBDE8F88310B59F
:101AF0000246012000E050430B1EA1F10101FAD182
:101B000010BD2DE9F04780460E4617461D460024BD
:101B100015E0281B411E0A20FFF7E9FFB7FBF0F094
:101B20000A21B0FBF1F201FB120000F1300930197B
:101B3000C1B24A464046FFF779FF601CC4B2AC42CE
:101B4000E7DBBDE8F0872DE9F0478146884615467A
:101B50001E46002D06DB2B2241464846FFF766FF56
:101B60002F4605E02D2241464846FFF75FFF6F42B2
:101B7000002417E0301B411E0A20FFF7B8FFB7FB17
:101B8000F0F00A21B0FBF1F201FB120000F1300A83
:101B900008EB0400401CC1B252464846FFF746FF1E
:101BA000601CC4B2B442E5DBBDE8F0872DE9F04724
:101BB00081460E4690461F4600241DE0381B411EFC
:101BC0001020FFF794FFB8FBF0F000F00F050A2D8E
:101BD00008DA05F13000C2B23019C1B24846FFF749
:101BE00025FF07E005F13700C2B23019C1B24846FF
:101BF000FFF71CFF601CC4B2BC42DFDBBDE8F0870E
:101C00002DE9F04780460E4617461D46002412E097
:101C1000281B411E0220FFF76AFFB7FBF0F000F01F
:101C2000010000F130093019C1B24A464046FFF7C1
:101C3000FDFE601CC4B2AC42EADBBDE8F08770B5C3
:101C4000002406E0002500E06D1CB5F57A7FFBD38B
:101C5000641CB4F57A7FF5D3FFF72AFEAE20FFF7B8
:101C60009FFED520FFF79CFE8020FFF799FEA8205D
:101C7000FFF796FE3F20FFF793FED320FFF790FE7D
:101C80000020FFF78DFE4020FFF78AFEA120FFF71E
:101C900087FEC820FFF784FEDA20FFF781FE1220BE
:101CA000FFF77EFE8120FFF77BFECF20FFF778FE57
:101CB000D920FFF775FEF120FFF772FEDB20FFF75A
:101CC0006FFE3020FFF76CFEA42007E0000C0140FF
:101CD0005A6C000825332E3166000000FFF760FEC5
:101CE000A620FFF75DFE8D20FFF75AFE1420FFF7B8
:101CF00057FEAF20FFF754FEFFF783FE70BD0000D4
:101D000010B56FF0040000F0F8FE2E4800682E4970
:101D1000B0FBF1F02D4908700846007800EB400157
:101D2000C1EBC0104FF6FF7101EAC00028490880DE
:101D300010BD0146254A12784A434FF0E0235A610C
:101D400000229A611A46126942F001021A6100BF2C
:101D50004FF0E022106900F001021AB100F4803265
:101D6000002AF5D04FF0E022126922F001024FF074
:101D7000E0231A6100229A6170470146144A1288D2
:101D80004A434FF0E0235A6100229A611A461269D1
:101D900042F001021A6100BF4FF0E022106900F02A
:101DA00001021AB100F48032002AF5D04FF0E0228F
:101DB000126922F001024FF0E0231A6100229A61B9
:101DC000704700000800002000127A002400002064
:101DD00026000020014600BF704700BF494A128814
:101DE00002F04002002AF9D0C2B2464B1B1D1A80F5
:101DF000704710B586B00446012144F2040000F09B
:101E0000C5FB4FF40070ADF8140003208DF81600E8
:101E100018208DF8170005A93B4800F0FBF84FF497
:101E20008060ADF8140004208DF8170005A936482D
:101E300000F0F0F825208DF8000003208DF8010057
:101E40008DF8020001208DF80300684600F00BFEBB
:101E500001940020ADF80800ADF80A00ADF80C00C0
:101E6000ADF810000C20ADF80E0001A9254800F0D7
:101E700034FC012240F22551224800F0C6FC012129
:101E8000204800F0B6FC06B010BD10B540F2255158
:101E90001C4800F09FFD10B31A4800F01BFDC4B2AF
:101EA0001A48008800F40040C8B91848008800F4B7
:101EB000804060B10A2C03D000201449088020E043
:101EC0001248008840F400401049088019E00D2CA9
:101ED00006D10E48008840F480400C49088010E08C
:101EE0000A480088C0F30D0009490C5407480088CF
:101EF000401C0649088008460088C72801DD0020EC
:101F0000088010BD00380140000801402C0000206E
:101F1000A00100200948804709480047FEE7FEE786
:101F2000FEE7FEE7FEE7FEE7FEE7FEE7FEE7FEE789
:101F300004480549054A064B704700009F06000803
:101F400031010008C8020020C8080020C804002091
:101F5000C804002010B50446CC48844208D10121B1
:101F6000042000F02DFB0021042000F029FB46E0B6
:101F7000C748844208D10121082000F021FB00213C
:101F8000082000F01DFB3AE0C248844208D101213C
:101F9000102000F015FB0021102000F011FB2EE0B6
:101FA000BD48844208D10121202000F009FB002116
:101FB000202000F005FB22E0B848844208D101212E
:101FC000402000F0FDFA0021402000F0F9FA16E070
:101FD000B348844208D10121802000F0F1FA0021A9
:101FE000802000F0EDFA0AE0AE48844207D10121DA
:101FF000801500F0E5FA0021A01500F0E1FA10BD0F
:1020000010B50121084600F0DBFA0021012000F0A4
:10201000D7FA10BD2DE9F041024600250026002028
:1020200000230024002791F803C00CF00F0591F85D
:1020300003C00CF0100CBCF1000F03D091F802C0EB
:102040004CEA050591F800C0BCF1000F31D01468CE
:1020500000202BE04FF0010C0CFA00F3B1F800C0A7
:102060000CEA03069E4220D183004FF00F0C0CFABD
:1020700003F7BC4305FA03FC4CEA040491F803C0DF
:10208000BCF1280F06D14FF0010C0CFA00FCC2F88D
:1020900014C00AE091F803C0BCF1480F05D14FF01D
:1020A000010C0CFA00FCC2F810C0401C0828D1D367
:1020B0001460B1F800C0BCF1FF0F34DD546800209B
:1020C0002EE000F1080C4FF0010808FA0CF3B1F80B
:1020D00000C00CEA03069E4221D183004FF00F0C92
:1020E0000CFA03F7BC4305FA03FC4CEA040491F82C
:1020F00003C0BCF1280F05D100F1080C08FA0CF858
:10210000C2F8148091F803C0BCF1480F07D100F168
:10211000080C4FF0010808FA0CF8C2F81080401CB7
:102120000828CED35460BDE8F0814FF6FF710180DE
:10213000022181700421C17070470246002093681B
:102140000B400BB1012000E0002070470146886879
:1021500080B2704702460020D3680B400BB10120CB
:1021600000E0002070470146C86880B270470161F6
:102170007047416170470AB1016100E041617047F9
:10218000C16070474FF480320A438261816182618D
:1021900082698269704702460020434B18684FF6F7
:1021A0008073184040EA021008433F4B18607047A4
:1021B0003E49C8617047F0B50A460023002400215B
:1021C000002500F00046B6F1004F02D1364EF1690D
:1021D00001E0354E7168C0F3034583B200F4401648
:1021E000B6F5401F08D121F070612F4E766826F0B9
:1021F00070662D4F7E6012E000F48016B6F5801FE9
:1022000006D1032606FA05F4A14341F0706106E009
:10221000460D360103FA06F6B14341F0706122B172
:10222000460D360103FA06F6314300F00046B6F1DA
:10223000004F02D11C4EF16101E01B4E7160F0BDF8
:1022400030B500228B071C0F0F2303FA04F2164B44
:1022500008338C1053F824309343134C08348D10FA
:1022600044F8253023468C1053F824308C07240F73
:1022700000FA04F423430C4C08348D1044F8253044
:1022800030BD0A49DC310860704700000008014099
:10229000000C0140001001400014014000180140F2
:1022A000001C0140002001400000014000002042CD
:1022B000DF48006840F00100DD49086008464068DA
:1022C000DC490840DA49486008460068DA490840B5
:1022D000D74908600846006820F480200860084656
:1022E000406820F4FE0048604FF41F00886070478B
:1022F000CF49096821F48031CD4A1160114609683F
:1023000021F480211160B0F5803F03D0B0F5802F1B
:102310000ED106E0C649096841F48031C44A116013
:1023200007E0C349096841F4A021C14A116000E0F7
:1023300000BF00BF704710B50146002200230020F7
:102340004A11012A02D1BA4C236806E0022A02D1BE
:10235000B74C236A01E0B64C636A01F01F02012406
:1023600094401C400CB1012000E0002010BD38B5A5
:10237000002000900024002500BF3120FFF7DBFF84
:1023800005460098401C00900098B0F5A06F01D061
:10239000002DF2D03120FFF7CEFF08B1012400E07C
:1023A0000024204638BD01460020A14A106820F0D4
:1023B000F80040EAC10010607047A049086070470B
:1023C000024600209A4B586820F47C1042EA010330
:1023D0001843974B58607047984908667047014604
:1023E0000020934A506820F0030008435060704773
:1023F0008F48406800F00C007047014600208C4A6E
:10240000506820F0F00008435060704701460020FB
:10241000874A506820F4E0600843506070470146E6
:102420000020834A506820F4605040EAC1005060A8
:10243000704729B17E4A527A02437D4B5A7204E0BA
:102440007B4A527A82437A4B5A7270477B49D83121
:102450000860704701460020754A506820F44040EB
:102460000843506070470021714A20321170704A51
:1024700082F82010012802D004280AD104E00121AA
:102480006B4A2032117005E00521694A2032117033
:1024900000E000BF00BF70476949086070476449A9
:1024A000096A0143624A116270476549443908600C
:1024B000704730B500210022002400235C4D6D6878
:1024C00005F00C0121B1042905D0082923D105E02C
:1024D0005C4D056022E05B4D05601FE0544D6D686A
:1024E00005F47012524D6D6805F48034022505EB39
:1024F00092421CB9544D554305600BE04C4D6D683C
:1025000005F400351DB1504D5543056002E04D4DB9
:102510005543056002E04B4D056000BF00BF444DD0
:102520006D6805F0F0010909484D6B5C0568DD40F8
:1025300045603F4D6D6805F4E061090A434D6B5CF1
:102540004568DD4085603A4D6D6805F46051C90A03
:102550003E4D6B5C4568DD40C560354D6D6805F4EA
:102560004041890B3A4D6B5CC568B5FBF3F50561DD
:1025700030BD29B12E4A526902432D4B5A6104E005
:102580002B4A526982432A4B5A61704729B1284A23
:1025900092690243264B9A6104E0254A926982437C
:1025A000234B9A61704729B1214AD2690243204BDB
:1025B000DA6104E01E4AD26982431D4BDA6170473A
:1025C00029B11B4AD2680243194BDA6004E0184A69
:1025D000D2688243164BDA60704729B1144A1269F7
:1025E0000243134B1A6104E0114A12698243104BF3
:1025F0001A61704712494039086070470F49C86432
:1026000070470B49C87170470948406A40F08070B4
:1026100007494862704701460020054A92680A400F
:102620000AB1012000E0002070470149887270471C
:10263000001002400000FFF8FFFFF6FE00004242DB
:102640008004424200127A0000093D002E00002062
:102650003E00002010B50446FB48844209D1012108
:102660008803FFF7ADFF00214FF48040FFF7A8FF7C
:1026700032E0F648844209D101214804FFF7ADFF5A
:1026800000214FF40030FFF7A8FF25E0F048844216
:1026900009D101218804FFF7A0FF00214FF4802019
:1026A000FFF79BFF18E0EB48844209D10121C804E1
:1026B000FFF793FF00214FF40020FFF78EFF0BE0A0
:1026C000E548844208D101210805FFF786FF002173
:1026D0004FF48010FFF781FF10BD2DE9F04786B061
:1026E00005460E460024A24600BFA1460027B08939
:1026F00000B100BF2F462C8A4CF6FF700440F088D2
:1027000004432C82AC894EF6F3100440B088318922
:102710000843718908430443AC81AC8A4FF6FF40FB
:102720000440B0890443AC8201A8FFF7C2FEC6484A
:10273000874202D1DDF810A001E0DDF80CA0A889E5
:1027400000F4004040B10AEBCA0000EB0A10316807
:102750004900B0FBF1F807E00AEBCA0000EB0A10F1
:1027600031688900B0FBF1F86420B8FBF0F0040197
:102770002009642101FB1089A88900F4004040B1C0
:10278000322000EBC900B0FBF1F000F00700044379
:1027900008E0322000EB09106421B0FBF1F000F0FA
:1027A0000F0004432C8106B0BDE8F0874FF41651AA
:1027B000016000218180C18001810C2141810021C3
:1027C0008181704710B502460020108A4FF2FF0346
:1027D00018400B884C8823438C882343CC882343A0
:1027E0001843108210BD0021018041808180C1808A
:1027F000704721B1828942F40052828104E08289CB
:102800004DF6FF731A4082817047F0B503460024ED
:1028100000260025002040F66A17B94200D100BF0B
:102820001846C1F3421401F01F06012707FA06F506
:10283000012C01D10C3004E0022C01D1103000E059
:1028400014301AB107682F43076002E00768AF43EE
:102850000760F0BD1AB1838A0B43838202E0838A4A
:102860008B4383827047028A4FF6F0731A400282CC
:10287000028A0A430282704782894FF2FF731A402C
:10288000828182890A438281704721B1828942F024
:102890000202828104E082894FF6FD731A40828130
:1028A0007047028A4FF6DF731A400282028A0A4397
:1028B0000282704721B1028A42F48042028204E01F
:1028C000028A4BF6FF731A4002827047C1F3080276
:1028D0008280704701468888C0F30800704781896C
:1028E00041F0010181817047028BD2B20283028BD9
:1028F00042EA012202837047028B02F47F42028384
:10290000028B0A430283704721B1828A42F020027F
:10291000828204E0828A4FF6DF731A408282704717
:1029200021B1828A42F01002828204E0828A4FF64C
:10293000EF731A408282704721B1828A42F0080206
:10294000828204E0828A4FF6F7731A4082827047CF
:1029500021B1828942F40042828103E08289C2F37C
:102960000E028281704721B1828A42F40062828223
:1029700004E0828A4FF2FF731A4082827047828A93
:102980004FF6FB731A408282828A0A438282704722
:1029900021B1828A42F00202828204E0828A4FF6EA
:1029A000FD731A408282704702460020B1F5007F15
:1029B00000D100BF13880B400BB1012000E00020C4
:1029C000704701F40072B2F5007F00D100BFCA4326
:1029D0000280704770B502460024002300250020C5
:1029E00040F66A16B14200D100BFC1F3421501F0B2
:1029F0001F03012606FA03F3012D02D19689334005
:102A000006E0022D02D1168A334001E0968A334057
:102A10000C12012606FA04F41688344013B10CB1E6
:102A2000012000E0002070BD10B50022002340F618
:102A30006A14A14200D100BF0A1201249440A3B23B
:102A4000DC43048010BD0000003801400044004019
:102A500000480040004C0040005000403149014314
:102A6000314A1160704770B5002100230F22C478ED
:102A700004B32D4C246804F4E064C4F5E064210A36
:102A8000C1F10403CA40447804FA03F18478144085
:102A900021430901254C0678A155047804F01F054F
:102AA0000124AC4005786D11AD0005F1E025C5F8B5
:102AB000004109E0047804F01F050124AC401C4DDE
:102AC0000678761145F8264070BD1A4A0A4002433E
:102AD000154B1B1F1A60704739B1134A121D12683B
:102AE0000243114B1B1D1A6006E00F4A121D1268AB
:102AF00082430D4B1B1D1A607047042808D14FF00C
:102B0000E021096941F004014FF0E022116107E082
:102B10004FF0E021096921F004014FF0E02211613A
:102B2000704700000000FA050CED00E000E400E052
:102B300080E100E080FFFF1F10B50446FE4884429C
:102B400008D10121C014FFF73BFD0021E014FFF77D
:102B500037FDC4E0B4F1804F08D101210846FFF7EA
:102B60003CFD00210120FFF738FDB8E0F348844226
:102B700008D101210220FFF730FD00210220FFF7DC
:102B80002CFDACE0EE48844208D101210420FFF77F
:102B900024FD00210420FFF720FDA0E0E948844245
:102BA00008D101210820FFF718FD00210820FFF7B8
:102BB00014FD94E0E448844208D101211020FFF77D
:102BC0000CFD00211020FFF708FD88E0DF4884425B
:102BD00008D101212020FFF700FD00212020FFF770
:102BE000FCFC7CE0DA48844208D101214014FFF764
:102BF000E7FC00216014FFF7E3FC70E0D548844255
:102C000009D10121C804FFF7DBFC00214FF40020AB
:102C1000FFF7D6FC63E0D048844209D101210805C2
:102C2000FFF7CEFC00214FF48010FFF7C9FC56E0FF
:102C3000CA48844209D101214805FFF7C1FC00219F
:102C40004FF40010FFF7BCFC49E0C548844208D1AE
:102C500001214020FFF7C1FC00214020FFF7BDFC0F
:102C60003DE0C048844208D101218020FFF7B5FC37
:102C700000218020FFF7B1FC31E0BB48844208D13D
:102C800001218015FFF7A9FC0021A015FFF7A5FC85
:102C900025E0B648844209D101210804FFF790FCE1
:102CA00000214FF48030FFF78BFC18E0B0488442DD
:102CB00009D101214804FFF783FC00214FF40030C3
:102CC000FFF77EFC0BE0AB48844208D10121880469
:102CD000FFF776FC00214FF48020FFF771FC10BD58
:102CE00000220288944B98420ED0994B98420BD008
:102CF000B0F1804F08D0914B984205D0904B98424C
:102D000002D0904B984204D14FF68F731A404B88F3
:102D10001A438D4B984207D08C4B984204D04FF603
:102D2000FF431A40CB881A4302808B8883850B8827
:102D30000385814B98420BD0854B984208D08B4B32
:102D4000984205D08A4B984202D08A4B984201D1D2
:102D50000B7A038601238382704770B5002400221A
:102D60000023058C4FF6FE7635400584028C83885F
:102D7000048B4FF68F752C40B51E2C400D882C43CC
:102D8000751E2A400D892A434D882A436A4DA84260
:102D90000BD06F4DA84208D0744DA84205D0744D99
:102DA000A84202D0734DA84213D14FF6F7752A40BE
:102DB0004D892A434FF6FB752A408D882A434FF6EA
:102DC000FF652B404FF6FF552B408D892B43CD8956
:102DD0002B4383800483CD888586028470BD70B5C3
:102DE000002400220023058C4FF6EF763540058441
:102DF000028C8388048B48F6FF752C404FF6FF4504
:102E00002C400D884FF6FF7606EA05252C434FF639
:102E1000DF752A400D8906EA05152A434D8806EA22
:102E200005152A43444DA84202D0494DA8421DD160
:102E30004FF67F752A404D894FF6FF7606EA051555
:102E40002A434FF6BF752A408D8806EA05152A43A6
:102E50004FF6FF352B404FF2FF752B408D8906EA68
:102E600085052B43CD8906EA85052B4383800483A2
:102E7000CD880587028470BD70B500240022002330
:102E8000058C4FF6FF6635400584028C8388848B61
:102E90004FF68F752C404FF6FC752C400D882C4357
:102EA0004FF6FF552A400D894FF6FF7606EA0525B5
:102EB0002A434D8806EA05252A431F4DA84202D021
:102EC000234DA8421DD14FF2FF752A404D894FF680
:102ED000FF7606EA05252A434FF6FF352A408D88FE
:102EE00006EA05252A434EF6FF752B404DF6FF7581
:102EF0002B408D8906EA05152B43CD8906EA051579
:102F00002B4383808483CD888587028470BD70B510
:102F1000002200230024058C4EF6FF763540058400
:102F2000038C8488828B48F6FF752A404FF6FF4554
:102F30002A400D8820E00000002C014000040040E1
:102F400000080040000C0040001000400014004049
:102F500000340140004C0140005001400054014049
:102F600000180040001C00400020004000400140CC
:102F700000440140004801404FF6FF7606EA05256F
:102F80002A434DF6FF752B400D8906EA05352B4384
:102F90004D8806EA05352B43FA4DA84202D0FA4D7A
:102FA000A84208D14BF6FF752C408D894FF6FF766D
:102FB00006EA85152C4384808283CD88A0F8405092
:102FC000038470BD828B4FF2FF331A408283828B61
:102FD0004FF6FF7303EA01231A4382837047F0B56B
:102FE0000C461546002200210026078C4EF6FF7C79
:102FF00007EA0C070784828B018C4FF6FF7707EAFC
:10300000043640F6FF473A404FF6FF7707EA0527B8
:103010003A434FF6FF7707EA03373A43D94FB842AE
:103020000ED0D94FB8420BD0B0F1804F08D0D74F57
:10303000B84205D0D64FB84202D0D64FB84206D1DA
:103040004DF6FF77394046F48057394305E047F69F
:10305000FF57394044F48057394382830184F0BDDF
:10306000828B4FF6F3731A408283828B0A438283EA
:103070007047F0B50C461546002200210026078C4B
:103080004FF6FF6C07EA0C070784828B018C4FF622
:10309000FF7707EA04264FF60C773A404FF6FF77A2
:1030A00007EA03172F433A43B64FB8420ED0B64F44
:1030B000B8420BD0B0F1804F08D0B44FB84205D021
:1030C000B34FB84202D0B34FB84206D14FF6FF57C4
:1030D000394046F48077394305E04FF2FF573940D5
:1030E00044F48077394382830184F0BD028B4FF230
:1030F000FF331A400283028B4FF6FF7303EA01236A
:103100001A4302837047F0B50C4615460022002191
:103110000026078C4FF6EF7C07EA0C070784028B2A
:10312000018C4FF6FF7707EA041640F6FF473A4056
:103130004FF6FF7707EA03373A434FF6FF7707EA80
:1031400005273A438F4FB8420ED08F4FB8420BD06D
:10315000B0F1804F08D08D4FB84205D08C4FB842A7
:1031600002D08C4FB84206D14FF6DF77394046F097
:103170001007394305E04FF65F77394044F01007F8
:10318000394302830184F0BD028B4FF6F3731A407A
:103190000283028B0A4302837047F0B50C46154642
:1031A00000220021068C4FF6FE773E400684028BFB
:1031B000018C4FF60C7632407E1C06EA03162E4335
:1031C0003243704EB0420ED06F4EB0420BD0B0F1D1
:1031D000804F08D06D4EB04205D06D4EB04202D047
:1031E0006C4EB04206D14FF6FD76314044F00106F8
:1031F000314305E04FF6F576314044F001063143A6
:1032000002830184F0BD70B505460C465D488542D9
:103210000ED05D4885420BD0B5F1804F08D05B4899
:10322000854205D05A48854202D05A48854200D18D
:1032300000E000BF208850B92389A2886188284611
:10324000FFF7ABFFE1882846FFF79EFF25E02088C7
:1032500004280AD12389A28861882846FFF753FFF2
:10326000E1882846FFF742FF17E0208808280AD1A6
:103270002389A28861882846FFF7FBFEE18828465B
:10328000FFF7EEFE09E02389A28861882846FFF750
:10329000A6FEE1882846FFF795FE70BD2DE9F041B6
:1032A00005460C4600260127608808B9022600E082
:1032B0000026A088012801D1022700E001272088EC
:1032C000A0B92389A28861882846FFF766FFE188B4
:1032D0002846FFF759FF23893A4631462846FFF72B
:1032E00012FFE1882846FFF701FF13E02389A28837
:1032F00061882846FFF707FFE1882846FFF7F6FEBA
:1033000023893A4631462846FFF747FFE188284699
:10331000FFF73AFFBDE8F0810A884B881A438B8893
:103320001A43CB881A430B891A434B891A438B895A
:103330001A43A0F8442070474FF6FF7181800021A6
:103340000180C1804180017270470021018041806D
:103350008180C180018141818181C18170470021CB
:1033600001804180012181800021C180018170475D
:103370000021018041808180C18001814181818162
:1033800070470000002C0140003401400004004060
:1033900000080040000C004021B1028842F0010208
:1033A000028004E002884FF6FE731A4002807047E4
:1033B00031B1B0F8442042F40042A0F8442005E0C6
:1033C000B0F84420C2F30E02A0F8442070471AB1AE
:1033D00083890B43838102E083898B438381704718
:1033E0008182704741EA0203A0F8483070471AB161
:1033F00083890B43838102E083898B4383817047F8
:1034000001894FF6F8721140018170470A46002188
:1034100001894FF68F73194011430181704730B510
:1034200004460D4629462046FFF7F0FF208940F06C
:103430000700208130BD2DE9F04104460D461646B7
:103440001F46602D06D13B46012231462046FFF73C
:103450005AFE05E03B46012231462046FFF79DFE1D
:1034600029462046FFF7D2FF208940F0070020813F
:10347000BDE8F08130B50C4600210189C9B24FF694
:10348000FF7505EA0325154325432943018130BD16
:103490002DE9F04105460E4617469846002443465E
:1034A0003A4631462846FFF7E5FF2C894FF6F8707B
:1034B000044044F007044FF68F70044044F0700459
:1034C0002C81BDE8F081F0B504460D4616461F4636
:1034D0003B46324629462046FFF7CCFF208940F480
:1034E00080402081F0BD0185828270470A4600211C
:1034F00001884FF68F731940114301807047F0B572
:103500000C4615461E460021002200230189028B2D
:10351000038C4FF6F877394021434FF6FC473A4089
:1035200040F201173A434FF6DD773B404FF6FF7705
:1035300007EA06172F433B43018102830384F0BD52
:103540000A460021018B4FF68F7319401143018306
:1035500070470A460021018B48F6FF7319404FF669
:10356000FF7303EA02231943018370470A460021CF
:10357000818B4FF68F7319401143818370470A4640
:103580000021818B48F6FF7319404FF6FF7303EA61
:10359000022319438183704721B1028842F08002DF
:1035A000028004E002884FF67F731A400280704761
:1035B00021B1828842F00402828004E082884FF6C2
:1035C000FB731A408280704721B1828842F0080262
:1035D000828004E082884FF6F7731A408280704739
:1035E00021B1828842F00102828004E082884FF695
:1035F000FE731A40828070470A460021018B4FF605
:10360000F77319401143018370470A460021018B6B
:103610004FF2FF7319404FF6FF7303EA0223194379
:10362000018370470A460021818B4FF6F7731940DA
:103630001143818370470A460021818B4FF2FF734B
:1036400019404FF6FF7303EA022319438183704741
:103650000A460021018B4FF6FB7319401143018389
:1036600070470A460021018B4FF6FF3319404FF691
:10367000FF7303EA02231943018370470A460021BE
:10368000818B4FF6FB7319401143818370470A46C3
:103690000021818B4FF6FF3319404FF6FF7303EA89
:1036A00002231943818370470A460021018B4FF69C
:1036B0007F7319401143018370470A460021018B33
:1036C000C1F30E014FF6FF7303EA0223194301838E
:1036D00070470A460021818B4FF67F7319401143D2
:1036E000818370470A460021818BC1F30E014FF69A
:1036F000FF7303EA02231943818370470A460021BE
:10370000018C4FF6FD7319401143018470470A463E
:103710000021018C4FF6F773194011430184704763
:103720000A460021018C4FF6DF7319404FF6FF73F4
:1037300003EA02131943018470470A460021018CF1
:103740004FF67F7319404FF6FF7303EA02131943D4
:10375000018470470A460021018C4FF6FF5319403F
:103760004FF6FF7303EA02231943018470470A46A8
:103770000021018C4FF2FF7319404FF6FF7303EAEB
:1037800002231943018470470A460021018C4DF63B
:10379000FF7319404FF6FF7303EA023319430184A4
:1037A000704730B5002301248C40A3B2048C9C43A5
:1037B0000484048C02FA01F5ADB22C43048430BDBC
:1037C00030B5002304248C40A3B2048C9C430484B1
:1037D000048C02FA01F5ADB22C43048430BD70B5FF
:1037E0000346002000241846183001258D40ACB255
:1037F0001D8CA5431D8409B1082909D100EB610086
:10380000056825F0700505600568154305600EE044
:103810000D1FC5F34E052844056825F4E0450560F5
:1038200005684FF6FF7606EA02263543056070BD4F
:1038300021B1028842F00202028004E002884FF6C1
:10384000FD731A400280704721B1028842F00402E1
:10385000028004E002884FF6FB731A400280704732
:1038600021B1828842F08002828004E082884FF693
:103870007F731A408280704702884FF6F7731A40B0
:10388000028002880A430280704782884FF68F7355
:103890001A40828082880A438280704702894FF6EC
:1038A000F8731A40028102890A4302817047028933
:1038B0004FF67F731A40028102890A4302817047E2
:1038C0008184704781857047818670470187704782
:1038D00081877047A0F84010704702884FF6FF4379
:1038E0001A40028002880A43028070470146888E8F
:1038F00070470146088F70470146888F7047014620
:10390000B1F8400070470146888C70470146088D29
:10391000704702460020138A0B400BB1012000E0E3
:1039200000207047CA430282704730B5024600202B
:1039300000230024158A05EA0103958905EA01049C
:1039400013B10CB1012000E0002030BDCA43028257
:103950007047000010B58CB004461E230BAA03A9C3
:10396000204600F0AFFE0090009810B101200CB08E
:1039700010BD9DF82C00044400200B900EE0404840
:103980009DF82C2050F8221003A800F003FE00B987
:1039900008E09DF82C00401CC0B20B909DF82C0054
:1039A0000728ECD300BF9DF82C00072863D2DFE87E
:1039B00000F004053C5E6564630000BF31A001F0C7
:1039C0007FF831A001F07CF83FA001F079F84EA01B
:1039D00001F076F85CA001F073F86BA001F070F8CC
:1039E00079A001F06DF886A001F06AF88BA001F0D3
:1039F00067F890A001F064F894A001F061F899A034
:103A000001F05EF89EA001F05BF8A4A001F058F868
:103A1000B0A001F055F8BDA001F052F8C8A001F027
:103A20004FF8D4A001F04CF89AE216A001F048F843
:103A3000E0A001F045F800200B900EE0ED48006892
:103A40009DF82C2000EBC2004168EBA001F038F893
:103A50009DF82C00401CC0B20B90E648007D9DF8FC
:103A60002C108842EADC07A001F02AF878E205A0D1
:103A700001F026F8C4E171E245E219E2ECE1000050
:103A8000440000200D0A00002D2D2D2D2D2D2D2D53
:103A90002D2D2D2D2D2D2D2D2D2D2D2D2D2D2D2D56
:103AA00055534D4152542056332E312D2D2D2D2D51
:103AB0002D2D2D2D2D2D2D2D2D2D2D2D2D2D2D2D36
:103AC0002D2D2D200D0A00002020202055534D4182
:103AD0005254CAC7D3C9414C49454E54454BBFAA5D
:103AE000B7A2B5C4D2BBB8F6C1E9C7C9B5C4B4AEB4
:103AF000BFDAB5F7CAD4BBA5BDBBD7E9BCFE2CCD98
:103B0000A8B9FD200D0A0000CBFC2CC4E3BFC9D22C
:103B1000D4CDA8B9FDB4AEBFDAD6FACAD6B5F7D3BC
:103B2000C3B3CCD0F2C0EFC3E6B5C4C8CEBACEBAE8
:103B3000AFCAFD2CB2A2D6B4D0D02ED2F2B4CB2CC8
:103B4000C4E3BFC90D0A0000D2D4CBE6D2E2B8FC70
:103B5000B8C4BAAFCAFDB5C4CAE4C8EBB2CECAFD98
:103B600028D6A7B3D6CAFDD7D62831302F3136BDD7
:103B7000F8D6C629A1A2D7D6B7FBB4AEA1A2BAAFD8
:103B8000CAFDC8EB0D0A0000BFDAB5D8D6B7B5C874
:103B9000D7F7CEAAB2CECAFD292CB5A5B8F6BAAFD2
:103BA000CAFDD7EEB6E0D6A7B3D63130B8F6CAE430
:103BB000C8EBB2CECAFD2CB2A2D6A7B3D6BAAFCA52
:103BC000FDB7B5200D0A0000BBD8D6B5CFD4CABE0C
:103BD0002ED0C2D4F6B2CECAFDCFD4CABEBDF8D65E
:103BE000C6C9E8D6C3B9A6C4DC2CD0C2D4F6BDF889
:103BF000D6C6D7AABBBBB9A6C4DC2E0D0A000000EE
:103C0000BCBCCAF5D6A7B3D63A7777772E6F706566
:103C10006E6564762E636F6D0D0A000055534D413D
:103C20005254D3D037B8F6CFB5CDB3C3FCC1EE3ABA
:103C30000D0A00003F3A202020202020BBF1C8A11F
:103C4000B0EFD6FAD0C5CFA20D0A000068656C703F
:103C50003A202020BBF1C8A1B0EFD6FAD0C5CFA240
:103C60000D0A00006C6973743A202020BFC9D3C3C9
:103C7000B5C4BAAFCAFDC1D0B1ED0D0A0A0000004B
:103C800069643A2020202020BFC9D3C3BAAFCAFD3F
:103C9000B5C44944C1D0B1ED0D0A0A006865783A4F
:103CA00020202020B2CECAFD3136BDF8D6C6CFD4F2
:103CB000CABE2CBAF3B8FABFD5B8F12BCAFDD7D615
:103CC000BCB4D6B4D0D0BDF8D6C6D7AABBBB0D0AFB
:103CD0000A0000006465633A20202020B2CECAFDAD
:103CE0003130BDF8D6C6CFD4CABE2CBAF3B8FABFAD
:103CF000D5B8F12BCAFDD7D6BCB4D6B4D0D0BDF858
:103D0000D6C6D7AABBBB0D0A0A00000072756E7436
:103D1000696D653A312CBFAAC6F4BAAFCAFDD4CBDF
:103D2000D0D0BCC6CAB13B302CB9D8B1D5BAAFCA15
:103D3000FDD4CBD0D0BCC6CAB13B0D0A0A000000EE
:103D4000C7EBB0B4D5D5B3CCD0F2B1E0D0B4B8F1B4
:103D5000CABDCAE4C8EBBAAFCAFDC3FBBCB0B2CEA1
:103D6000CAFDB2A2D2D4BBD8B3B5BCFCBDE1CAF87F
:103D70002E0D0A002D2D2D2D2D2D2D2D2D2D2D2DE2
:103D80002D2D2D2D2D2D2D2D2D2D2D2D2D2D414C30
:103D900049454E54454B2D2D2D2D2D2D2D2D2D2DA1
:103DA0002D2D2D2D2D2D2D2D2D2D2D2D2D2D2D2050
:103DB0000D0A00002D2D2D2D2D2D2D2D2D2D2D2DD0
:103DC0002D2D2D2D2D2D2D2D2D2D2D2D2DBAAFCA77
:103DD000FDC7E5B5A52D2D2D2D2D2D2D2D2D2D2DF1
:103DE0002D2D2D2D2D2D2D2D2D2D2D2D2D2D2D2D03
:103DF000200D0A008800002025730D0A0000000035
:103E0000F1A000F05DFE00200B901AE0FE49096869
:103E10009DF82C2001EBC20101AB02AA486803A95E
:103E200000F076FCF84800689DF82C1050F831201E
:103E300003A9F6A000F044FE9DF82C00401CC0B27F
:103E40000B90F148007D9DF82C108842DEDCAFF22B
:103E5000CC3000F035FE83E0AFF2D83000F030FE19
:103E60000BAA03A9204600F02FFD9DF82C00C8B92D
:103E7000694603A800F0C1FB0B909DF82C0020B907
:103E8000E7A0009900F01CFE0EE09DF82C0004282D
:103E900001D002206BE5E5A000F012FE0120DA4916
:103EA000C87501E0022062E5DFA000F009FE57E0DE
:103EB000DDA000F005FE0BAA03A9204600F004FDDA
:103EC0009DF82C00C8B9694603A800F096FB0B903A
:103ED0009DF82C0020B9DAA0009900F0F1FD0EE069
:103EE0009DF82C00042801D0022040E5D7A000F066
:103EF000E7FD0020C449C87501E0022037E5CAA0EB
:103F000000F0DEFD2CE0C8A000F0DAFD0BAA03A94A
:103F1000204600F0D9FC9DF82C00C8B9694603A8DA
:103F200000F06BFB0B909DF82C0078B9B649009817
:103F300081F8EC00084690F8EC0018B1C8A000F039
:103F4000BFFD07E0CDA000F0BBFD03E002200EE5C1
:103F500002200CE5B4A000F0B3FD01E0012006E56D
:103F600000BF002003E5CC48008820F00100CA49CA
:103F700008804FF6FF70C8491C3108800020C649F0
:103F800014310880A049C1F8F0007047C248008889
:103F900000F0010040B19C48D0F8F0004FF6FF71EE
:103FA00008449949C1F8F0009748D0F8F000BA49A0
:103FB0001431098808449449C1F8F0000846D0F843
:103FC000F000704710B5B448008800F0010058B107
:103FD0008D49086980470020AF49143108804FF4AB
:103FE0007A70AD491C310880AB48008820F0010090
:103FF000A949088010BD7FB505460C460121042063
:10400000FEF7D1FAADF80850ADF804400020ADF845
:104010000A00ADF8060001A99F481038FEF760FEBF
:10402000012241219C481038FFF7D1F91E208DF85C
:10403000000003208DF801008DF8020001208DF8AA
:1040400003006846FEF70FFD012193481038FFF783
:10405000A3F97FBD10B5044604EBC40000EB0410C7
:104060000122C2EB800081B24FF47A70FFF7C3FFE8
:1040700001206549C87510BD30B595B0054613AB34
:1040800012AA09A9284600F043FB044614B12046B1
:1040900015B030BD0020149026E05B4909689DF8FA
:1040A000502001EBC20113AB11AA486801A900F02E
:1040B0002FFB04460CB12046EAE709A901A800F04D
:1040C00069FA60B99DF844009DF84810884201DD06
:1040D0000220DDE79DF850004B4988750AE09DF805
:1040E0005000401CC0B214904748007D9DF850100D
:1040F0008842D2DC00BF4448007D9DF850108842C1
:1041000001D10420C4E714A9284600F04EFC04465F
:104110000CB12046BCE79DF850003B494875002093
:10412000B6E72DE9F0419AB000263748847D007D3E
:10413000A04202DC1AB0BDE8F0813349096801EB06
:10414000C40106AB07AA486808A900F0E1FA08A96B
:1041500052A000F0B5FC0025BAE02B48008B0121ED
:10416000A9400840D8B122214EA000F0A9FC284661
:1041700000F00EFC24492431471839464AA000F0CB
:104180009FFC222147A000F09BFC284600F000FC89
:104190001D492431084410A941F825008EE0284625
:1041A00000F0F6FB18492431085810A941F8250001
:1041B0001548C07D30B910A850F825103BA000F07C
:1041C0007FFC7BE074E000002D2D2D2D2D2D2D2D5D
:1041D0002D2D2D2D2D2D2D2D2D2D2D2D2D2D2D2D0F
:1041E0002DBAAFCAFD204944202D2D2D2D2D2D2D6A
:1041F0002D2D2D2D2D2D2D2D2D2D2D2D2D2D2D2DEF
:104200002D2D2D2D200D0A008800002025732069FA
:10421000642069733A0D0A3058253038580D0A0069
:104220004845583A305825580D0A00003136BDF837
:10423000D6C6B2CECAFDCFD4CABE210D0A00000038
:104240004445433A256C750D0A0000003130BDF835
:10425000D6C6B2CECAFDCFD4CABE210D0A00000018
:1042600052756E2054696D652043616C63756C6195
:1042700074696F6E204F4E0D0A00000052756E205B
:1042800054696D652043616C63756C6174696F6E10
:10429000204F46460D0A0000100800400D0A257305
:1042A000280000002563000025730000256C7500C0
:1042B00010A850F8251095A000F002FC9DF81C00F5
:1042C000401EA84202D093A000F0FAFB681CC5B2C1
:1042D0009DF81C008542FFF640AF8FA000F0F0FB78
:1042E000FFF741FE8D48407D0B280DD2DFE800F03E
:1042F000060D151E27323F4E5F72870087490968F9
:1043000051F834008047064690E0844A126852F81B
:10431000341010988847064688E0804B1B6853F895
:104320003420DDE91001904706467FE07B4F3F686F
:1043300057F8343010A807C89847064676E0DFF8EB
:10434000DCC1DCF800C05CF8347010A80FC8B847B6
:1043500006466BE01498DFF8C4C10090DCF800C09A
:104360005CF8347010A80FC8B84706465EE0DDE977
:104370001401DFF8A8C1CDE90001DCF800C05CF849
:10438000347010A80FC8B84706464FE0DDE9141294
:104390001698DFF888C1CDE900120290DCF800C061
:1043A0005CF8347010A80FC8B84706463EE0DDE957
:1043B0001423DDE91610DFF864C1CDE90023CDE94F
:1043C0000210DCF800C05CF8347010A80FC8B847C1
:1043D00006462BE0DDE9163218991598CDE9023230
:1043E000049101901498DFF834C10090DCF800C00B
:1043F0005CF8347010A80FC8B847064616E0DDE92F
:104400001623DDE91810CDE90223CDE90410DDE91A
:104410001401DFF808C1CDE90001DCF800C05CF848
:10442000347010A80FC8B847064600BF00BFFFF79A
:10443000ADFD9DF8180001280CD13848C07D20B989
:10444000314637A000F03CFB07E0314636A000F0D3
:1044500037FB02E033A000F033FB304890F8EC006B
:1044600088B12E48D0F8F0000A21B0FBF1F201FB30
:1044700012072A48D0F8F000B0FBF1F83A4641465E
:104480002CA000F01DFB00BF54E670B53148008839
:1044900000F40040002833D02E48057800202E4933
:1044A00048551E4881682C48884704461CB91B495A
:1044B000C868804721E02848FFF74CFA0546012DDF
:1044C00000D02C46CCB1012C06D0022C08D0032CF5
:1044D0000AD0042C10D10BE020A000F0F1FA0BE080
:1044E00021A000F0EDFA07E022A000F0E9FA03E0D5
:1044F00023A000F0E5FA00BF00BF002015490880A6
:1045000070BD0146086870470160704730582558F3
:10451000000000002C00000029000000880000209E
:104520003D256C753B0D0A003D305825583B0D0A62
:104530000000000046756E6374696F6E2052756EE0
:104540002054696D653A25642E2531646D730D0A1A
:10455000000000002C000020A0010020BAAFCAFD1E
:10456000B4EDCEF3210D0A00B2CECAFDB4EDCEF308
:10457000210D0A00B2CECAFDCCABB6E0210D0A0077
:10458000CEB4D5D2B5BDC6A5C5E4B5C4BAAFCAFDD3
:10459000210D0A0002460AE010780B78984201D0FB
:1045A00001207047107800B902E0521C491CF3E763
:1045B00000BF0020F5E706E002780A70027802B931
:1045C00002E0401C491CF7E700BF7047014600208D
:1045D00005E00A7802B903E0421CD0B2491CF8E7B2
:1045E00000BF704710B50246012000E050430B1E8B
:1045F000A1F10104E1B2F9D110BD2DE9F043074664
:104600000E4600254FF00A083C46002030601FE0AF
:104610002078392802DC207830280ADA20784628E9
:1046200002DC2078412804DA2078582809D1012DAD
:1046300007D12078412801DB4FF01008681CC5B273
:1046400005E0207800B904E00120BDE8F083641C97
:10465000DEE700BF3C46B8F1100F0FD1032D01DAA1
:104660000220F2E72078302806D16078582803D15C
:10467000A41CA81EC5B204E00320E6E70DB904207F
:10468000E3E71BE00DB1681EC5B22078392806DCCF
:104690002078302803DB2078A0F1300902E0207870
:1046A000A0F1370929464046FFF79CFF316809FB16
:1046B00000103060641C207800B900E0E2E700BF21
:1046C0000020C2E710B50446002010700BE02078EF
:1046D0000870641C491C1078401C107010789842B7
:1046E00001DB012010BD2078202802D0207800288E
:1046F000EDD10020087000BFF4E70146491C00E03E
:10470000491C0878202801D10029F9D10878704780
:104710002DE9FF4F85B08046894600270020049090
:104720000390012002904FF0000B002544461DE04D
:104730002078202816D005F07F00052812DA0DB960
:1047400045F0800505F07F00042803D120782A2851
:1047500000D00EE0207805F07F010DF80100681C04
:10476000C5B202E0852D00D103E0641C207800284A
:10477000DED100BF8DB1002005F07F010DF80100F2
:10478000CBA16846FFF706FF18B900210898017011
:1047900002E001210898017000254FF0000A44460C
:1047A00014E0641C0AF1010000F0FF0A20782028C0
:1047B00002D020782A2809D12046FFF79EFF06461E
:1047C000282E03D02A2E01D0CDF810A0207828283A
:1047D00002D020780028E4D14446049810B104980F
:1047E000401C04444FF0000A002654E0207810B921
:1047F0004FF0010A50E02078282803D116B9781C20
:10480000C7B213E02078292808D13EB917B1781E25
:10481000C7B201E04FF0010A47B93DE020782228F5
:1048200004D10EB9012000E00020064647B92078E7
:1048300020282FD0207889F8000009F1010929E00B
:1048400020782C2804D101200290681CC5B214E005
:104850002078202811D0207828280ED04DB9BBF11F
:10486000050F06DA20780DF80B000BF1010000F0BF
:10487000FF0B0298401CC0B20290012F0AD102988F
:10488000022807D10298401CC0B202900398401C35
:10489000C0B20390641CA9E700BF0398012809D1A6
:1048A00000200DF80B0082A16846FFF773FE08B9DF
:1048B00000200390079903980870002089F80000F1
:1048C000504609B0BDE8F08FF0B50346154600200C
:1048D00000220026002455E01F782C2F01D104B9B6
:1048E00001221F78292F01D01F780FB904B94AE09F
:1048F000002E34D11F78302F02DB1F78392F11DDC5
:104900001F78612F02DB1F78662F0BDD1F78412F88
:1049100002DB1F78462F05DD1F78582F02D01F7845
:10492000782F0CD102B12EE01F78612F03DB1F78A6
:10493000203F0F7001E01F780F70491C1FE01F78A7
:10494000222F04D102B11EE00126012417E01F78B6
:10495000202F14D01F782C2F11D0FF2613E01F78A2
:10496000222F00D1002402B10DE044B11F785C2F4A
:1049700002D15B1C471CF8B21F780F70491C471C02
:10498000F8B25B1CA8E700BF00270F702E70F0BDC7
:1049900002460020002105E0474B5B5C0344D8B28F
:1049A0004B1CD9B29142F7DB70472DE9F043B5B00B
:1049B00005460F460024002604E000213E488155AC
:1049C000701CC6B20A2EF8DB06E06D1C287818B9F8
:1049D000012035B0BDE8F08328782828F5D16D1C7A
:1049E00061E034AA69462846FFF76EFF0646354463
:1049F0009DF8D00020B1012827D0FF284CD149E0F4
:104A00009DF8000000B333A96846FFF7F6FD06469F
:104A10000EB10220DDE72046FFF7BAFF26490A3132
:104A2000339A0A50A1F12400008B0121A140884350
:104A300021491A39088304211F480155601CC4B25A
:104A40000A2C01DD0320C4E726E06846FFF7BEFD1F
:104A5000401C00F0FF082046FFF79AFF16490A3174
:104A600000EB010949466846FFF7A5FD12481A38D0
:104A7000018B0120A040014388B20F491A390883F5
:104A80000D4800F80480601CC4B20A2C01DD03202C
:104A90009FE701E002209CE700BF2878292801D089
:104AA000287800B900E09CE700BF3C70002090E748
:104AB000766F696400000000A200002070470000CB
:104AC0000FB4044910B503AA029800F035FC10BCDD
:104AD0005DF814FB280000200FB41CB5074B06AA94
:104AE0007B4469460090059800F0F7FB002069467A
:104AF00000F006FC1CBC5DF814FB00001D08000063
:104B000070B5044685690068C10601D5302600E00D
:104B10002026C00707D070BDD4E901213046904758
:104B2000206A401C20626D1EF6D570BD70B504462B
:104B300085690078C00707D170BDD4E90121202024
:104B40009047206A401C20626D1EF6D570BD70B57E
:104B50000C460546012A05D02878800600D5EA696A
:104B6000002302E0012305E05B1C934202D2E05CDB
:104B70000028F9D1A869E618C01AA861286A184463
:104B800028622846FFF7BCFF04E0D5E9012114F8AC
:104B9000010B9047B442F8D32846FFF7C7FF70BD1A
:104BA0002DE9F0410646002410687529314616A506
:104BB00010D0AFF30080002802DA404213A507E0CE
:104BC00031688A0701D512A502E0490704D511A56D
:104BD000012401E0AFF3008000210A2206F124073E
:104BE00009E0B0FBF2FCB0FBF2F302FB1C0030303A
:104BF00078541846491C0028F3D123462A463046EB
:104C0000BDE8F04100F0FCB8000000002D000000FD
:104C10002B0000002000000070B504460D46214620
:104C20001068AFF300802188090502D50F4A7A4445
:104C300002E00E4A7A440E32002104F1240305E01A
:104C400000F00F060009965D5E54491C0028F7D15C
:104C500020780023000704D5702D02D009B102236B
:104C600011322046BDE8704000F0CAB81826000096
:104C70002DE9F05F894604464FF0000ADFF874B171
:104C8000FB44C0F820A02046E1688847002874D083
:104C9000252806D0D4E901219047206A401C2062D3
:104CA000F1E700265F462046E16888472028054650
:104CB00007DB312D05D2781910F8200C08B1064316
:104CC000F1E7B00701D526F00406C4F81CA00027C0
:104CD000C4F818A02A2D09D0284601F08DF838B361
:104CE00004EB8708303DC8F8185019E059F8041B48
:104CF000204604EB87029161E1688847012F054651
:104D000018D1E069002820DA26F020061DE0D8F846
:104D1000180000EB800005EB40003038C8F81800A0
:104D20002046E1688847054601F066F80028EED184
:104D3000012F0AD02E2D08D12046E16888477F1C1C
:104D40000546022F46F02006C4DBA069002803DADE
:104D5000404246F00106A061F00701D026F010069F
:104D60006C2D0BD0682D09D04C2D39D06A2D35D043
:104D7000742D35D07A2D33D016E038E0E1682F4617
:104D800020468847B842054609D16C2F26D04FF4FB
:104D90008060E168064320468847054604E06C2FA2
:104DA0001AD04FF4807006430DB3A5F141001928C5
:104DB00002D8203546F400664A4629462046266039
:104DC0004E46FBF70FFA80B101280BD0F61D26F0F6
:104DD000070000F1080956E74020E4E78020D8E703
:104DE0000020D6E706F104094DE7284652E7206A7D
:104DF000BDE8F09FEE250000704770477047704790
:104E00002DE9F0470D4699469246044600F12408E4
:104E10000168880604D5E06921F01001216000E0F6
:104E20000120A84201DD471B00E00027A1697A1993
:104E300002EB0900081AA0612078C00602D42046BF
:104E4000FFF75EFE002608E0D4E901211AF806000B
:104E50009047206A401C761C20624E45F4DB207887
:104E6000C0060AD52046FFF74BFE06E0D4E9012133
:104E700030209047206A401C2062381EA7F10107AD
:104E8000F4DC07E0D4E9012118F805009047206A16
:104E9000401C2062281EA5F10105F3DC2046FFF727
:104EA00045FE2078000602D50220BDE8F0870120EB
:104EB000FBE770472DE9FF4F0C461E464FF0FF37CA
:104EC0008BB0D2E90001DDF860800A908A46C1F318
:104ED0000A5505B93D46002108464FF00000BAF1D9
:104EE000000F00F4400005DA00EB80004FF44001B1
:104EF00001EA50004FEA9059B9F1010F00DDB946BF
:104F00000A9850EA4A000ED044F61050A5F2FF3538
:104F100045432F14B8F1000F1ED07542291E1EDD27
:104F2000C9F100021CE0B8F1010F4FF0000001D000
:104F3000302103E0F24305E02154401CB042FBDB8A
:104F400030460022002121540B99C1F80880C1E9A4
:104F500000200FB0BDE8F08FBD1B6D1CDEE74A4698
:104F600000DA694206A800F083FA06AB93E807006E
:104F700003AB83E8070050460A9900F061FB8DE817
:104F80000700A0F500501F3800900398002D0ADD9F
:104F900042F21F014A460844002303A903906846D1
:104FA00000F0CAFD09E0A0F500504A461F38002372
:104FB00003A90390684600F0D4FD8DE807000004C3
:104FC000000C03D04FF0FF30410800E01046B8F16C
:104FD000000F03D00022009215461EE0751E05D476
:104FE00000F0C0F9303262556D1EF9D5B34601228A
:104FF000084302D000227F1C04E02078302801D131
:1050000000227F1E002A099784D01DE0112D07DAA7
:1050100000F0A8F9303262556D1C50EA0102F5D15A
:10502000084302D00098C8B10EE00021681E05E0D8
:10503000235C625C63542254401E491C8142F7DBAE
:10504000AB46A81B401E0990002004F80B000B98EB
:10505000099AC0F80880C0E9002B7AE711264FF0C2
:10506000000857E72DE9F04F88460446D21D22F08C
:10507000070191B0D1E90001CDE90A0100F0A8FED5
:1050800002460B98C00F01D02D2007E02068810751
:1050900001D52B2002E0202101EAC000032A09905B
:1050A00001D0072A05DB03464146204600F0A0F95F
:1050B0000BE12078800601D5E06900E00620B8F118
:1050C000650F814606D0B8F1660F18D0B8F1670FAA
:1050D00070D131E00020B9F1110F009001DB1123F4
:1050E00001E009F101030AAA01A90CA8FFF7E2FEF9
:1050F000DDE90C70002609F10105834647E0012037
:105100004B4600904FF000470AAA01A90CA8FFF7F0
:10511000D1FEDDE90DB00C995D46002610B909F10C
:1051200001000D18B9EB050003D4C0F1FF3609F1F9
:105130000105A5EB09002BE0B9F1010F01DA4FF0F1
:1051400001090020B9F1110F0090484601DD11233B
:1051500000E003460AAA01A90CA8FFF7ABFEDDE9AF
:105160000C704D4600268346207800070AD4AB45D4
:1051700000DA5D4601A8012D04DD411911F8011C7A
:10518000302907D04F4502DA17F1040F04DA012065
:1051900082460FE06D1EEEE7002F02DCED1B3E4461
:1051A00003E0781CA84200DD7D1CB81B00F1010A59
:1051B0004FF000472078000703D4AA4501DB4FF0E9
:1051C000FF3A0021B7F1004F0DF143088DF843106D
:1051D00024D002202B23002F01DA7F422D230A2125
:1051E000021EA0F1010000DC5FB197FBF1FC97FB10
:1051F000F1F201FB1C7C17460CF1300C08F801CDD4
:10520000EEE7A8F1010003702188090501D54521C9
:1052100000E06521A0F1010800F8011C09980FA920
:10522000A1EB0807FF1D00B10120411901EBEA7055
:10523000A1693844081A401EA0612078C00602D433
:105240002046FFF75DFC099828B1D4E90121904779
:10525000206A401C20622078C00622D52046FFF735
:105260004FFC1EE0002E04DBB34502DD01A8805D8B
:1052700000E03020D4E901219047206A401C2062E0
:10528000761CAAF101005FEA000A0AD100F066F874
:10529000C0680168405CD4E901219047206A401C45
:1052A0002062281EA5F10105DCDC07E0D4E901211C
:1052B00018F8010B9047206A401C2062381EA7F1A5
:1052C0000107F3DC2046FFF731FC032011B041E673
:1052D00001694A1C02610878704700B58FB0CDE9BA
:1052E00001310021059105497944CDE903101146AA
:1052F0006846FFF7BDFC0FB000BD0000E5FFFFFFF3
:105300000A6802F8010B0A60704710B5436913B1CF
:10531000AFF3008001E0FFF71AFC012010BD127806
:1053200000F124010A7000224A700122EDE71168A1
:105330004FF0FF32E9E70000074B70B50D467B44A4
:10534000FFF7CBFF0446284600F004F910B14FF0F8
:10535000FF3070BD204670BD99CAFFFF00487047FE
:105360008802002030B5B0F10A024FEA900E71F1C8
:1053700000034EEA817EB0EB0E0061EB91014FEA33
:10538000101E4EEA017E10EB0E0041EB11114FEAA8
:10539000102E4EEA016E10EB0E0041EB11214FEA88
:1053A000104E4EEA014E10EB0E0041EB1141401839
:1053B00041F100014FEAD00040EA41704FEAD101CB
:1053C00010EB80054FEA810444EA907444EB010439
:1053D0006D1944EB0404521BA3414FF0000348BF76
:1053E0000A3200D530BD401C41F1000130BD000043
:1053F0002DE9F0411F46044603260168072A01F4FF
:10540000006004DB08B116A505E016A503E008B1AD
:1054100015A500E015A521F010002060A069C01EB0
:10542000A0610FB1401EA0612046FFF769FB4FB19C
:10543000D4E9012138469047206A401C2062C01CF4
:10544000206206E0206AFAE7D4E9012115F8010B91
:105450009047761EF8D22046FFF768FBBDE8F08142
:105460004E414E006E616E00494E4600696E660008
:105470002DE9F047814616468AB0354878440DC874
:105480008DE80D0032487844801C03AC0DC884E8D8
:105490000D0041F69B300844372190FBF1F290FB60
:1054A000F1F5A5F1800501FB12041B3C02D5644215
:1054B000012000E00020DFF898A080460027FA4491
:1054C000AAF1BE0A0EE0E0070AD03246684607EBB2
:1054D000470101230AEB810100F043FB8DE807003F
:1054E00064107F1C002CEED1194F7F44AE3F19E0B1
:1054F000E80715D007EB04100DF1180A90E80E002C
:105500008AE80E00C068F04201D19819089032462E
:10551000012306A903A800F024FB03AB83E80700DE
:105520006D10641C002DE3D14FF001033246694633
:10553000B8F1000F03A802D000F0FEFA01E000F07D
:1055400010FBC9E90001C9F808200AB0BDE8F087DE
:10555000801E0000007B00F080007047004870470C
:10556000680200207546FFF7F9FFAE460500694660
:10557000534620F00700854618B020B5FCF7D8FC4C
:10558000BDE820404FF000064FF000074FF0000844
:105590004FF0000B21F00701AC46ACE8C009ACE8C5
:1055A000C009ACE8C009ACE8C0098D46704710B529
:1055B0000446AFF300802046BDE81040FAF73BBE3A
:1055C0004FF0013C50F8042B51F8043B9A4221D192
:1055D000A2EB0C03934313EACC1317D150F8042B1E
:1055E00051F8043B9A4215D1A2EB0C03934313EA02
:1055F000CC130BD150F8042B51F8043B9A4209D13B
:10560000A2EB0C03934313EACC13DBD04FF0000062
:10561000704700BFD01A01BAB1FA81F101F0180148
:1056200022FA01F0CB40C1F12001DBB2C0B2C01AB6
:105630002CFA01F3D11A914311EAC311E6D1704754
:105640005FEA400C08BF91F0000F4FEA8C234FEA4D
:10565000C12243EA51514FEA1C5018BF00F5F040F7
:105660004FEA300018BF41F000415FEA6C5C00F087
:105670002980BCF1FF3F08BF40F080407047130C09
:1056800006BF12044FF0100C4FF0000C130E04BFB5
:1056900012020CF1080C130F04BF12010CF1040CE0
:1056A000930F04BF92000CF1020CD30F04BF520001
:1056B0000CF1010C11464FF00002A0F11F00A0EB0D
:1056C0000C00704711F0004F08BF704731F00041E7
:1056D0003FF4D5AF0B0C06BF09044FF0100C4FF090
:1056E000000C0B0E04BF09020CF1080C0B0F04BFD9
:1056F00009010CF1040C8B0F04BF89000CF1020CA2
:10570000CB0F04BF49000CF1010CCCF12003A0EB3E
:105710000C0022FA03F302FA0CF241EA030100F151
:105720000100704720F07F4C80EA030023F07F47A0
:10573000ACEB070303F57C5300F0004003F1FF03DB
:105740002DE980494FEA154B09B44FEA144325EA85
:105750000B4E24EA03480FF2042606EB13274908F0
:105760003E785FEA320203FB0667C7F5000707FBD6
:1057700006F64FEA54374FEAD64606F1020607FB13
:10578000066CCCF1005C4FEA1C472CEA074C07FB87
:1057900006F40CFB06F504EB15464FEA961634BFEB
:1057A00000204FF000404FEAD13706FB07FC4FEADC
:1057B0001C4C0CFB0BF7D21B03FB0CF761EB070136
:1057C0000CFB0EF7B0EB074072EB17420CFB08F72F
:1057D00034BFA2EB0742B2EB074261EB17414FEA3D
:1057E0000C444FEA910706FB07FC4FEA1C4C0CFBEC
:1057F0000BF7B0EBC74072EB573203FB0CF734BF2B
:10580000A2EBC742B2EBC74261EB57310CFB0EF77C
:10581000B0EBC70072EB57720CFB08F734BFA2EB7A
:10582000C702B2EBC70261EB5771039F4FEA816178
:1058300041EA921104EBCC044FEAD1374FEA82627D
:1058400006FB07FC42EA90124FEA80604FEA1C4CCC
:105850000CFB0BF7D21B03FB0CF761EB07010CFBF6
:105860000EF7B0EB074072EB17420CFB08F734BFA2
:10587000A2EB0742B2EB074261EB17414FEA8C55AE
:105880004FEA910704EB9C2406FB07FC4FEA1C4CF3
:105890000CFB0BF7B0EBC74072EB573203FB0CF776
:1058A00034BFA2EBC742B2EBC74261EB57310CFBEE
:1058B0000EF7B0EBC70072EB57720CFB08F734BF62
:1058C000A2EBC702B2EBC70261EB577115EB4C2597
:1058D0004FEA816141EA92114FEA82624FEAD13781
:1058E00042EA901206FB07FC44F100044FEA806094
:1058F0004FEA1C4C0CFB0BF7D21B03FB0CF761EBC4
:1059000007010CFB0EF7B0EB074072EB17420CFBE4
:1059100008F734BFA2EB0742B2EB074261EB174135
:1059200015EB1C154FEA813141EA92414FEA823270
:1059300042EA90424FEA80304FEA0C7644F100048C
:1059400048EA03434EEA0B484FF0000EB2EB080C56
:1059500071EB030724BF624639464EEB0E0E4FF043
:10596000000B0018524149414BEB0B0BB2EB080CFA
:1059700071EB03077BF1000B24BF624639464EEB07
:105980000E0E4FF0000B0018524149414BEB0B0B30
:10599000B2EB080C71EB03077BF1000B24BF6246EE
:1059A00039464EEB0E0E51EA020718BF46F00106CB
:1059B00016EB0E7655F1000254F1000103D5BDE857
:1059C0008901BDE80088BDE88901BDE80048B61935
:1059D000524141EB0101A3F10103704780807F7EBA
:1059E0007D7C7B7A79787776767574737271717055
:1059F0006F6E6E6D6C6C6B6A6A6968686766666507
:105A00006464636362616160605F5F5E5E5D5D5C94
:105A10005C5B5B5A5A595958585757565655555505
:105A20005454535352525251515050504F4F4F4E65
:105A30004E4D4D4D4C4C4C4B4B4B4A4A4A494949B3
:105A400048484847474747464646454545444444F5
:105A5000444343434342424242414141002B9C461E
:105A600030D477002BD01CB54FEA370703B44FF082
:105A700010004FF01001BAF1000F06D0BCF1000F7A
:105A8000DCBF40F0080040F008014FF000000FBC00
:105A9000BDE810400BF1010BBBF1010F08BF5FEA3D
:105AA000170722BF12F1010211F101014FF000416D
:105AB00043F1000300F0004043EA00007047F9D3CF
:105AC0005708D0E746EA064613F1400F4FEA16465C
:105AD0001FDD13F1200FDFBF16430A4600212033DC
