:020000040800F2
:10000000280D0020A56B00084B0600084D060008CF
:1000100051060008550600085906000800000000B7
:100020000000000000000000000000005D06000865
:100030005F06000800000000610600086306000873
:10004000BF6B0008BF6B0008BF6B0008BF6B0008E8
:10005000BF6B0008BF6B0008BF6B0008BF6B0008D8
:10006000BF6B0008BF6B0008BF6B0008BF6B0008C8
:10007000BF6B0008BF6B0008BF6B0008BF6B0008B8
:10008000BF6B0008BF6B0008BF6B0008BF6B0008A8
:10009000BF6B0008BF6B0008BF6B0008BF6B000898
:1000A000BF6B0008BF6B0008BF6B0008BF6B000888
:1000B00023060008BF6B0008498D0008BF6B0008CD
:1000C000BF6B0008BF6B0008BF6B0008BF6B000868
:1000D000BF6B00082F680008BF6B0008BF6B0008EB
:1000E000BF6B0008BF6B0008BF6B0008BF6B000848
:1000F000BF6B0008BF6B0008BF6B0008BF6B000838
:10010000BF6B0008BF6B0008BF6B0008BF6B000827
:10011000BF6B0008BF6B0008BF6B0008BF6B000817
:10012000BF6B0008BF6B0008BF6B0008BF6B000807
:1001300000F002F800F076F80AA090E8000C824483
:100140008344AAF10107DA4501D100F06BF8AFF260
:10015000090EBAE80F0013F0010F18BFFB1A43F0A5
:100160000103184784EF0000A4EF00000A444FF099
:10017000000C10F8013B13F0070408BF10F8014B06
:100180001D1108BF10F8015B641E05D010F8016B4B
:10019000641E01F8016BF9D113F0080F1EBF10F8AF
:1001A000014BAD1C0C1B09D16D1E58BF01F801CBD2
:1001B000FAD505E014F8016B01F8016B6D1EF9D555
:1001C0009142D6D37047000000230024002500266A
:1001D000103A28BF78C1FBD8520728BF30C148BFAA
:1001E0000B60704766290DF02C80642909F0C083EC
:1001F000752909F0BD83782909F0F68363290AF08F
:10020000548073290AF05980002070471FB50AF006
:100210008DF80400002000210BF074FEE0601FBD8B
:1002200010B510BD0AF08AF91146FFF7EFFF00F094
:1002300009F80AF0A8F903B4FFF7F2FF03BC06F0CF
:100240009BFA00008AB006F037FB00F0BDF806F01C
:1002500029FA4A4806F09FFA4948416848208847E9
:1002600000F0F4FA00F01AFB03F021FF7F2003F006
:1002700096FF44A300221146104604F071F900F0E5
:10028000EAFC05F0EFF906F06CFB404805F013FFBF
:1002900006F0A8F900BF03F0A3FC0028FBD13CA3A3
:1002A00000220A21104604F05BF93BA3002214212E
:1002B000104604F055F93AA300221E21104604F01E
:1002C0004FF939A300222821104604F049F953E0E0
:1002D00007AA08A909A803F0D0FC58B900F032FD1C
:1002E00004AA05A906A800F080FD01AA02A903A896
:1002F00000F053FD2E490998086008984860079857
:100300008860002006F0B3F980460CF09BF80646A2
:10031000284A294B0CF0E6F804460BF009FE244964
:10032000C860264A2649224806F02AF823480022B7
:100330000A210368282004F0B2F920480022142181
:100340004368282004F0ABF91C4800221E21836872
:10035000282004F0A4F9194800222821C36808467F
:1003600004F09DF91748007830B11121144805F0C8
:10037000E5FD002013490870AAE7000020A107004E
:10038000C80000205458446174613A0006000020FF
:100390006C696E6B313A00004C696E6B323A00004A
:1003A000626173653A000000636C61773A20000077
:1003B000BC010020DBF97E6ABC74933FCC010020B5
:1003C000DC0100200E00002008B54FF4C06006F0EC
:1003D000DFFF19208DF8000000208DF801000120BA
:1003E0008DF802008DF80300684606F0D6FF4FF442
:1003F000C06006F0CDFF1C208DF8000000208DF8B5
:10040000010002208DF8020001208DF803006846EB
:1004100006F0C3FF4FF4C06006F0BAFF1D208DF850
:10042000000000208DF8010003208DF8020001205B
:100430008DF80300684606F0B0FF4FF4C06006F088
:10044000A7FF1E208DF8000000208DF80100042079
:100450008DF8020001208DF80300684606F09DFF2C
:100460004FF4C06006F094FF32208DF800000020A9
:100470008DF8010005208DF8020001208DF80300A1
:10048000684606F08AFF4FF4C06006F081FF362010
:100490008DF8000000208DF8010006208DF8020084
:1004A00001208DF80300684606F077FF4FF4C06026
:1004B00006F06EFF37208DF8000000208DF8010057
:1004C00007208DF8020001208DF80300684606F031
:1004D00064FF4FF4C06006F05BFF2C208DF8000035
:1004E00001208DF8010000208DF8020001208DF818
:1004F0000300684606F051FF4FF4A06006F048FF85
:1005000025208DF8000000208DF801008DF80200F4
:1005100001208DF80300684606F03FFF4FF4A0600D
:1005200006F036FF26208DF8000000208DF801002F
:1005300001208DF802008DF80300684606F02DFFBB
:100540004FF4A06006F024FF27208DF80000002063
:100550008DF8010002208DF8020001208DF80300C3
:10056000684606F01AFF4FF4A06006F011FF342031
:100570008DF8000000208DF8010003208DF80200A6
:1005800001208DF80300684606F007FF4FF4A060D5
:1005900006F0FEFE07208DF8000001208DF8010016
:1005A00000208DF8020001208DF80300684606F057
:1005B000F4FE4FF4A06006F0EBFE06208DF800007C
:1005C00001208DF801008DF802008DF803006846C7
:1005D00006F0E3FE4FF4A06006F0DAFE17208DF877
:1005E000000001208DF8010002208DF8020001209A
:1005F0008DF80300684606F0D0FE4FF4A06006F0C8
:10060000C7FE28208DF8000001208DF8010003208E
:100610008DF8020001208DF80300684606F0BDFE4B
:1006200008BD10B50121880707F02AFE0D48008893
:10063000401C0C49088008460088012804D100208D
:10064000088001200849087010BD704700BFFEE710
:1006500000BFFEE700BFFEE700BFFEE77047704740
:10066000704770470C0000200E0000200CB50020E1
:10067000019000906C48006840F480306A4908603E
:1006800000BF6948006800F4003000900198401CE9
:100690000190009818B90198B0F5A06FF1D16248A7
:1006A000006800F4003010B10120009001E000204B
:1006B00000900098012843D15C48006840F0100089
:1006C0005A4908600846006820F0030008600846A0
:1006D000006840F002000860534840685249486092
:1006E0000846406848600846406840F480604860BA
:1006F0000846406820F47C1048600846406840F492
:10070000E81048600846006840F08070086000BF4C
:100710004548006800F000700028F9D04248406861
:1007200020F00300404948600846406840F002005D
:10073000486000BF3C48406800F00C000828F9D130
:100740000CBD10B5FFF792FF10BD10B5364800681C
:1007500040F00100344908600846406834490840C8
:100760003149486008460068324908402E4908600F
:100770000846006820F4802008600846406820F49D
:10078000FE0048604FF41F008860FFF7DAFF4FF06B
:1007900000602949086010BD10B50021002000222A
:1007A000214B5B6803F00C0121B1042906D0082914
:1007B00028D107E0214B224C236027E01F4B204C1F
:1007C000236023E0184B5B6803F47010164B5B68E2
:1007D00003F48032022303EB904022B9194B4343C8
:1007E000174C23600DE0104B5B6803F4003323B11A
:1007F000144B4343124C236003E0104B4343104C13
:10080000236003E00D4B0E4C236000BF00BF064B7E
:100810005B68C3F303130C4CE15C094B1B68CB40D2
:10082000074C236010BD0000001002400020024071
:100830000000FFF8FFFFF6FE08ED00E000127A006E
:100840001000002000093D001400002008B501211F
:10085000242006F035FB4FF48070ADF80000102026
:100860008DF8030003208DF802006946094804F062
:10087000B1FF4FF48071074805F059F80420ADF836
:1008800000006946044804F0A5FF0421024805F071
:100890004EF808BD000801400014014008B50121D0
:1008A000102006F00DFB48208DF803004FF4C040E7
:1008B000ADF8000003208DF8020069460C4804F0F2
:1008C00089FF08BD10B561244FF40051084805F0B8
:1008D00014F800B96224204610BD10B563244FF40B
:1008E0008041034805F009F800B96424204610BD92
:1008F0000010014010B5022005F0EDFE10BD08B556
:100900000121102006F0DCFA4FF4C050ADF80000D1
:1009100010208DF8030003208DF8020069468648F8
:1009200004F058FF4FF4C051834805F000F808BDAB
:1009300010B58148406820F470407F4948600846FF
:10094000406840F44050486001207C4908607C4980
:10095000C1F8B001FFF7CEFF002078490860FFF72B
:10096000C9FF00207649C1F8B00110BD10B572482A
:10097000406820F47040704948600846406840F480
:100980004050486000206D49091D08606C49C1F85D
:10099000AC01FFF7AFFF01206849091D08606849F5
:1009A000C1F8AC01FFF7A6FF10BD10B500246248E6
:1009B000406820F47040604948600846406840F450
:1009C0000040486001205D490860FFF793FF012067
:1009D0005B49C1F8B001FFF78DFF07E0601CC4B2AE
:1009E000FA2C03DDFFF7C2FF012010BD5348803809
:1009F00000680028F2D15149091D086000BFF4E7E2
:100A000010B500204D49091D08604B48406820F48E
:100A10007040494948600846406840F4405048608A
:100A200000204749C1F8AC01FFF764FF01204349AA
:100A3000091D0860FFF75EFF00204149C1F8B001C1
:100A400010BD10B500203D49091D08603A484068B6
:100A500020F47040384948600846406840F44050EF
:100A6000486001203649C1F8AC01FFF743FF01207F
:100A70003249091D0860FFF73DFF00203049C1F8E9
:100A8000B00110BD70B504462B48406820F470409A
:100A9000294948600846406840F4405048600020BA
:100AA0002649091D0860002512E0E0092349086075
:100AB0006006040E01202249C1F8B001FFF71AFFB9
:100AC00000201E49091D0860FFF714FF681CC5B20D
:100AD000082DEADB70BD70B5054600241648406855
:100AE00020F47040144948600846406840F40040D3
:100AF0004860002615E000201049091D0860FFF736
:100B0000F9FE01200E49C1F8B0016006040E0B4841
:100B10008038006808B1601CC4B2FFF7EBFE701C9F
:100B2000C6B2082EE7DB15B9FFF78BFF01E0FFF730
:100B300067FF204670BD000000100140AC0122425A
:100B40000000224270B505460C46FFF7F1FED020AA
:100B5000FFF798FFFFF729FF18B1FFF707FF012004
:100B600070BD2846FFF78EFFFFF71FFF2046FFF7F7
:100B700089FFFFF71AFF18B1FFF7F8FE0120EFE732
:100B8000FFF7F4FE0020EBE770B504460025BC2C0F
:100B900001DB012510E0622C01DB02250CE02A2C90
:100BA00001DB032508E0142C01DB042504E00A2CFA
:100BB00001DB052500E0062529461A20FFF7C2FFC4
:100BC00070BD70B50446B4F57A7F01DD4FF47A74D8
:100BD000042C00DA04244FF47A7090FBF4F0401EE9
:100BE000C5B229461920FFF7ADFF0546264604EB9E
:100BF000D671C1F34F00FFF7C7FF70BD70B5044653
:100C0000FFF796FED020FFF73DFFFFF7CEFE204610
:100C1000FFF738FFFFF7C9FEFFF78AFED120FFF785
:100C200031FFFFF7C2FE0020FFF755FF0546FFF733
:100C30009DFE284670BD10B50446E006010E1C203E
:100C4000FFF780FF10BD10B50446E006010E1B2023
:100C5000FFF778FF10BD10B5FFF751FE80216B2024
:100C6000FFF770FF642005F05AFD00216B20FFF7AD
:100C700069FF0320FFF7E7FF0020FFF7DCFF3220CA
:100C8000FFF79FFF00213820FFF75CFF00216A205B
:100C9000FFF758FF00212320FFF754FF8021372062
:100CA000FFF750FF7520FFF7A9FF0446682C0BD112
:100CB00001216B20FFF746FF00216C20FFF742FF68
:100CC0003220FFF77EFF01E0012010BD0020FCE78D
:100CD0002DE9F04106460F4614461D46FFF728FE53
:100CE000002141EA4601C8B2FFF7CCFEFFF75DFEE6
:100CF00020B1FFF73BFE0120BDE8F0813846FFF749
:100D0000C1FEFFF752FEFFF713FE012101EB460182
:100D1000C8B2FFF7B7FEFFF748FE0DE0012C04D183
:100D20000020FFF7D8FE287003E00120FFF7D3FE74
:100D30002870601EC4B26D1C002CEFD1FFF716FEA8
:100D40000020D9E72DE9F84F6B46022241216820A7
:100D5000FFF7BEFF9DF801009DF8001040EA01205A
:100D60000FFA80FA50460BF056FB804600224B4BA0
:100D70000BF0CCF906464A4A4A4B0BF00BF90446F5
:100D80000BF0D6F88346484958460CF0E7F804467D
:100D90000CF048F800B2BDE8F88F2DE9FC4104469C
:100DA0000D4616466B46062243216820FFF790FF4A
:100DB0000746BFB99DF801009DF8001040EA0120E8
:100DC00000B220809DF803009DF8021040EA012047
:100DD00000B228809DF805009DF8041040EA01202B
:100DE00000B230803846BDE8FC812DE9FC41044664
:100DF0000D4616466B4606223B216820FFF768FF2A
:100E00000746BFB99DF801009DF8001040EA012097
:100E100000B220809DF803009DF8021040EA0120F6
:100E200000B228809DF805009DF8041040EA0120DA
:100E300000B230803846BDE8FC812DE9F04105461E
:100E40000E4617469846FFF773FD002141EA45011B
:100E5000C8B2FFF717FEFFF7A8FD20B1FFF786FD28
:100E60000120BDE8F0813046FFF70CFEFFF79DFD45
:100E700000240CE018F80400FFF704FEFFF795FDCE
:100E800018B1FFF773FD0120EBE7601CC4B2BC4250
:100E9000F0DBFFF76BFD0020E3E70000004075404A
:100EA000A4703D0AD74342400000C84210B5C82391
:100EB0004FF48062F74940F6F63002F09BFC10BD1B
:100EC00010B586B00446F4A000680390F3A0006853
:100ED0000290F3A000680190F2A00068009004F076
:100EE000030003A9085C8DF8140003A8C4F3C10132
:100EF000405C8DF8150003A8C4F38111405C8DF8A7
:100F0000160004F0030002A9085C8DF8100002A886
:100F1000C4F3C101405C8DF8110002A8C4F3811133
:100F2000405C8DF8120005AA032140F2264002F031
:100F3000E7FB18B14FF0FF3006B010BD04AA032143
:100F400040F22A4002F0DCFB10B14FF0FF30F3E733
:100F5000019805900098049004F0040058B19DF8A1
:100F6000140040F001008DF814009DF8100040F0CE
:100F700001008DF8100004F0200058B19DF8150014
:100F800040F001008DF815009DF8110040F00100BF
:100F90008DF8110004F4807058B19DF8160040F0EF
:100FA00001008DF816009DF8120040F001008DF848
:100FB000120005AA03214FF4886002F0A1FB10B1D2
:100FC0004FF0FF30B8E704AA032140F2314002F0AD
:100FD00097FB10B14FF0FF30AEE7B348048100201B
:100FE000AAE71FB50446B048007A00F0030054F8A1
:100FF00020000190AC48007A00F0040010B1019884
:1010000040420190A848007AC0F3C10054F8200083
:101010000290A548007A00F0200010B102984042EA
:101020000290A148007AC0F3811054F82000039088
:101030009D48008900F4807010B1039840420390ED
:101040009A49019880FB0101800F40EA81000190DC
:101050009649029880FB0110820042EA917002904A
:101060009249039880FB0110820042EA917003903C
:101070000198000E8DF800000198000C8DF8010019
:101080000198000A8DF802000198C0B28DF80300A3
:101090006A4604214FF4747002F032FB18B14FF02D
:1010A000FF3004B010BD0298000E8DF800000298C9
:1010B000000C8DF801000298000A8DF802000298D9
:1010C000C0B28DF803006A4604214FF4757002F037
:1010D00017FB10B14FF0FF30E3E70398000E8DF8D7
:1010E00000000398000C8DF801000398000A8DF8A9
:1010F00002000398C0B28DF803006A4604214FF441
:10110000767002F0FDFACCE770B588B0064601A80B
:1011100001F0FDFCBDF804000021C90341EA50457F
:10112000C4036148007A00F0030056F820000590DF
:101130005D48007A00F0040010B105984042059027
:101140005948007AC0F3C10056F82000069056486E
:10115000007A00F0200010B10698404206905248F4
:10116000007AC0F3811056F8200007904E4800899D
:1011700000F4807010B10798404207900598C1179D
:10118000A0FB042301FB043100FB0510810041EAB0
:10119000927005900698C117A0FB042301FB04314F
:1011A00000FB0510810041EA927006900798C11774
:1011B000A0FB042301FB043100FB0510810041EA80
:1011C000927007900598000E8DF808000598000CA5
:1011D0008DF809000598000A8DF80A000598C0B23C
:1011E0008DF80B000698000E8DF80C000698000C88
:1011F0008DF80D000698000A8DF80E000698C0B212
:101200008DF80F000798000E8DF810000798000C5D
:101210008DF811000798000A8DF812000798C0B2E7
:101220008DF8130002AA0C214FF4257002F068FA21
:1012300008B070BD30B585B004461DA207CA02AB28
:1012400007C3C82C03DD4FF0FF3005B030BDC82008
:1012500090FBF4F0401E85B2280A8DF80000E8B239
:101260008DF801006A46022140F2162002F048FA89
:1012700010B14FF0FF30E8E702AA0C2140F6C12080
:1012800002F03EFA10B14FF0FF30DEE706488481ED
:101290000020DAE736D300084CCD6C000CC92C00D6
:1012A0003656760026466600F001002009E3CA02A1
:1012B000FEF2ABC4AAF1DFDFBBAFDFDF0146FC48C3
:1012C00080890880002070472DE9FC4706460F46BC
:1012D00006F0070010B1B7F5C86F03DD4FF0FF301F
:1012E000BDE8FC8738460BF0F1FD8146F1490BF073
:1012F000A3FC8046684601F08EFB9DF800000228A2
:1013000006D0042816D0082826D0102848D135E069
:101310004FF08D4140460BF021FE81460BF09EFDC3
:1013200084B2E54940460BF019FE81460BF096FD6C
:1013300085B238E04FF08C4140460BF00FFE8146FD
:101340000BF08CFD84B2DD4940460BF007FE814670
:101350000BF084FD85B226E04FF08B4140460BF048
:10136000FDFD81460BF07AFD84B2D54940460BF075
:10137000F5FD81460BF072FD85B214E04FF08A4115
:1013800040460BF0EBFD81460BF068FD84B2CD4981
:1013900040460BF0E3FD81460BF060FD85B202E0B4
:1013A0004FF0FF309CE700BF20128DF80400E0B240
:1013B0008DF8050028128DF80600E8B28DF80700B8
:1013C00006F00100A0B101AA02214FF4EA7002F078
:1013D00097F910B14FF0FF3082E70DF106020221BC
:1013E0004FF4927002F08CF910B14FF0FF3077E7B4
:1013F00006F00200A0B101AA02214FF4EC7002F045
:101400007FF910B14FF0FF306AE70DF106020221BB
:101410004FF4947002F074F910B14FF0FF305FE7B1
:1014200006F00400A0B101AA02214FF4EE7002F010
:1014300067F910B14FF0FF3052E70DF106020221BB
:101440004FF4967002F05CF910B14FF0FF3047E7AF
:10145000002045E738B504460020009004F0010064
:1014600020B19DF8000040F03000009004F0020030
:1014700020B19DF8000040F00C00009004F0040042
:1014800020B19DF8000040F0030000906A46012161
:101490004FF4A47002F034F938BD38B50446012C7D
:1014A00001DA012402E0042C00DD0424601EC0B235
:1014B00000906A46012140F24F1002F021F938BD38
:1014C00038B50446052094FBF0F085B228128DF85B
:1014D0000000E8B28DF801006A4602214FF4EF7077
:1014E00002F00EF938BD38B50446052094FBF0F043
:1014F00085B228128DF80000E8B28DF801006A4626
:1015000002214FF4ED7002F0FBF838BDF8B5054646
:101510000E464FF47A7095FBF0F000FB06F4200EB7
:101520008DF80000200C8DF80100200A8DF80200D3
:10153000E0B28DF803006A4604214FF4AE7002F069
:10154000DFF8F8BD38B50446052094FBF0F084B20E
:1015500020128DF80000E0B28DF801006A460221E9
:101560004FF4AD7002F0CCF838BD38B50446052014
:1015700094FBF0F084B220128DF80000E0B28DF8F8
:1015800001006A4602214FF4AC7002F0B9F838BD90
:1015900038B5044614B94FF0FF3038BD6A4604210F
:1015A0004FF4587002F0E9F810B14FF0FF30F4E753
:1015B0009DF8000000069DF8011040EA01409DF8EA
:1015C000021040EA01209DF803100843206000202B
:1015D000E3E738B50446200E8DF80000200C8DF8A6
:1015E0000100200A8DF80200E0B28DF803006A467F
:1015F00004214FF4587002F083F838BD38B5044622
:1016000014B94FF0FF3038BD6A4604214FF47170B1
:1016100002F0B3F810B14FF0FF30F4E79DF800008E
:1016200000069DF8011040EA01409DF8021040EAD2
:1016300001209DF80310084300EB8000800020602B
:101640000020E0E738B504461420B4FBF0F4200E87
:101650008DF80000200C8DF80100200A8DF80200A2
:10166000E0B28DF803006A4604214FF4717002F075
:1016700047F838BD38B5044664B120208DF8000025
:1016800028208DF8010030208DF8020038208DF8D8
:10169000030004E0A3220421684608F0C1FA6A4668
:1016A000042140F69E2002F02BF800F083FC38BDA8
:1016B000F001002000004843000040460000C04503
:1016C000000040450000C04438B5044664B1C02065
:1016D0008DF80000C2208DF80100C4208DF80200B2
:1016E000C6208DF8030004E08B220421684608F030
:1016F00097FA6A46042140F6982002F001F800F0BB
:1017000059FC38BD3EB504466CB1FDA1D1E90020BD
:101710008968CDE9002002916A4609214FF497605B
:1017200001F0EEFF3EBDF9A2D2E900109268CDE9CA
:10173000010200916A4609214FF4976001F0E0FF31
:10174000F0E73EB5044602208DF80000CA208DF86F
:101750000100E3208DF8020009208DF803006A469D
:101760000421682001F0CCFFA3208DF8000004F0D4
:10177000400048B1C0208DF80100C8208DF802005B
:10178000C2208DF8030006E0A3208DF801008DF83B
:1017900002008DF8030004F4C07048B1C4208DF835
:1017A0000400CC208DF80500C6208DF8060006E068
:1017B000A3208DF804008DF805008DF80600A32005
:1017C0008DF807008DF808008DF809006A460A2197
:1017D00040F6A72001F094FF04F0030018B1202088
:1017E0008DF8000002E0D8208DF800006A46012143
:1017F00040F6B62001F084FF04F0200018B101206B
:10180000FFF780FF02E00020FFF77CFF04F4C070C8
:1018100008B304F4807060B1B2208DF800008B2012
:101820008DF80100B6208DF802009B208DF8030092
:101830000BE0B0208DF8000080208DF80100B4206E
:101840008DF8020090208DF803006A46042140F6CE
:10185000A22001F055FF04F0010020B3F8208DF81C
:1018600000006A4601214FF40B6001F049FFFA21A4
:101870000720FFF729FD0720FFF7ECFD0120FFF708
:101880000CFE6420FFF71CFE4FF4FA70FFF72BFEEE
:10189000C821A148FFF73AFE2820FFF753FE0A208F
:1018A000FFF763FE08E0D8208DF800006A460121AA
:1018B0004FF40B6001F024FF04F0020018B1D920AE
:1018C0008DF8000002E0D8208DF800006A46012162
:1018D00040F23D7001F014FF04F0040018B1012043
:1018E000FFF7F2FE02E00020FFF7EEFE04F010002A
:1018F00018B10120FFF7BEFE02E00020FFF7BAFE9C
:1019000044F008008549488100F054FB00208349D9
:10191000887304F0400018B10846807B801D8873EE
:1019200004F4C07020B17D48807B801D7B498873A2
:1019300004F0140020B17948807B10307749887317
:1019400004F0030020B17548807B001D7349887343
:1019500000203EBD01467148408908800020704744
:101960002DE9F0410446E07800F0C006E07800F090
:101970003F05607800F0010098B1EF102846E917A4
:1019800005EB5171C910A5EBC101491C01F0FF081D
:101990006248006820B16148414602683846904775
:1019A00000BF607800F0080030B15C48406818B1B2
:1019B000B0115A4A516888470020BDE8F08110B53F
:1019C00086B0044656A207CA03AB07C357A207CA8C
:1019D0008DE80700012C09D0022C0ED103AA0B219F
:1019E00040F6822001F08CFE06B010BD6A460B2145
:1019F00040F6822001F084FEF6E74FF0FF30F3E777
:101A00002DE9F04F8DB00746884615469946DDE929
:101A1000166B0024002030804049887B5A4605A977
:101A200001F0D1F918B1601E0DB0BDE8F08F3B4850
:101A3000807A00F01400002861D09DF814000006A0
:101A40009DF8151040EA01409DF8161040EA01206B
:101A50009DF81710084328609DF8180000069DF8AF
:101A6000191040EA01409DF81A1040EA01209DF843
:101A70001B10084368609DF81C0000069DF81D10AF
:101A800040EA01409DF81E1040EA01209DF81F1019
:101A90000843A8609DF8200000069DF8211040EA48
:101AA00001409DF8221040EA01209DF823100843D0
:101AB000E86004F11000C4B228680014019068685E
:101AC00000140290A86800140390E86800140490C1
:101AD00001984043029901FB0100039901FB0100B9
:101AE000049901FB010ABAF1706F02DBBAF1885F59
:101AF00022DD00F05FFA00203080401E94E721E0F4
:101B0000B8AAB38DB4980D355D000000B8AAAAAA92
:101B1000B088C3C5C700000009E3CA02F001002075
:101B2000D8B1B9F38BA391B609B4D900DAB1B9F33E
:101B30008BA391B6DAB4DA00B6F9000040F48070F5
:101B4000308000BF3448807A00F0400020B305A9FF
:101B5000601C085C095D40EA012000B2A8F80000A2
:101B600005A9E01C095C05AAA01C105C41EA002044
:101B700000B2A8F8020005A9601D095C201D105CD8
:101B800041EA002000B2A8F80400A01DC4B2B6F9D2
:101B9000000040F0080030801F48408900F4C07009
:101BA00008B305A9601C085C095D40EA012000B289
:101BB000388005A9E01C095C05AAA01C105C41EA5C
:101BC000002000B2788005A9601D095C201D105C12
:101BD00041EA002000B2B880A01DC4B2B6F90000EE
:101BE00040F0700030800C48807A00F0030018B19B
:101BF00005A90819FFF7B4FE484600F048FD00208B
:101C000012E701460448016000207047014602487F
:101C10004160002070470000F001002038B5044604
:101C2000F74890F82400C0B114B10220009001E000
:101C300000200090F24A1268D17BF14A5268107875
:101C40006B460122FFF7F9F810B14FF0FF3038BDB5
:101C50009DF80010EA48417423E0E948807A10B901
:101C60004FF0FF30F3E724B1E548407C08B1002095
:101C7000EDE714B10120009001E000200090E04A5F
:101C80001268D17BDE4A526810786B460122FFF75A
:101C9000D4F810B14FF0FF30D9E79DF80010D848C4
:101CA00041740020D3E738B500241FE0D448006811
:101CB000C07AA04204D0D2480068407DA04200D142
:101CC00012E0CF49496808786B4601222146FEF7A9
:101CD000FFFF10B14FF0FF3038BD9DF800202146C6
:101CE000C8A007F0D3FD00BF601CC4B2C448406860
:101CF0000079A042DADC0020EEE770B504460D461C
:101D0000BF480068C07AA04204D0BD480068407D4A
:101D1000A04202D14FF0FF3070BDB9484068007951
:101D2000A04202DC4FF0FF30F6E7B5494968087879
:101D30002B4601222146FEF7CBFFEDE738B50446DE
:101D4000AF4890F82300A04201D1002038BD14B163
:101D50003020009001E000200090A948807C20B154
:101D60009DF8000040F002000090A54890F8220085
:101D700020B19DF8000040F080000090A04A126859
:101D8000117D9F4A526810786B460122FFF755F883
:101D900010B14FF0FF30D9E7994880F82340002078
:101DA000D4E738B5044604F0700010B1012000906B
:101DB00005E014B10020009001E040200090904A1E
:101DC0001268917C8E4A526810786B460122FFF7A8
:101DD00034F820B100218A488172481E38BD9DF830
:101DE000000020F04001864801730020009004F0BC
:101DF000400020B99DF8000040F00400009004F07D
:101E0000200020B99DF8000040F00200009004F08E
:101E1000100020B99DF8000040F00100009004F08F
:101E2000080020B99DF8000040F038000090744A86
:101E30001268D17C724A526810786B460122FEF714
:101E4000FCFF20B100216E488172481EC6E724B114
:101E5000082C02D00020FFF771FF6948847200212E
:101E60000175322004F05BFC0020B7E738B504466A
:101E70006348807CA04201D1002038BD002C46D0B0
:101E80005F4A126811795E4A526810786B460122E7
:101E9000FEF71EFF10B14FF0FF30EEE79DF8000097
:101EA00020F020000090564A12681179544A526876
:101EB00010786B460122FEF7C0FF10B14FF0FF30E3
:101EC000DBE7032004F02BFC022000904C4890F844
:101ED000220020B19DF8000040F0800000904848AA
:101EE00090F8230020B19DF8000040F030000090F1
:101EF000434A1268117D424A526810786B460122AB
:101F0000FEF79BFF002851D04FF0FF30B5E73C4A69
:101F1000126811793A4A526810786B460122FEF72E
:101F2000D7FE10B14FF0FF30A7E73548807A00F0B8
:101F3000010028B19DF8000040F02000009004E06E
:101F40009DF8000020F0200000902D4A12681179C1
:101F50002B4A526810786B460122FEF76EFF10B1D3
:101F60004FF0FF3089E7032004F0D9FB244890F8B4
:101F7000220010B18020009001E000200090204855
:101F800090F8230020B19DF8000040F03000009050
:101F90001B4A1268117D1A4A526810786B4601225A
:101FA000FEF74BFF10B14FF0FF3066E71448847422
:101FB000002062E708B51248807A10B94FF0FF3070
:101FC00008BD002000900E4A1268D17B0C4A52686E
:101FD00010786B460122FEF730FF10B14FF0FF3052
:101FE000EEE7074A12685179054A526810786B4645
:101FF0000122FEF722FF68B14FF0FF30E0E700005A
:1020000024000020252335783A20252335780D0A31
:1020100000000000F84A12681179F74A52681078F7
:102020006B460122FEF709FF10B14FF0FF30C7E702
:10203000F14890F82400002853D00C200090EE4A7C
:1020400012681179EC4A526810786B460122FEF74B
:10205000F4FE10B14FF0FF30B2E7322004F05FFB26
:10206000C0200090E448807A00F0010020B19DF883
:10207000000040F020000090DF4A12681179DE4A2B
:10208000526810786B460122FEF7D7FE10B14FF070
:10209000FF3095E7D848407C10B10220009001E065
:1020A00000200090D44A1268D17BD34A526810783D
:1020B0006B460122FEF7C1FE10B14FF0FF307FE703
:1020C00000200090CC4A12685179CB4A52681078AF
:1020D0006B460122FEF7B1FE002855D04FF0FF30CD
:1020E0006EE704200090C44A12681179C24A52680F
:1020F00010786B460122FEF7A0FE10B14FF0FF30C2
:102100005EE7BD48807C20B9BB48807A00F00100C2
:1021100010B94020009001E060200090B64A12689B
:102120001179B54A526810786B460122FEF785FE98
:1021300010B14FF0FF3043E7322004F0F0FAAE4820
:10214000407C10B10120009001E000200090AA4ADC
:102150001268D17BA84A526810786B460122FEF7BC
:102160006CFE10B14FF0FF302AE7A34A1268517994
:10217000A14A52681078A04B10330122FEF75DFE91
:1021800010B14FF0FF301BE7002019E770B504468F
:10219000002624F00104984890F8240008B100209B
:1021A00070BD9548807A10B94FF0FF30F8E792483B
:1021B000057C807A2040904908740846007CA04243
:1021C00002D04FF0FF3600E0002614B98A48007DA7
:1021D00018B10120FFF722FD02E00020FFF71EFDED
:1021E0003CB1FFF7E7FE20B1834805744FF0FF30A4
:1021F000D6E73046D4E738B504467F48807A10B930
:102200004FF0FF3038BDBC2C02DB0120009015E000
:10221000622C02DB0220009010E02A2C02DB03205B
:1022200000900BE0142C02DB0420009006E00A2C46
:1022300002DB0520009001E0062000906E48C07A85
:102240009DF80010884201D10020DBE76A4A12683D
:102250009178694A526810786B460122FEF7EDFDCD
:1022600010B14FF0FF30CDE79DF800106248C17209
:102270000020C7E738B50446282C02DD4FF0FF30B8
:1022800038BDDCB90020FFF759FD00208DF80000B3
:1022900007208DF80100584A1268917C564A52680E
:1022A00010786B460222FEF7C8FD10B14FF0FF30E8
:1022B000E6E70021504801750020E1E70120FFF723
:1022C0003DFD20208DF80000012C06D100208DF866
:1022D00001000520FFF78FFF17E0052C06DC012029
:1022E0008DF801000520FFF786FF0EE0142C06DCB8
:1022F00002208DF801000A20FFF77DFF05E0032092
:102300008DF801001420FFF776FF9DF801000721EA
:1023100001EB8010C0B28DF80100374A1268917C41
:10232000354A526810786B460222FEF786FD10B1DE
:102330004FF0FF30A4E708212F488172002101737C
:10234000012101750020FFF721FF002098E738B533
:1023500004462948807A10B94FF0FF3038BD26482E
:1023600090F8240010B14FF0FF30F7E72248007DCD
:1023700050B134B1282C04DCE0B2FFF77BFF002021
:10238000ECE70020FFF776FF042C01DA042404E0D8
:10239000B4F57A7F01DD4FF47A744FF47A7090FBD4
:1023A000F4F0401EC0B20090134A12685178124AED
:1023B000526810786B460122FEF73FFD10B14FF0D6
:1023C000FF30CBE79DF80000401C4FF47A7191FB81
:1023D000F0F081B20848C1810146C9894810FFF771
:1023E0000AFF0020BAE738B504460348807A28B9C6
:1023F0004FF0FF3038BD000024000020022C06D032
:10240000042C07D0082C08D0102C0CD108E0002098
:1024100000900BE00820009008E01020009005E0FC
:102420001820009002E04FF0FF30E3E700BFF948CA
:10243000407A9DF80010B0EBE10F01D10020D9E700
:10244000F44A1268D179F34A526810786B46012237
:10245000FEF7F3FC10B14FF0FF30CBE79DF8000022
:10246000C110EC4841720020C4E738B50446E94881
:10247000807A10B94FF0FF3038BDFA2C09D0B4F58E
:10248000FA7F09D0B4F57A7F09D0B4F5FA6F0CD190
:1024900008E0002000900BE00820009008E01020E9
:1024A000009005E01820009002E04FF0FF30E3E7D5
:1024B00000BFD848007A9DF80010B0EBE10F01D1C1
:1024C0000020D9E7D34A12689179D24A526810782D
:1024D0006B460122FEF7B1FC10B14FF0FF30CBE7A5
:1024E0009DF80000C010CB4908720020C4E71CB55D
:1024F00080208DF80000C74A1268917CC54A526856
:1025000010786B460122FEF798FC10B14FF0FF30B7
:102510001CBD642004F003F900208DF80000BD4AC2
:102520001268917CBB4A526810786B460122FEF714
:1025300084FC10B14FF0FF30EAE7B64A1268917D93
:10254000B44A526810786B460622FEF7C1FB10B100
:102550004FF0FF30DCE79DF80500C007400F9DF805
:10256000031001F0010140EA41009DF8011001F063
:10257000010140EA010494B1012C03D10121A548D5
:10258000C17431E0022C03D10021A248C1742BE0B8
:102590002146A1A007F07AF94FF0FF30B8E79D4A35
:1025A0001268D1789B4A526810786B460122FEF778
:1025B0008FFB10B14FF0FF30AAE79DF8000000F04C
:1025C0000F042CB99E4807F061F94FF0FF309FE7E8
:1025D000042C06D19BA007F059F901218D48C17444
:1025E00002E000218B48C174FF218A488172FF20DC
:1025F00088490872FF2187484172C1724FF6FF7106
:10260000C181FF21017481740121017380F82210BE
:10261000002180F82310417501751630016041607A
:102620008160163880F8241080F82510C1844FF49A
:10263000FA60FFF71AFF10B14FF0FF3068E7022091
:10264000FFF7D1FE10B14FF0FF3061E72A20FFF70E
:10265000D2FD10B14FF0FF305AE73220FFF777FE7E
:1026600010B14FF0FF3053E70020FFF78FFD10B19E
:102670004FF0FF304CE70020FFF7F8FB10B14FF0B0
:10268000FF3045E70020FFF78CFB002040E7704754
:102690007CB504460D465F48807A00F0700010B9A2
:1026A0004FF0FF307CBD5B4A1268117B594A52687B
:1026B00010786B460622FEF70BFB10B14FF0FF308F
:1026C000F0E79DF801009DF8001040EA012000B2FB
:1026D00020809DF803009DF8021040EA012000B21E
:1026E00060809DF805009DF8041040EA012000B2CA
:1026F000A08015B12846FFF7CAFF0020D2E77CB5BD
:1027000004460D464348807A00F0080010B94FF0A7
:10271000FF307CBD3F4A1268517B3E4A52681078B8
:102720006B460622FEF7D4FA10B14FF0FF30F0E707
:102730009DF801009DF8001040EA012000B22080C1
:102740009DF803009DF8021040EA012000B260806D
:102750009DF805009DF8041040EA012000B2A08019
:1027600015B12846FFF793FF0020D2E72DE9FE4F71
:1027700005460C462748807A18B94FF0FF30BDE86F
:10278000FE8F244A1268917B224A5268107802AB6D
:102790000222FEF79DFA10B14FF0FF30EFE79DF8EF
:1027A00009009DF8081040EA012006B214B1204645
:1027B000FFF76DFF17494968C8880AF087FB15497C
:1027C00001904968B1F908000AF068FB8346304679
:1027D0000AF064FB594600900AF0BEFC824601995B
:1027E0000AF02AFA81461F490AF0B8F980464FF0EC
:1027F0008F410AF0B3FB07460AF014FB2860002063
:10280000BDE710B588B004461CB94FF0FF3008B0E2
:1028100010BD29E024000020556E737570706F7232
:1028200074656420736F6674776172652070726F6F
:1028300064756374207265762025642E0A0000009A
:10284000D4EF000848616C662073656E7369746923
:1028500076697479207061727420666F756E642E6B
:102860000A00000000000C42206830B9606820B9FE
:10287000A06810B9002008B010BDFA49496808786E
:1028800006AB03221146FEF723FA10B14FF0FF30DA
:10289000F1E79DF81800082101EB201000F00F006F
:1028A000ADF800009DF8190001EB201000F00F00BA
:1028B000ADF802009DF81A0001EB201000F00F00A7
:1028C000ADF8040020684100BDF90000403091FBE4
:1028D000F0F000B2ADF8100060684100BDF90200F0
:1028E000403091FBF0F000B2ADF81200A06841005A
:1028F000BDF90400403091FBF0F000B2ADF81400D7
:10290000D8494968087806AB06221146FEF7E0F977
:1029100010B14FF0FF30AEE79DF819009DF8181088
:1029200040EA012000B2ADF808009DF81B009DF8B8
:102930001A1040EA012000B2ADF80A009DF81D000F
:102940009DF81C1040EA012000B2ADF80C00BDF863
:102950001000BDF80810084400B2ADF81000BDF832
:102960001200BDF80A10084400B2ADF81200BDF81C
:102970001400BDF80C10084400B2ADF81400BDF806
:102980001000000A8DF81800BDF81000C0B28DF8D4
:102990001900BDF81200000A8DF81A00BDF81200E7
:1029A000C0B28DF81B00BDF81400000A8DF81C00A1
:1029B000BDF81400C0B28DF81D00AA494968087816
:1029C00006AB06221146FEF738FA10B14FF0FF3081
:1029D00051E700204FE70146A248007A30B10128B4
:1029E00007D0022809D003280FD10AE0FA20088076
:1029F0000EE04FF4FA7008800AE04FF47A70088015
:102A000006E04FF4FA60088002E00020088000BF72
:102A100000BF0020704701469248407A30B101283B
:102A200007D0022808D003280CD108E00220087043
:102A30000BE00420087008E00820087005E0102072
:102A4000087002E04FF0FF30704700BF8548C07C3F
:102A500018B108784006000E08700020F4E701461F
:102A60008048C07A082817D2DFE800F01704070A68
:102A70000D101318BC20088013E06220088010E0BD
:102A80002A2008800DE0142008800AE00A2008802F
:102A900007E00520088004E000BF00BF0020088098
:102AA00000BF00BF0020704701466E4890F8240028
:102AB00010B14FF0FF3070476A48C089088000208D
:102AC000F9E7014600200880401E704701464FF09C
:102AD000FF30704701466348007A30B1012807D0C3
:102AE000022808D003280CD108E05F4808600BE0FA
:102AF0005E48086008E05E48086005E05D480860E0
:102B000002E04FF0FF30704700BF0020FBE70146B6
:102B10005448407A30B1012808D002280AD003284E
:102B200010D10BE04FF4804008800EE041F69C701D
:102B300008800AE04FF48050088006E04FF40060FF
:102B4000088002E04FF0FF30704700BF4548C07C6E
:102B500010B10888401008800020F5E70146414880
:102B6000007C08700020704701463E48807A10B112
:102B70000120087001E0002008700020704738B57F
:102B800004463848807A10B94FF0FF3038BD354AD6
:102B90001268117C334A526810786B460222FEF7A5
:102BA00097F810B14FF0FF30F0E79DF801009DF865
:102BB000001040EA012000B220800020E6E72DE965
:102BC000FE4F0746884692461D46DDF830B0002687
:102BD0000024244890F8240010B1601EBDE8FE8F48
:102BE000002028701F48807A10B94FF0FF30F5E7B9
:102BF0001C48007C10B94FF0FF30EFE71948007C0B
:102C000000F0400008B1B01CC6B21648007C00F0CD
:102C1000200008B1B01CC6B21248007C00F01000C1
:102C200008B1B01CC6B20F48007C00F0080008B123
:102C3000B01DC6B20B4A1268917A0A4A52681078DF
:102C40006B460222FEF744F810B14FF0FF30C5E7A3
:102C50009DF801009DF8001040EA0129B1450BDA0A
:102C60000020BBE724000020000003430000834253
:102C70003333034233338341FC4840684088B9EB27
:102C8000600F17DDF94A1268517CF84A52681078D3
:102C90006B460122FEF71CF810B14FF0FF309DE7A4
:102CA0009DF8000000F0100020B1FFF783F96FF0ED
:102CB000010093E75046FFF7EAFCEC4A1268D17A2C
:102CC000EA4A526810786B463246FEF701F810B1B6
:102CD0004FF0FF3082E799FBF6F0401E8BF80000C2
:102CE00000202870B4422AD0E048007C00F00800A0
:102CF00028B3601C1DF800001DF8041040EA0120F4
:102D000000B2A8F80000E01C1DF80010A01C1DF87F
:102D1000000041EA002000B2A8F80200601D1DF882
:102D20000010201D1DF8000041EA002000B2A8F8A4
:102D30000400287840F008002870A01D84B2B44236
:102D400013D0CA48007C00F0400070B1601C1DF830
:102D500000001DF8041040EA012000B238802878F5
:102D600040F040002870A01C84B2B44213D0BF4889
:102D7000007C00F0200070B1601C1DF800001DF800
:102D8000041040EA012000B27880287840F020004A
:102D90002870A01C84B2B44213D0B448007C00F068
:102DA000100070B1601C1DF800001DF8041040EA0E
:102DB000012000B2B880287840F010002870A01CD4
:102DC00084B200200AE7F8B504460F461646A74825
:102DD00090F8240010B94FF0FF30F8BDA348807A76
:102DE00010B94FF0FF30F8E7A04A1268917A9F4A75
:102DF000526810786B460222FDF76AFF10B14FF05F
:102E0000FF30EAE79DF801009DF8001040EA012537
:102E1000A54203DA00203070401EDEE79348406888
:102E20004088B5EB600F17DD904A1268517C8F4ADD
:102E3000526810786B460122FDF74AFF10B14FF03F
:102E4000FF30CAE79DF8000000F0100020B1FFF746
:102E5000B1F86FF00100C0E7E2B2844B1B68D97A89
:102E6000824B5B6818783B46FDF732FF10B14FF09C
:102E7000FF30B2E795FBF4F0401E30700020ACE765
:102E800001467A4880F82210002070477CB505463C
:102E900076494968087801AB04220D21FDF718FF37
:102EA00008B107207CBD9DF80700C0F301109DF814
:102EB000041001F0E00140EAE1008DF800009DF807
:102EC0000700C0F381009DF8051001F0E00140EA21
:102ED000E1008DF801009DF8070000F003009DF867
:102EE000061001F0E00140EAE1008DF80200002444
:102EF0001CE01DF8040018B9002045F8240013E078
:102F00005B4845F8240006E055F8240059490AF0CA
:102F100025F845F824001DF80400401EC0B20DF845
:102F200004000028F0D100BF601CC4B2032CE0DB19
:102F30000020B7E72DE9FE4F06460F4600256846FC
:102F4000FFF7A4FF002442E056F8240057F82410AD
:102F5000A0EB010ABAF1000F01DB514601E0CAF112
:102F60000001084609F09AFF83464FF08F4109F0AF
:102F700063FE80465DF82400002109F01FFF16D093
:102F80005DF82410404609F057FE82464FF07E510E
:102F90000AF0E2F8814629F0004A3748416A504673
:102FA0000AF0A8F812D20120A04005430EE03248F2
:102FB000C169404609F09EFF05D32F48016A40468B
:102FC0000AF098F802D20120A0400543641C032CAB
:102FD000BADB2846BDE8FE8F2DE9FC5F06460F46AA
:102FE000002522494968087801AB03220D21FDF72D
:102FF0006FFE10B10720BDE8FC9F9DF8040000F0B3
:103000001F008DF804009DF8050000F01F008DF8EA
:1030100005009DF8060000F01F008DF80600002452
:1030200062E056F8240057F82410A0EB010BBBF126
:10303000000F01DB594601E0CBF10001084609F021
:103040002DFF4FF08F41009009F0F6FD814601A859
:10305000005DC0B30849086809F038FF8346594647
:10306000064809F0E9FD80460FE00000240000203A
:103070007B14AE3E1D5A843F54DF000800B04C451F
:10308000FE49404609F06AFF804601A8005D401EE7
:10309000C0B201A908550028F2D14146484609F0BE
:1030A000CBFD83464FF07E510AF056F882462AF057
:1030B000004BF348816958460AF01CF813D20120EE
:1030C000A04005430FE0FFE7ED480169484609F0DD
:1030D00011FF05D3EA48416948460AF00BF802D2CD
:1030E0000120A0400543641C032C9ADB284682E79C
:1030F0002DE9F04F87B005460C46914601208DF82A
:10310000100000208DF81100DE4A1268917CDD4A23
:103110005268107804AB0222FDF78FFE20B14FF009
:10312000FF3007B0BDE8F08FC82003F0F8FA0020A8
:103130008DF81000D34A1268D17BD24A52681078B9
:1031400004AB0122FDF779FE10B14FF0FF30E8E744
:10315000CC4A12685179CB4A5268107804AB0122EC
:10316000FDF76BFE10B14FF0FF30DAE7C54A126889
:10317000917CC44A5268107804AB0122FDF75DFED1
:1031800010B14FF0FF30CCE7BE4A1268D17DBD4A86
:103190005268107804AB0122FDF74FFE10B14FF0DA
:1031A000FF30BEE7B74A12681179B64A5268107804
:1031B00004AB0122FDF741FE10B14FF0FF30B0E744
:1031C0000C208DF81000AF4A12681179AD4A526890
:1031D000107804AB0122FDF730FE10B14FF0FF3044
:1031E0009FE70F2003F09BFAA648806A407A8DF88B
:1031F0001000A44A12689178A24A5268107804AB71
:103200000122FDF71AFE10B14FF0FF3089E79D480B
:10321000806A007A8DF810009A4A12685178994AAB
:103220005268107804AB0122FDF707FE10B14FF091
:10323000FF3076E7B9F1000F07D09248806A807AB4
:1032400040F0E0008DF8100004E08E48806A807A3B
:103250008DF810008B4A126891798A4A526810786A
:1032600004AB0122FDF7E9FD10B14FF0FF3058E744
:10327000B9F1000F07D08348806AC07A40F0E000BF
:103280008DF8100003E07E48C07A8DF810007D4A6A
:103290001268D1797B4A5268107804AB0122FDF79D
:1032A000CCFD10B14FF0FF303BE7B9F1000F02D079
:1032B000C82003F034FA40208DF81000714A1268DB
:1032C0001179704A5268107804AB0122FDF7B5FD00
:1032D00010B14FF0FF3024E778208DF81000694AD4
:1032E00012685179674A5268107804AB0122FDF7E1
:1032F000A4FD10B14FF0FF3013E76149888903F056
:103300000EFA00208DF810005E4A126851795D4A6D
:103310005268107804AB0122FDF78FFD10B14FF019
:10332000FF30FEE6574A1268917A564A5268107882
:1033300004AB0222FDF7CCFC10B14FF0FF30F0E6F9
:103340009DF811009DF8101040EA012B0C209BFB0A
:10335000F0F0C6B20020A86068602860A0606060DD
:103360002060824665E0474A1268D17A454A526831
:10337000107804AB0C22FDF7ABFC10B14FF0FF301E
:10338000CFE69DF811009DF8101040EA012000B230
:10339000ADF808009DF813009DF8121040EA0120D6
:1033A00000B2ADF80A009DF815009DF8141040EA2F
:1033B000012000B2ADF80C00BDF9081020680844E7
:1033C0002060BDF90A10606808446060BDF90C1007
:1033D000A0680844A0609DF817009DF8161040EA08
:1033E000012000B2ADF800009DF819009DF81810FA
:1033F00040EA012000B2ADF802009DF81B009DF8E4
:103400001A1040EA012000B2ADF80400BDF9001026
:10341000286808442860BDF902106868084468609C
:10342000BDF90410A8680844A8600AF1010000F082
:10343000FF0AB24597DB1248D0F800C02868C117D0
:10344000090441EA1041070462460023384606F0A9
:10345000F8F932460023CDE9020106F0F2F92860BE
:103460000748D0F800C06868C117090441EA104154
:10347000070462460023384606E0000054E3853F17
:1034800054DF00082400002006F0DBF93246002358
:10349000CDE9020106F0D5F96860FE48D0F800C019
:1034A000A868C117090441EA1041070462460023D5
:1034B000384606F0C6F932460023CDE9020106F08F
:1034C000C0F9A860F348D0F804C02168C817000408
:1034D00040EA11480F04624600233846414606F090
:1034E000B0F932460023CDE9020106F0AAF92060C6
:1034F000E848D0F804C06068C117090441EA1041E7
:10350000070462460023384606F09BF93246002342
:10351000CDE9020106F095F96060DE48D0F804C0FC
:10352000A068C117090441EA10410704624600235C
:10353000384606F086F932460023CDE9020106F04E
:1035400080F9A060A068002804DDA068A0F58030A4
:10355000A06003E0A06800F58030A0600020E0E5F6
:1035600038B50446CC4890F82400A04201D1002090
:1035700038BD24B3C84890F8250010B94FF0FF308B
:10358000F6E70020FEF74AFB0020FEF76FFCC24979
:10359000C88CFEF7DCFE00200090BF49496808781F
:1035A0006B4601222321FDF748FC0121BA4880F82F
:1035B00024100120FEF732FBFEF7FCFC13E0002094
:1035C000FEF72CFBB448007C0090B34949680878AA
:1035D0006B4601222321FDF730FC0021AE4880F824
:1035E0002410FEF7E7FC0020C2E72DE9F04F8DB074
:1035F00083460F4602200C90A74890F8240020B183
:103600000020FFF7ADFF012600E0002603A8FFF72A
:10361000E2F905A8FFF7FFF901A8FFF720FA02A8D1
:10362000FFF742FA9C4890F80AA004A8FFF796FA20
:10363000002407E0002239465846FFF759FD00B93B
:1036400002E0641C022CF5DB00BF022C01D1002536
:1036500028E0002407E0012206A909A8FFF748FD99
:1036600000B902E0641C022CF5DB00BF022C01D182
:10367000002517E006A93846FFF75CFC00F0FF08BC
:1036800009A95846FFF7A8FC00F0FF090025B9F189
:10369000000F01D145F00105B8F1000F01D145F04F
:1036A000020500BFFF207C490872FF217A48417261
:1036B000C1724FF6FF71C181FF2181720174012136
:1036C0000173BDF80C00FEF7D0FE9DF81400FEF764
:1036D0008AFEBDF80400FEF78EFDBDF80800FEF777
:1036E00036FE5046FEF75DFB9DF81000FEF74EFDDE
:1036F00016B10120FFF734FF28460DB0BDE8F08F6A
:10370000F8B504460D46164616B94FF0FF30F8BD21
:103710006148807A10B94FF0FF30F8E720128DF839
:103720000000E0B28DF801009DF8010028445A49DC
:1037300049684989884202DD4FF0FF30E7E7564A81
:103740001268117E544A526810786B460222FDF7C7
:1037500074FB10B14FF0FF30D9E7EAB24E4B1B6853
:10376000597D4D4B5B6818783346FDF766FB10B109
:103770004FF0FF30CBE70020C9E7F8B504460D460F
:10378000164616B94FF0FF30F8BD4348807A10B99D
:103790004FF0FF30F8E720128DF80000E0B28DF80E
:1037A00001009DF8010028443B4949684989884245
:1037B00002DD4FF0FF30E7E7374A1268117E364AE4
:1037C000526810786B460222FDF737FB10B14FF0BC
:1037D000FF30D9E7EAB2304B1B68597D2E4B5B684E
:1037E00018783346FDF774FA10B14FF0FF30CBE78D
:1037F0000020C9E72DE9F04385B005460E46904606
:103800009946254890F8250020B14FF0FF3005B0CB
:10381000BDE8F08316B94FF0FF30F8E7002423E04D
:10382000281B102801DD102000E0281B87B2321968
:1038300039462046FFF764FF10B14FF0FF30E6E74E
:1038400001AA39462046FFF798FF10B14FF0FF302C
:10385000DDE730193A4601A906F0B6F910B16FF06C
:103860000100D4E7E01984B2AC42D9DB4FEA28204A
:103870008DF8000008F0FF008DF80100064A12687C
:10388000917E054A526810786B460222FDF7D5FA00
:1038900038B103E054DF0008240000204FF0FF306F
:1038A000B5E70121FE4880F82510A0F826900020F9
:1038B000ADE70146FA4890F82400087000207047F0
:1038C0004FF0FF30704702464FF0FF30704701461F
:1038D0004FF0FF307047F8B505460F461446002CF0
:1038E00070D0B5F5FF5F01DDFF2605E0202D01DA80
:1038F000012601E0C5F3471607B90127282C02DD90
:103900004FF0FF30F8BDE648407D28BBE44890F812
:10391000240038B10020FFF723FE0121E04880F8A1
:10392000201003E00021DE4880F82010DC4816302B
:10393000FFF751F8DA481830FFF76DF8D8481A3019
:10394000FFF78DF8D6481C30FFF7AEF8D448817ADF
:1039500081771F30FFF702F90020FEF75FF90020A2
:10396000FEF788FC00208DF80000CD4A126891789F
:10397000CB4A526810786B460122FDF75EFA10B10F
:103980004FF0FF30BEE740208DF80000C44A1268B7
:10399000D17BC34A526810786B460122FDF74DFA7D
:1039A00000B165E08DF800608DF80170BC4A1268C6
:1039B000117ABB4A526810786B460222FDF73DFA35
:1039C00008B155E047E0052002F0A9FEB448407A6E
:1039D000072101EBC000C0B28DF80000B04A1268A8
:1039E000D179AF4A526810786B460122FDF725FA6B
:1039F00000B13DE020208DF80000012C03D1002013
:103A00008DF801000EE0052C03DC01208DF801008B
:103A100008E0142C03DC02208DF8010002E00320F2
:103A20008DF801009DF80100072101EB8010C0B264
:103A30008DF801009A4A1268917C994A5268107870
:103A40006B460222FDF7F9F900B111E0012194481B
:103A50004175002056E7924A1632002103E0505C7F
:103A600000B105E0491C0C29F9D34FF0FF3049E7BC
:103A7000FF208B490872FF2189484172C1724FF6BD
:103A8000FF71C181FF21817201740121017301461F
:103A9000887FFEF786F98249C88AFEF7E6FC8049EE
:103AA000087EFEF7A0FC7E49488BFEF7A4FB7C490C
:103AB000888BFEF74CFC7A49C87FFEF767FB784895
:103AC00090F8200010B10120FFF74AFD0021744852
:103AD0004175002016E770B588B002A905A8FFF768
:103AE00084FD0446032C3ED101A8FEF7F3FF0598A0
:103AF00009F0D4F90646019909F030FA054609F0B3
:103B000091F90590069809F0C9F90646019909F05E
:103B100025FA054609F086F90690079809F0BEF9DE
:103B20000646019909F01AFA054609F07BF9079053
:103B300005A8FDF756FA6846FEF7E9FFBDF8001044
:103B4000029848430290BDF8001003984843039040
:103B5000BDF8001004984843049002A8FDF7D4FA79
:103B6000002008B070BD0120FBE7014691F900205C
:103B7000002A01DD00201EE091F90020002A01DA70
:103B8000042018E091F90120002A01DD012012E053
:103B900091F90120002A01DA05200CE091F90220B8
:103BA000002A01DD022006E091F90220002A01DA54
:103BB000062000E00720704710B504462046FFF7B6
:103BC000D4FF0346E01CFFF7D0FF43EAC00083B2F6
:103BD000A01DFFF7CAFF43EA801083B2184610BD4C
:103BE00070B50024FCF78BFEFEF781FC002840D165
:103BF0007820FEF7D6F8C4B20CB1012070BD782051
:103C0000FEF7C4FAC4B20CB10220F7E76420FEF755
:103C10009EFBC4B20CB10320F0E7FDF747F9C4B234
:103C20000CB10420EAE71F48FFF7C6FF0546FDF781
:103C300047F9C4B20CB10520E0E740F27310FDF77C
:103C400080FDC4B20CB10620D8E76420FDF7F2FA7B
:103C5000C4B20CB10720D1E7FFF73DFF04460CB119
:103C60000820CBE70120FFF77BFCC4B21CB1092080
:103C7000C4E70A20C2E70020C0E72DE9F04F99B061
:103C800004460D4616464FF07E574FF000084FF0A1
:103C900000094FF0000A12A813A918AB0EAA03E0FE
:103CA0002400002050000020CDE9001014A916A81F
:103CB000FDF7A6FE18B1012019B0BDE8F08FBDF8E0
:103CC0004C0000F4807000287ED00E9809F0E6F8D1
:103CD00083464FF09D4108F0AFFF07460F9809F06B
:103CE000DDF883464FF09D4108F0A6FF804610980E
:103CF00009F0D4F883464FF09D4108F09DFF8146BE
:103D0000119809F0CBF883464FF09D4108F094FFDD
:103D1000824639464FF0804009F020F94946059027
:103D200009F01CF9414607904FF0404009F016F9A0
:103D30005146059009F012F90690079908F00EFF18
:103D4000834608F0DFFECDE9080107F0C1F84FF027
:103D50006632544BCDE90A0108F0C4FBCDE90C01F1
:103D600008F0E6F8206049464FF0804009F0F6F888
:103D70004946029009F0F2F8414604904FF0404065
:103D800009F0ECF84146029009F0E8F80390049934
:103D900009F0E2F983464FF07E5108F0DFFE05900E
:103DA00008F0B0FECDE9080139464FF0804009F037
:103DB000D5F84146039009F0D1F8494604904FF0F8
:103DC000804009F0CBF800E068E05146039009F02C
:103DD000C5F88346049908F0C1FE059008F092FEEC
:103DE000CDE90601DDE9082307F0BAFA4FF06632A3
:103DF0002C4BCDE90A0108F075FBCDE90C0108F068
:103E000097F828605146504609F0A8F849460490B2
:103E1000484609F0A3F841460390404609F09EF851
:103E200039460190384609F099F80090019908F058
:103E300095FE0290039909F08FF98346049909F0E1
:103E40008BF9059008F05EFECDE908015146384631
:103E500009F084F849460490404609F07FF8039041
:103E6000049908F07BFE4FF08041059009F076F848
:103E7000834608F047FECDE90601DDE9082307F097
:103E80006FFA4FF06632074BCDE90A0108F02AFBC2
:103E9000CDE90C0108F04CF8306001E002200BE79E
:103EA000002009E766A64C4008B50121082003F070
:103EB00007F80121082003F003F80121082002F08F
:103EC000FFFF0121082002F0FBFF0121102002F07A
:103ED000F7FF4FF48050ADF8000003208DF802008A
:103EE00010208DF803006946FE4801F073FC4FF482
:103EF0008051FC4801F01BFD4FF40050ADF800006C
:103F000003208DF8020010208DF803006946F54863
:103F100001F060FC4FF40051F24801F008FD4FF44D
:103F20008040ADF8000003208DF8020010208DF8CD
:103F300003006946EB4801F04DFC4FF48041E9482D
:103F400001F0F5FC4FF40040ADF8000003208DF8BF
:103F5000020010208DF803006946E24801F03AFCA7
:103F60004FF40041DF4801F0E2FC4020ADF80000D2
:103F700003208DF8020010208DF803006946DA480E
:103F800001F028FC4021D84801F0D1FC08BD70B5F3
:103F90000446002518E04021D34801F0CAFC04F093
:103FA000800028B14FF40041CE4801F0C0FC04E08D
:103FB0004FF40041CB4801F0BCFC4021CA4801F05D
:103FC000B6FC6006040E6D1C082DE4D370BD10B560
:103FD00004464FF48051C34801F0ABFC4FF400514C
:103FE000C04801F0A6FC2046FFF7D1FF4FF48051F6
:103FF000BC4801F09CFC10BD10B504464FF4805144
:10400000B84801F096FC4FF40051B64801F08FFC1F
:104010002046FFF7BCFF4FF48051B24801F087FC07
:1040200010BD70B504460D4605F1B001C8B2FFF7EA
:10403000CEFF102101EB1410FFF7C9FF04F00F00B1
:10404000FFF7C5FF70BD70B500210846FFF7E9FF17
:10405000002411E000250BE021462846FFF7E1FF90
:10406000A24901EBC411485DFFF7C6FF681CC5B249
:10407000802DF1DB601CC4B2082CEBDB70BD00208E
:104080000CE0002106E00022984B03EBC0135A54C9
:104090004A1CD1B28029F6DB421CD0B20828F0DBE2
:1040A000704710B5FFF7EBFFFFF7CDFF10BD10B560
:1040B000FFF7FAFE4FF480418A4801F038FC0A20ED
:1040C00002F02DFB4FF48041864801F032FC0A20BB
:1040D00002F025FB4FF48041824801F028FC0A20C1
:1040E00002F01DFBAE20FFF772FF0220FFF76FFF0B
:1040F0001020FFF76CFF4020FFF769FF8120FFF7DA
:1041000066FFCF20FFF763FFA120FFF760FFC82005
:10411000FFF75DFFA620FFF75AFFA820FFF757FF24
:104120003F20FFF754FF8120FFF751FFFF20FFF7EB
:104130004EFFD320FFF74BFF0020FFF748FFD520AD
:10414000FFF745FF8020FFF742FFD920FFF73FFF31
:10415000F120FFF73CFFDA20FFF739FF1220FFF7CD
:1041600036FFDB20FFF733FF4020FFF730FF202032
:10417000FFF72DFF0220FFF72AFF8D20FFF727FF13
:104180001420FFF724FFA420FFF721FFA620FFF74C
:104190001EFFAF20FFF71BFFFFF783FF10BD10B519
:1041A00004468120FFF713FF2046FFF710FF10BDE4
:1041B000402900DB0021802800DB00204C4A5170A0
:1041C000107070472DE9FC5F06460C4691469A46F2
:1041D0002046E11704EB5171C1F3C70BB04604EB65
:1041E0000A01481EC11700EB5171C1F3C7010191CB
:1041F00006EB0900401EC0B200905D4612E0294661
:104200004046FFF70EFF474607E0384901EBC5116E
:10421000C85DFFF7F1FE781CC7B200988742F4DD55
:10422000681CC5B201988542E9DDBDE8FC9F70B508
:1042300004460D4629462046FFF7BAFF2C49487828
:10424000C11700EB5171CB1029494878C11700EB19
:104250005171C910A0EBC101CEB2244800EBC310CC
:1042600023490978405C0121B14088431F4901EB93
:10427000C3111F4A1278885470BD30B501461C4CDA
:104280006378DC1703EB5474E010194C6378DC1787
:1042900003EB5474E410A3EBC404E2B2134B03EB3E
:1042A000C013134C24781B5D01FA02F423430F4C16
:1042B00004EBC0140E4D2D78635592B10B4C431C8A
:1042C00004EBC3130A4C24781B5DC2F1080441FAC5
:1042D00004F42343054D441C05EBC414044D2D7810
:1042E000635507E0000C014000100140000200206F
:1042F00059000020FB4B1B78802B0DDB0023F94C71
:10430000237023465B780833637023465B78402B29
:1043100007DB0023637004E0F24B1B785B1CF14C5D
:10432000237030BD70B50346EE4D6C78E51704EB95
:104330005575EA10EB4D6C78E51704EB5575ED10EB
:10434000A4EBC505E9B203FA01F4E0B2C443E0B25C
:10435000084100FA01F4E0B2E34C04EBC214E14D71
:104360002D78645D0443E04D05EBC215DD4E3678D3
:10437000AC55E1B1C1F1080443FA04F0C443E0B222
:10438000C1F1080400FA04F4E0B2C1F108042041CC
:10439000D54D541C05EBC414D24D2D78645D0443F7
:1043A000D14E551C06EBC515CE4E3678AC55CD4CCE
:1043B0002478802C0DDB0024CA4D2C702C466478A8
:1043C00008346C702C466478402C07DB00246C7039
:1043D00004E0C44C2478641CC24D2C7070BD2DE9DF
:1043E000F04304460D4616461F46E819C7B2301979
:1043F000C6B2A9460FE0A04607E049464046FFF78F
:1044000016FF08F1010000F0FF08B045F5DB09F1E7
:10441000010000F0FF09B945EDDBBDE8F0832DE9AF
:10442000F04104460D4616461F463B463246294695
:104430002046FFF7D4FF3B46324629462046FFF789
:10444000C1FEBDE8F08130B5054600240BE0A5F1C2
:10445000200101EB4101A54A02EB4101085DFFF794
:104460000CFF601CC4B2062CF1DB30BD30B5054634
:1044700000240DE0A5F1200101EB41019B4A02EB74
:104480004101095DC943C8B2FFF7F7FE601CC4B221
:10449000062CEFDB30BD70B505460E46144631469E
:1044A0002846FFF785FE8F480078914908708D48AF
:1044B000407848702046FFF7C6FF8D4A5178107843
:1044C00008230622FFF77EFE70BD2DE9F041064667
:1044D0000F4614461D4639463046FFF769FE8148AF
:1044E0000078834908707F48407848700A465178C0
:1044F000107808230622FFF772FF39463046FFF78F
:1045000057FE1CB12846FFF7B1FF02E02846FFF72F
:104510009AFF774A5178107808230622FFF752FE57
:10452000BDE8F08130B50446002505E014F8010B24
:10453000FFF789FF681CC5B220780028F6D128460D
:1045400030BD30B50446002505E014F8010BFFF737
:104550008DFF681CC5B220780028F6D1284630BDF2
:104560002DE9F04781468A4615461E465146484683
:10457000FFF71EFE5B4800785D4908705948407897
:10458000487025B13046FFF7DCFF044603E03046B3
:10459000FFF7C8FF04464FF0080804EB440040064C
:1045A000070E534A5178107843463A46FFF70AFE01
:1045B0002046BDE8F0872DE9F041054649480078DE
:1045C0004B4908704748407848702846FFF7B9FFC4
:1045D0000446082704EB44004006060E444A51787E
:1045E00010783B463246FFF7EDFD2046BDE8F081EE
:1045F0002DE9FC4105460E4617461C4622463DA1C4
:10460000684605F04FF9804608EB48004006020E68
:10461000082331462846FFF7E2FE6B463A4631460C
:104620002846FFF79DFFBDE8FC812DE9FC410546CA
:104630000E4617461C46224630A1684605F032F960
:10464000804608EB48004006020E08233146284603
:10465000FFF7C5FE6B463A4631462846FFF780FF16
:10466000BDE8FC812DE9F84305460E4617461C4679
:10467000224624A1684605F015F9804608EB48005B
:104680004006020E082331462846FFF7A8FE6B4677
:104690003A4631462846FFF763FFBDE8F8832DE927
:1046A000FE4F05460E4691461C46204608F02AFA63
:1046B00007463A460B4615A1684605F0F3F88246D0
:1046C0000AEB4A004006020E082331462846FFF74F
:1046D00086FE6B464A4631462846FFF741FFBDE855
:1046E000FE8F000059000020000200207CDF00083F
:1046F0005B00002025303464000000002530327853
:104700000000000025303364000000002530352E05
:10471000326600002DE9F84305460E4617461C4652
:104720002246AFF22801684605F0BCF8804608EB47
:1047300048004006020E082331462846FFF74FFE88
:104740006B463A4631462846FFF70AFFBDE8F88334
:1047500030B50546002409E0A5F12001FE4A02EB30
:104760000111085DFFF789FD601CC4B2082CF3DB62
:10477000FA4800780838F949087008464078083047
:104780004870082409E0A5F12001F34A02EB011169
:10479000085DFFF772FD601CC4B2102CF3DB30BD66
:1047A00030B5054600240BE0A5F12001EA4A02EBF2
:1047B0000111095DC943C8B2FFF75FFD601CC4B2B7
:1047C000082CF1DBE54800780838E4490870084611
:1047D00040780830487008240DE0A5F12001DE4A39
:1047E00002EB0111095D6FEA0111C1F30710FFF738
:1047F00044FD601CC4B2102CEFDB30BD70B5054623
:104800000C46D6480078D6490870D448407848709D
:104810001CB12846FFF7C4FF02E02846FFF798FFC7
:10482000CF4A517810780C230822FFF7CBFC70BDDB
:1048300070B504460D46002610E025B114F8010BB2
:10484000FFF7AEFF03E014F8010BFFF781FFC34849
:1048500040780838C1494870701CC6B220780028DA
:10486000EBD1304670BD70B504460D46002600BF42
:1048700010E025B114F8010BFFF792FF03E014F8E4
:10488000010BFFF765FFB54840780838B349487019
:10489000701CC6B2062EECDB70BD2DE9F041064659
:1048A0000F4614461D4639463046FFF781FCAB489B
:1048B0000078AB490870A948407848700A4651789A
:1048C00010780C230822FFF78AFD39463046FFF79F
:1048D0006FFC1CB12846FFF763FF02E02846FFF794
:1048E00037FF9F4A517810780C230822FFF76AFCA3
:1048F000BDE8F0812DE9F04781468A4615461E46FF
:1049000051464846FFF754FC944800789449087093
:104910009248407848702DB101213046FFF788FF5A
:10492000044604E000213046FFF782FF04464FF0C2
:104930000C08E006070E8A4A5178107843463A463A
:10494000FFF740FC2046BDE8F0872DE9F0478046A0
:10495000894614461D4649464046FFF729FC7F48D4
:1049600000787F4908707D484078487024B1012163
:104970002846FFF778FF03E000212846FFF773FF82
:104980000C273026764A517810783B463246FFF79E
:1049900019FCBDE8F0872DE9FC4105460E46174697
:1049A0001C462246AFF2B421684604F07BFF00F0BB
:1049B000FF084FEAC860020E0C2331462846FFF775
:1049C0000EFD6B463A4631462846FFF793FFBDE899
:1049D000FC812DE9FC4105460E4617461C46224641
:1049E00060A1684604F05EFF00F0FF084FEAC8606F
:1049F000020E0C2331462846FFF7F1FC6B463A467F
:104A000031462846FFF776FFBDE8FC812DE9FC47DB
:104A100005460E4691461C46204608F073F80746A8
:104A20003A460B4651A1684604F03CFF00F0FF0AED
:104A30004FEACA60020E0C2331462846FFF7CFFC2E
:104A40006B464A4631462846FFF754FFBDE8FC87CF
:104A50002DE9FE4F05460E4691461C46204608F0BD
:104A600051F807463A460B4642A1684604F01AFF41
:104A700000F0FF0A4FEACA60020E0C2331462846B6
:104A8000FFF7ADFC6B464A4631462846FFF732FF3A
:104A9000BDE8FE8F2DE9FE4305460E4617461C462F
:104AA000224636A1684604F0FDFE00F0FF084FEAFA
:104AB000C860020E0C2331462846FFF790FC6B4677
:104AC0003A4631462846FFF715FFBDE8FE832DE93B
:104AD000F04180460F4615461E4639464046FFF7D0
:104AE00067FB00240BE02EB1295DC943C8B2FFF774
:104AF000C4FB02E0285DFFF7C0FB601CC4B20C2CB5
:104B0000F1DB07F10800C1B24046FFF751FB0C246E
:104B10000DE03EB1295D6FEA0111C1F30710FFF707
:104B2000ACFB02E0285DFFF7A8FB601CC4B2182CA8
:104B3000EFDBBDE8F0812DE9F04104460D46164655
:104B40001F463B46324629462046FFF7C0FF0C234E
:104B50001A462946204615E09EE10008590000202B
:104B60005B00002025303264000000002530352E27
:104B7000326656002530332E3166560025336420C8
:104B800025000000FFF71EFBBDE8F0812DE9F0478E
:104B90000646884617461D46DDF8209041463046B9
:104BA000FFF706FB00240EE004EB440109EBC10211
:104BB00004EB440106EB8101C8B23B464146FFF7D6
:104BC00086FF601CC4B2AC42EEDB05EB45008006FC
:104BD000020E0C2341463046FFF7F4FABDE8F08799
:104BE00030B50546002409E0A5F12001FA4A02EBA0
:104BF0000111085DFFF741FB601CC4B2082CF3DB18
:104C0000F64800780838F5490870084640780830BA
:104C10004870082409E0A5F12001EF4A02EB0111D8
:104C2000085DFFF72AFB601CC4B2102CF3DB30BD1B
:104C300030B5054600240BE0A5F12001E64A02EB61
:104C40000111095DC943C8B2FFF717FB601CC4B26C
:104C5000082CF1DBE14800780838E0490870084684
:104C600040780830487008240BE0A5F12001DA4AAA
:104C700002EB0111095DC943C8B2FFF7FEFA601CDF
:104C8000C4B2102CF1DB30BD70B505460C46D348DC
:104C90000078D3490870D148407848701CB1284644
:104CA000FFF7C6FF02E02846FFF79AFFCC4A51788B
:104CB000107810230822FFF785FA70BD70B50446FE
:104CC0000D46002610E025B114F8010BFFF7B0FFE8
:104CD00003E014F8010BFFF783FFC0484078083861
:104CE000BE494870701CC6B220780028EBD130460F
:104CF00070BD2DE9F04781468A4615461E4651464D
:104D00004846FFF755FAB5480078B5490870B348EA
:104D1000407848702DB101213046FFF7CFFF04469F
:104D200004E000213046FFF7C9FF04464FF01008A9
:104D3000E006070EAA4A5178107843463A46FFF734
:104D400041FA2046BDE8F0872DE9FC4105460E46B4
:104D500017461C462246AFF26461684604F0A2FD85
:104D600000F0FF084FEAC860020E102331462846C3
:104D7000FFF735FB6B463A4631462846FFF7B9FF49
:104D8000BDE8FC812DE9FE4F05460E4691461C46C6
:104D9000204607F0B7FE07463A460B46AFF23421ED
:104DA000684604F07FFD00F0FF0A4FEACA60020E79
:104DB000102331462846FFF712FB6B464A46314620
:104DC0002846FFF796FFBDE8FE8F2DE9F0418046AB
:104DD0000F4615461E4639464046FFF7E9F90024BE
:104DE0000BE02EB1295DC943C8B2FFF746FA02E0D5
:104DF000285DFFF742FA601CC4B2102CF1DB07F10A
:104E00000800C1B24046FFF7D3F910240BE02EB1E1
:104E1000295DC943C8B2FFF730FA02E0285DFFF709
:104E20002CFA601CC4B2202CF1DBBDE8F0812DE926
:104E3000F04104460D4616461F463B46324629467B
:104E40002046FFF7C2FF10231A4629462046FFF7E7
:104E5000B9F9BDE8F0812DE9F047064688461746C6
:104E60001D46DDF8209041463046FFF7A1F90024A9
:104E70000AE009EB441206EB0411C8B23B46414676
:104E8000FFF7A3FF601CC4B2AC42F2DB2807020E9E
:104E9000102341463046FFF795F9BDE8F0870146FB
:104EA000802902DB4842C0B270470846FCE702781E
:104EB0000B7803700A70704730B50A46CD1701EBC6
:104EC0005575C5F3C703CD1701EB5575ED10A1EB73
:104ED000C505ECB2434A02EBC312125C0125A540A2
:104EE0002A43404D05EBC3152A5430BD70B5044626
:104EF0000D4629462046FFF7DFFF082301222946F9
:104F00002046FFF75FF970BD02468A4201DC104679
:104F100070470846FCE702468A4201D100207047EC
:104F2000914201DD0120FAE74FF0FF30F7E72DE96C
:104F3000F04304460D4616461F46E819C7B230191D
:104F4000C6B2A9460FE0A04607E049464046FFF733
:104F5000B3FF08F1010000F0FF08B045F5DB09F1EF
:104F6000010000F0FF09B945EDDBBDE8F0832DE954
:104F7000FF4F82B005460C469146A9EB0501C8B229
:104F8000FFF78DFF01900599091BC8B2FFF787FF56
:104F900000909DF800009DF80410884205DD012670
:104FA000694601A8FFF783FF00E00026494628462E
:104FB000FFF7B1FF834620460599FFF7ACFF074690
:104FC0009DF80400C0F101019DF8000088400FFA2F
:104FD00080F84FF0000A2CE09EE7000859000020FE
:104FE0005B0000200002002021462846FFF764FFF6
:104FF000B8F1000F0CDB1EB105EB0B00C5B201E0F0
:10500000E019C4B29DF80400A8EB40000FFA80F844
:1050100016B1E019C4B202E005EB0B00C5B29DF871
:10502000000008EB40000FFA80F80AF1010000F0E0
:10503000FF0A9DF804008245D6DD06B0BDE8F08F7A
:105040002DE9F05F07460C4615461E46E91BC8B21F
:10505000FFF725FF401C00F0FF08311BC8B2FFF727
:105060001EFF401C00F0FF0929463846FFF74CFFA1
:10507000824631462046FFF747FF834633462A469D
:1050800021463846FFF773FF4B4642465946504685
:10509000FFF798F8BDE8F09F2DE9F04105460E4670
:1050A00000240FE0671C05EB47077B78671C15F8A9
:1050B000172005EB4407797815F81400FFF757FF20
:1050C000601CC4B2B442EDDBFEF7BDFFBDE8F08169
:1050D0002DE9F04104460D4616461F46DDF81880BE
:1050E0007F2C00DD7F243F2D00DD3F25B8F1000F30
:1050F00005D03B46324629462046FFF718FFA01947
:10510000C2B22B4629462046FFF731FFE919CBB240
:10511000A119CAB2A119C8B22946FFF728FFE81998
:10512000C3B2224629462046FFF721FFE819C3B241
:10513000A019C2B2E819C1B22046FFF718FF781CC7
:10514000C3B2701CC2B229462046FFF73BF8BDE847
:10515000F0812DE9F04706460F469046002445466B
:105160000520A0EB880944E07A19D1B23219D0B2F7
:10517000FFF7A2FE7A1BD1B23219D0B2FFF79CFE24
:105180007A19D1B2321BD0B2FFF796FE7A1BD1B298
:10519000321BD0B2FFF790FE3A19D1B27219D0B2D9
:1051A000FFF78AFE3A1BD1B27219D0B2FFF784FE24
:1051B0003A19D1B2721BD0B2FFF77EFE3A1BD1B2C0
:1051C000721BD0B2FFF778FE601CC4B2B9F1000FB9
:1051D00006DA0C2000EBC40048440FFA80F908E01E
:1051E000681EC5B2E000A0EBC500143048440FFAB9
:1051F00080F9AC42B8DD4FF0010C0CEB480C0CF020
:10520000FF034FF0010C0CEB480C0CF0FF02A7EB76
:10521000080C0CF0FF01A6EB080C0CF0FF00FEF7E9
:10522000D1FFBDE8F0872DE9FF4F83B00F469046D0
:105230001E46DDF844904FF0000AFF200190701EDA
:10524000C11700EB5171C910491C01F0FF0B30462A
:10525000F11706EB5171C910A6EBC101C9B2029159
:10526000DDE901018840C0B20190109800284ED0BD
:105270000298002831D0002414E007EBC400C1B22A
:105280000398FEF795FF002508E051460AF1010A50
:1052900019F80100FFF746F8681CC5B24545F4DB74
:1052A000601CC4B2ABF10100A042E6DC07EBC00019
:1052B000C1B20398FEF77CFF00250BE051460AF1CE
:1052C000010A19F80110019A41EA0200FFF72AF8D1
:1052D000681CC5B24545F1DB32E0002414E007EB61
:1052E000C400C1B20398FEF763FF002508E05146F1
:1052F0000AF1010A19F80100FFF714F8681CC5B299
:105300004545F4DB601CC4B25C45E8DB18E00024D2
:1053100014E007EBC400C1B20398FEF749FF002573
:1053200008E051460AF1010A19F80100FEF7A5FF4D
:10533000681CC5B24545F4DB601CC4B25C45E8DBC3
:105340003346424639460398FEF73CFF07B0BDE8B6
:10535000F08F2DE9F04F8DB08046894617461D46E7
:10536000DDF858A09AFBF7F00C909AFBF5FB179824
:10537000002845D0002438E0189807F0C3FBCDE999
:1053800006010C9807F0A2FD0190204607F09EFD53
:105390000090019907F0E2FD4FF08841029007F07C
:1053A0004BFC039007F0AEFBCDE90401DDE90623D9
:1053B00006F096F800224FF08143CDE9080107F08E
:1053C00091F8CDE90A0106F0F9FF0646B6FBFBF6B7
:1053D000AE4200D92E46A9EB0602D1B208EB040278
:1053E000D0B2FFF769FD601CC4B2BC42C4DBA9EBBC
:1053F0000500C1B22B463A464046FEF7E3FE44E0C4
:10540000002438E0189807F07DFBCDE906010C98E0
:1054100007F05CFD0190204607F058FD00900199CF
:1054200007F09CFD4FF08841029007F005FC0390C7
:1054300007F068FBCDE90401DDE9062306F050F82A
:1054400000224FF08143CDE9080107F04BF8CDE988
:105450000A0106F0B3FF0646B6FBFBF6AE4200D9E2
:105460002E4609EB0602D1B2A8EB0402D0B2FFF738
:1054700023FD601CC4B2BC42C4DBA8EB0701C8B268
:105480002B463A464946FEF79DFE0DB0BDE8F08F2B
:105490002DE9F04F95B081460E4617461C46DDF8C3
:1054A00078A09AFBF7F013909AFBF4F01290002585
:1054B00057E04FF07E50209907F04EFE4FF08841A4
:1054C0000B9007F04BFD834607F01CFBCDE90E0166
:1054D0001F9807F017FBCDE90601139807F0F6FCBB
:1054E0000290284607F0F2FC0190029907F036FD81
:1054F0004FF08941039007F09FFB834607F002FBC2
:10550000CDE90401DDE9062305F0EAFFCDE90A0152
:105510004FF08940209907F021FD834607F0F2FA09
:10552000CDE90801DDE90A2306F0DCFFCDE90C0135
:10553000DDE90E2306F02EFDCDE9100106F03EFF59
:1055400080461298B8FBF0F8A04500D9A046A6EB1B
:105550000802D1B209EB0502D0B2FFF7ADFC681C1E
:10556000C5B2BD42A5DB301BC1B223463A46484610
:10557000FEF728FE15B0BDE8F08F000000B589B039
:105580000121022001F0A9FC0121042001F098FC76
:105590000121082001F094FC18208DF80700C0209C
:1055A000ADF8040003208DF8060001A9534800F06F
:1055B00011F918208DF807000120ADF80400032030
:1055C0008DF8060001A94E4800F004F94D4802F09C
:1055D000B1FB0020ADF80E00ADF80A0044F61F60E4
:1055E000ADF80C004720ADF8080000208DF8100041
:1055F00002A9444802F00EF805A802F040FB602022
:10560000ADF814000020ADF81C000120ADF8160024
:105610000020ADF81A0005A93A4802F038F805A9AB
:10562000384802F076F805A9364802F0BFF80121A3
:10563000344802F04BFB09B000BD10B504462146CA
:10564000304802F0DBFD10BD10B5044621462D4860
:1056500002F0D6FD10BD10B504462146294802F0DF
:10566000D1FD10BD10B5FFF789FF10BD2DE9F04148
:1056700004462549204607F0DFFA8046234907F013
:105680006DFC0746224907F069FA064607F0E6FB7B
:1056900085B22846FFF7D1FFBDE8F0812DE9F04142
:1056A00004461949204607F0C7FA8046174907F013
:1056B00055FC0746164907F051FA064607F0CEFB9F
:1056C00085B22846FFF7C0FFBDE8F0812DE9F04123
:1056D00004460D49204607F0AFFA80460B4907F013
:1056E0003DFC07460A4907F039FA064607F0B6FBC3
:1056F00085B22846FFF7AFFFBDE8F0810008014002
:10570000000C014000040040000034430000FA4453
:105710000000FA4310B50446CC48844208D1012168
:10572000042001F0E7FB0021042001F0E3FB46E048
:10573000C748844208D10121082001F0DBFB002189
:10574000082001F0D7FB3AE0C248844208D1012189
:10575000102001F0CFFB0021102001F0CBFB2EE048
:10576000BD48844208D10121202001F0C3FB002163
:10577000202001F0BFFB22E0B848844208D101217B
:10578000402001F0B7FB0021402001F0B3FB16E000
:10579000B348844208D10121802001F0ABFB0021F5
:1057A000802001F0A7FB0AE0AE48844207D1012126
:1057B000801501F09FFB0021A01501F09BFB10BD9F
:1057C00010B50121084601F095FB0021012001F0F0
:1057D00091FB10BD2DE9F041024600250026002076
:1057E00000230024002791F803C00CF00F0591F866
:1057F00003C00CF0100CBCF1000F03D091F802C0F4
:105800004CEA050591F800C0BCF1000F31D01468D6
:1058100000202BE04FF0010C0CFA00F3B1F800C0AF
:105820000CEA03069E4220D183004FF00F0C0CFAC5
:1058300003F7BC4305FA03FC4CEA040491F803C0E7
:10584000BCF1280F06D14FF0010C0CFA00FCC2F895
:1058500014C00AE091F803C0BCF1480F05D14FF025
:10586000010C0CFA00FCC2F810C0401C0828D1D36F
:105870001460B1F800C0BCF1FF0F34DD54680020A3
:105880002EE000F1080C4FF0010808FA0CF3B1F813
:1058900000C00CEA03069E4221D183004FF00F0C9A
:1058A0000CFA03F7BC4305FA03FC4CEA040491F834
:1058B00003C0BCF1280F05D100F1080C08FA0CF860
:1058C000C2F8148091F803C0BCF1480F07D100F171
:1058D000080C4FF0010808FA0CF8C2F81080401CC0
:1058E0000828CED35460BDE8F0814FF6FF710180E7
:1058F000022181700421C170704702460020936824
:105900000B400BB1012000E0002070470146886881
:1059100080B2704702460020D3680B400BB10120D3
:1059200000E0002070470146C86880B270470161FE
:105930007047416170470AB1016100E04161704701
:10594000C16070474FF480320A4382618161826195
:1059500082698269704702460020434B18684FF6FF
:105960008073184040EA021008433F4B18607047AC
:105970003E49C8617047F0B50A4600230024002163
:10598000002500F00046B6F1004F02D1364EF16915
:1059900001E0354E7168C0F3034583B200F4401650
:1059A000B6F5401F08D121F070612F4E766826F0C1
:1059B00070662D4F7E6012E000F48016B6F5801FF1
:1059C00006D1032606FA05F4A14341F0706106E012
:1059D000460D360103FA06F6B14341F0706122B17B
:1059E000460D360103FA06F6314300F00046B6F1E3
:1059F000004F02D11C4EF16101E01B4E7160F0BD01
:105A000030B500228B071C0F0F2303FA04F2164B4C
:105A100008338C1053F824309343134C08348D1002
:105A200044F8253023468C1053F824308C07240F7B
:105A300000FA04F423430C4C08348D1044F825304C
:105A400030BD0A49DC3108607047000000080140A1
:105A5000000C0140001001400014014000180140FA
:105A6000001C0140002001400000014000002042D5
:105A700008B50121042001F023FA4FF40060ADF8CD
:105A8000000003208DF8020010208DF80300694605
:105A9000FE48FFF79FFE0121042001F011FA4FF4A8
:105AA0008050ADF8000003208DF8020010208DF822
:105AB00003006946F548FFF78DFE0121102001F033
:105AC000FFF94FF40070ADF8000003208DF80200DC
:105AD00010208DF803006946ED48FFF77BFE012199
